:100000000C9442130C94BB130C94BB130C94BB13B1
:100010000C94BB130C94BB130C94BB130C94BB1328
:100020000C94BB130C94BB130C94BB130C94BB1318
:100030000C94BB130C9490150C94D0150C94BB131A
:100040000C94BB130C94BB130C94BB130C94BB13F8
:100050000C94BB130C94BB130C94BB130C94BB13E8
:100060000C94BB130C94BB130C94BB130C94BB13D8
:100070008100450027FF24FF2A902B1C210C22FB26
:10008000850084008903888D81096F0244424700FE
:100090004501B083B300B10125118A4F8B035A5536
:1000A00001200101003808000000000000000000ED
:1000B00000000000000000000000000000003C18EC
:1000C0003F189C18A018A81848184D185218AF18B7
:1000D000551858185B18991800408891D2E4ADB5AE
:1000E000B6BEBFFF5468616E6B7320666F7220707E
:1000F0006C6179696E672100536F72727920746840
:1001000069732067616D6520697320696E636F6D27
:10011000706C6574652E004F727978204C6F2D4697
:10012000692C206F72797864657369676E6C61629F
:100130002E636F6D003B323031332042656E747236
:100140006963697479004573636170652046726FF5
:100150006D0050726573732053746172742100478F
:100160006F6C643A004B6579733A004C6966653A86
:10017000000000000000000000000000000000007F
:10018000000000000000000000000000000000006F
:10019000000000000000000000000000000000005F
:1001A000000000000000000000000000000000004F
:1001B0000001010101010101010A0A0A0A0A0A0AF1
:1001C0000A01010101010101010A0A0A0A0A0A0AD7
:1001D0000A01010101010101010A0A0A0A0A0A0AC7
:1001E0000A01010101010101010A0A0A0A0A0A0AB7
:1001F0000A0101010101010101015353010153539E
:100200000101535301015353010101010101010196
:100210000101010101010101010153530101535386
:100220000101535301015353010101010101010176
:1002300001530A0101530A01010A0A01010A0A01D4
:10024000010101530A0101530A01010A0A01010ACD
:100250000A530A0101530A01010A0A01010A0A01AB
:10026000010101530A0101530A01010A0A01010AAD
:100270000A00000065650000000065650A0B656501
:1002800000650A0B0A0B0A0B65ADAD0B0A0B0A0BD6
:100290000A0B0A0B0A0BAD0B0AADAD0B0A0B0A0BCE
:1002A0000A0B0A0B0A0B0A0B0A0B0A0B0A0B0A0BA6
:1002B0000A0A0A0A0A0A0A0A0A0A00000000010BCE
:1002C0000A0A000000015C0B0A0A0000010B5C0B2B
:1002D0000A0A00015C0B5C0B0A0A010B5C0B5C0B4D
:1002E0000A0A5C0B5C0B5C0B0A0A0A0A0A0A0A0A75
:1002F0000A5C0C0C0C0C0C0C5C0C0C0C0C0C0C0CA0
:100300000C0C0C0C0C0C0C0C0C5C0C0C0C0C0C0CDD
:100310005C0B0B0B0B0B0B0B0B0B0000000000001E
:100320000B0B0000000000000B0B000000000000A1
:100330000B65656565656565655C5C5C5C5C5C5C06
:100340005C5CBC072A456E545C5CBC072A456E5455
:100350005C5C5C5C5C5C5C5C5C5C05D2371061BCCA
:100360005C5C05D2371061BC5C5C5C5C5C5C5C5CBA
:100370005C00656565656565006565656565656500
:10038000650A6565656565650A520A0B0B0B0B0A04
:10039000520A52A4A4A4A4520A0A0A0B0B0B0B0A79
:1003A0000A520A0B0B0B0B0A520A52A4A4A4A45221
:1003B0000A00005C5C5C5C0000005C5C65655C5C89
:1003C000000A5C656565655C0A5C5C656565655C25
:1003D0005C5C6565656565655C5C656565656565F1
:1003E0005C5C6565656565655C5C656565656565E1
:1003F0005C5C6565656565655C5C5C656565655CE3
:100400005C0A5C656565655C0A0B5C5C65655C5CEB
:100410000B0B0A5C5C5C5C0A0B0A0B0B0B0A0A0BED
:100420000A0A0B0A0A0B0B0A0B000A0B0B0A0A0B2F
:1004300009005C6565656565655C5C656565656548
:10044000655C5C6565656565650A5C5C5C5C5C5CFF
:100450005C0B0A0B0A0A0B0A0A0B0B0A0B0B0A0BA2
:100460000B0A0B0B0A0A0B0A0A090A0A0B0B0A0BE6
:100470000B65656565656565656565656565656586
:10048000656565656565656565656565656565651C
:10049000656565656565656565656565656565650C
:1004A00065656565656565656565656565656565FC
:1004B00065656565656565656565656565656565EC
:1004C0006565656565656565655C5C5C5C5C5C5C1B
:1004D0005C0A0A0B0B0A0B0A0B0B0B0A0B0B0A0B21
:1004E0000B0A0A0B0A0A0B0B0A0B0B0A0B0B0A0B63
:1004F0000B6565656565655C006565656565655C7D
:100500005C6565656565655C5C5C5C5C5C5C5C5CF5
:100510000A0B0A0A0B0B0B0B0B0A0B0B0A0B0B0A31
:100520000B0B0B0A0B0B0A0B0A0A0B0B0B0A0B0B20
:1005300000005C5C5C5C5C5C005C5C656565655CEB
:100540005C5C6565656565655C5C5C656565655C91
:100550005C0A5C5C5C5C5C5C0B0B0B0A0B0B0A0BB7
:100560000A0B0A0B0A0A0B0B0B000B0A0B0B0B0AEC
:1005700000090909090909090912121212121212B5
:100580001209090909090909091212121212121293
:100590001209090909090909091212121212121283
:1005A0001209090909090909091212121212121273
:1005B000120909090909090909091212090912127E
:1005C0000909121209091212090909090909090977
:1005D0000909090909090909090912120909121267
:1005E0000909121209091212090909090909090957
:1005F0000919120909191209091212090912120915
:10060000090909191209091912090912120909120D
:1006100012191209091912090912120909121209EB
:1006200009090919120909191209091212090912ED
:1006300012FFFFFF0000000000FF000000000000AC
:1006400000FF00000000000000FF000000000000AC
:1006500000FFFF0000FFFFFF00FF00000000FF00A1
:1006600000FF0000000000FF00FFFFFF00FFFFFF92
:10067000000000000000000000000000000000007A
:10068000000000000000000000000000000000006A
:100690000000FFFF00FFFF0000FF0000000000FF60
:1006A00000FF000000FFFF000000FFFF00FFFFFF52
:1006B000000000000000000000000000000000003A
:1006C000000000000000000000000000000000002A
:1006D00000FFFF000000FFFF00FF00FF00FFFFFF23
:1006E00000FFFF0000FF000000FF00000000FFFF10
:1006F00000000000000000000000000000000000FA
:10070000000000FFFF0000000000FF0000000000EC
:100710000000FFFF0000FFFF0000FF0000FF0000DF
:100720000000FF0000FF0000FF00FF0000FF0000CE
:1007300000000000000000000000000000000000B9
:1007400000000000000000000000000000000000A9
:10075000000000000000000000FF0000FFFFFFFF9E
:100760000000FF00FF00FF00FFFF0000FF00FF0090
:10077000FF191910191010231910232310231923FE
:1007800010192310102310231910101910191919FA
:1007900023231010191019101923101910192323CD
:1007A000231919102319192319192323191019238F
:1007B00023101910101019191019102319191010DD
:1007C000191019192319232310231023101019238A
:1007D00019101910191910101019102310102310C6
:1007E00019101019232319191010191910101019A4
:1007F0001019232319191910101910231010231977
:100800001010191019102323191019232319191066
:100810001919101923191010101910231010191973
:100820001010191910232319231910191910231046
:10083000230000000000000000FFFFFFFFFF00009A
:1008400000FF00000000FF0000FF00000000FF00AC
:1008500000FF00000000FF00FFFF00000000FF009D
:10086000FFFF00000000FF00FFFFFFFFFFFF000091
:100870000000000000000000000000000000000078
:100880000000000000000000000000000000000068
:10089000000000FF00FF0000000000FF00FFFFFF5E
:1008A000000000FF00FF0000FFFFFF0000FF00004E
:1008B000FF00000000000000000000000000000039
:1008C000000000FFFF0000000000FF0000FF00002C
:1008D0000000FF0000FF0000FF0000FFFF0000FF1E
:1008E000FF00000000FF00FF000000FFFF0000000D
:1008F000FF000000000000000000000000000000F9
:1009000000000000000000000000000000000000E7
:1009100000FF0000FFFF0000FFFF00FF0000FF00DE
:10092000FF0000FF0000FF00FFFF0000FFFF0000CE
:10093000FF000000000000000000000000000000B8
:10094000000000000000FFFF0000000000FF0000AA
:10095000FF00000000000000FFFFFF00000000FF9C
:10096000000000FF0000FF00000000FF00FFFFFF8D
:10097000FFFFFFFFFFFFFFFFFFFFFFFFFFFFFFFF87
:10098000FFFFFFFFFFFFFFFFFFFFFFFFFFFFFFFF77
:10099000FFFFFFFFFFFFFFFFFFFFFFFFFFFFFFFF67
:1009A000FFFFFFFFFFFFFFFFFFFFFFFFFFFFFFFF57
:1009B000FFFF00000000000000FFFF00000000003B
:1009C00000FFFFFF0000000000FFFFFFFF0000002E
:1009D00000FFFFFFFFFF000000FFFFFFFFFFFF0022
:1009E00000FFFFFFFFFFFFFF00FFFFFFFFFFFFFF15
:1009F000FF00000000000000FF000000000000FFFA
:100A0000FF0000000000FFFFFF00000000FFFFFFED
:100A1000FF000000FFFFFFFFFF0000FFFFFFFFFFE1
:100A2000FF00FFFFFFFFFFFFFFFFFFFFFFFFFFFFD5
:100A3000FFFFFFFFFFFFFFFFFFFFFFFFFFFFFFFFC6
:100A400000FFFFFFFFFFFF0000FFFFFFFFFF0000B1
:100A500000FFFFFFFF00000000FFFFFF000000009D
:100A600000FFFF000000000000FF00000000000089
:100A700000FFFFFFFFFFFFFFFF00FFFFFFFFFFFF84
:100A8000FF0001FFFFFFFFFFFF000000FFFFFFFF70
:100A9000FF00000000FFFFFFFF0000000000FFFF5D
:100AA000FF000000000000FFFF0000000000000049
:100AB000FF00000000000000000000ADADADADADD6
:100AC000AD00AD00201D37373700AD1D3737373744
:100AD0003700AD1D1D37371D1D00AD1D1D1D1D1D12
:100AE0003700AD001D1D1D373700AD00001D1D373F
:100AF000370000000000000000ADADADADADADAD04
:100B0000AD37373737373737371D1D1D373737374D
:100B1000371D373737373737373737373737371D99
:100B20003737373737371D1D37373737371D1D37BD
:100B3000370000000000000000ADADADADADAD0070
:100B40000037371D002029AD00373737002020AD92
:100B5000003737371D0020AD003737371D0020AD77
:100B6000003737371D1D00AD00371D1D1D1D00ADA1
:100B700000ADADADADADADADADA3A3A3A3A3A3A398
:100B8000AD525252525252A3AD525252525252A3ED
:100B9000AD525252525252A3AD525252525252A3DD
:100BA000AD525252525252A3AD525252525252A3CD
:100BB000AD0000000000000000525252525252524A
:100BC00052ADADADADADADADADA3A3A3A3A3A3A3F6
:100BD000A3525252525252525252525252525252A4
:100BE0005252525252525252520000000000000023
:100BF0000000525252A3AD520000525252A3AD52C5
:100C00000000525252A3AD520000525252A3AD52B4
:100C10000000525252A3AD520000525252A3AD52A4
:100C20000000525252A3AD520000525252A3AD5294
:100C3000000000FF00FF00000000FF06FF06FF00AD
:100C400000FF0647060604FF00FF0606060604FF2F
:100C50000000FF060604FF00000000FF04FF000084
:100C600000000000FF000000000000000000000085
:100C7000000000FF00FF00000000FF00FF00FF0079
:100C800000FF005B00005BFF00FF000000005BFF57
:100C90000000FF00005BFF00000000FF5BFF0000A2
:100CA00000000000FF000000000000000000000045
:100CB0000000AD1D1D1D37373700AD001D1D1D3750
:100CC0003700AD00001D1D1D1D00AD0000001D1DE5
:100CD0001D00ADB7B70000000000AD2E2E006F65FF
:100CE000FD00AD2E00136FB7FD00AD00006F13B710
:100CF000B737371D1D1D1D1D1D1D1D1D00001D1D90
:100D00001D1D1D00656F6F1D0000006F6F6F6F0070
:100D1000000000006F6F0000009100656F6F00FD24
:100D200091EB006FB7B765FDEBB72EB7B7B7B72636
:100D3000261D1D1D1D1D00AD001D1D1D1D1D00AD11
:100D40000000001D1D1D00AD00000000000000ADF2
:100D50000000262600B7B7AD00002626002626ADE7
:100D600000002613130026AD002626132F0000AD29
:100D70000065656565656565656565656565656588
:100D80006565656565656565656565656565656513
:100D9000650A0B0A0B0B0A0B0B0B0A0B0B0A0B0A4F
:100DA0000A0A0B0B0B0B0A0B0B0A0B0A0A0A0B0A9B
:100DB0000B00000000000000000000000000000028
:100DC000000052000000000000000052000000007F
:100DD000000000525200000000000000000000006F
:100DE00000000000000000000019000000000000EA
:100DF0000009091A1A1A1A09091265231A231A1A5C
:100E0000121A231A231A1A1A1A1A1A231A1A1A1A2F
:100E10001A101A1A1A1A1A1A10121010101010108A
:100E2000120909090B0B09090912120B5C5C0B1260
:100E300012000000000000000000000000000000A0
:100E400000000000000052000000000000525200AC
:100E5000000000000052520000000000005200009C
:100E60000000000000000000000000000000000082
:100E700000000000000000000013131300B7B700CB
:100E80000013131300B7B7000000000000000000BB
:100E900000000000006565650000000000656565F4
:100EA0000000000000000000000000000000000042
:100EB0000000AD00002F13B7B700AD00002F136F77
:100EC000B700AD0000136F136F00AD0000006F009E
:100ED0001300AD00000000200000AD00002020291C
:100EE000290000ADADADADADAD00000000000000CB
:100EF00000B7B7B70065262626B7B7B7B7262626A8
:100F000026B7B7651313132626656FB7B7B726261E
:100F10006500136565656513000065652626260076
:100F200000ADADADADADADADAD0000000000000059
:100F3000002626132F0000AD002626132F0000AD3B
:100F400000260026650000AD00130026000000AD5D
:100F500000200000000000AD00202020200000AD97
:100F600000ADADADADADAD00000000000000000073
:100F700000655C1D271F0000000A0B0300370000FE
:100F800000A4AD6E5300000000F501000000000059
:100F900000060D040000000000FF470000000000F4
:100FA0000000000000000000000000000000000041
:100FB0000010212A000000001A5969730000000087
:100FC0001919612335000000100000000000000026
:100FD0000800000000000000000000000000000009
:100FE0000000000000000000000000000000000001
:100FF000000000000000000000525200000000004D
:1010000000520052000052000000520052525200A2
:10101000000000520052000000000000000000002C
:1010200000000000000000000000000000000000C0
:101030000000FFFFFFFFFFFFFFFFAD5B5B5B5B5B44
:101040005BFF5B5BFFFF5B5BFFFF5BFF5B5B5BFF74
:101050005BFF5BFF5B5B5BFF5BFF5B5BFFFF5B5B08
:10106000FFFFAD5B5B5B5B5B5B00FFFFFFFFFFFFB9
:10107000FFFFFFFFFFFFFFFFFF5200000000000027
:1010800000FF5200FFFF0000FF5B5B52FF00FF000C
:10109000005B5B5BFFFF000000FF5B52FFFFFF0098
:1010A000005B52000000000000FFFFFFFFFFFFFF9A
:1010B000FFFFFFFFFFFFFFFFFF0000000000000039
:1010C0000000FF0000FF0000FFFF000000FFFF0026
:1010D000FFFF00FF00FF00FFFFFF000000FF000018
:1010E000FF0000000000000000FFFFFFFFFFFFFF08
:1010F000FFFFFFFFFFFFFFFFFF00000000000000F9
:10110000000000FFFF0000000000FF0000000000E2
:10111000FF00FF000000FF00000000FFFF000000D4
:10112000FF0000000000000000FFFFFFFFFFFFFFC7
:10113000FFFFFFFFFFFFFFFF0000000000000000B7
:10114000FFFFFF0000FF0000FF000000FF00FF00A6
:10115000FFFFFF00FFFFFF00FFFFFF00FF00FF009A
:10116000FF00000000000000FFFFFFFFFFFFFFFF88
:101170000000FFFFFF00000000FF000000FF000074
:1011800000FF00FF00FF000000FF00FF00FF000065
:1011900000FF000000FF00000000FFFFFF00000054
:1011A000000000000000000000000000000000003F
:1011B000000000FF000000000000FFFF0000000032
:1011C000000000FF00000000000000FF0000000021
:1011D000000000FF000000000000FFFFFF00000013
:1011E00000000000000000000000000000000000FF
:1011F0000000FFFFFF00000000FF000000FF0000F4
:101200000000000000FF00000000FFFFFF000000E2
:1012100000FF00000000000000FFFFFFFFFF0000D4
:1012200000000000000000000000000000000000BE
:1012300000FFFFFFFFFF00000000000000FF0000B4
:10124000000000FFFF0000000000000000FF0000A1
:1012500000FF000000FF00000000FFFFFF00000093
:10126000000000000000000000000000000000007E
:1012700000000000FF000000000000FFFF00000071
:101280000000FF00FF00000000FFFFFFFFFF000065
:1012900000000000FF00000000000000FF00000050
:1012A000000000000000000000000000000000003E
:1012B00000FFFFFFFFFF000000FF00000000000034
:1012C0000000FFFFFF0000000000000000FF000022
:1012D00000FF000000FF00000000FFFFFF00000013
:1012E00000000000000000000000000000000000FE
:1012F000000000FFFF0000000000FF0000000000F1
:101300000000FFFFFF00000000FF000000FF0000E2
:1013100000FF000000FF00000000FFFFFF000000D2
:1013200000000000000000000000000000000000BD
:1013300000FFFFFFFFFF000000FF000000FF0000B4
:1013400000000000FF000000000000FF000000009F
:10135000000000FF00000000000000FF000000008F
:10136000000000000000000000000000000000007D
:101370000000FFFFFF00000000FF000000FF000072
:101380000000FFFFFF00000000FF000000FF000062
:1013900000FF000000FF00000000FFFFFF00000052
:1013A000000000000000000000000000000000003D
:1013B0000000FFFFFF00000000FF000000FF000032
:1013C00000FF000000FF00000000FFFFFFFF000023
:1013D0000000000000FF00000000FFFFFF00000011
:1013E00000000000000000000000000000000000FD
:1013F00000000000000000000000000000000000ED
:101400000000FF00000000000000000000000000DD
:1014100000000000000000000000FF0000000000CD
:1014200000000000000000000000000000000000BC
:10143000000000FFFFFF00000000FF000000FF00B1
:1014400000FF0000FFFF00FF00FF00FF000000FFA3
:1014500000FF0000FFFF00FF0000FF000000FF0092
:10146000000000FFFFFF000000000000000000007F
:10147000000000000000000000000000000000006C
:10148000000000000000000000000000000000005C
:1014900000000000000000000000FF00000000004D
:1014A0000000FF000000000000000000000000003D
:1014B000000000000000000000000000000000002C
:1014C000000000000000000000FFFFFFFFFF000021
:1014D000000000000000000000000000000000000C
:1014E00000000000000000000000000000000000FC
:1014F00000000000000000000000000000000000EC
:1015000000000000000000000000000000000000DB
:1015100000000000000000000000FF0000000000CC
:1015200000000000000000000000000000000000BB
:10153000000000FF00000000000000FF00000000AD
:10154000000000FF00000000000000FF000000009D
:101550000000000000000000000000FF000000008C
:10156000000000000000000000000000000000007B
:101570000000FFFFFF00000000FF000000FF000070
:1015800000FF000000FF000000FFFFFFFFFF000062
:1015900000FF000000FF000000FF000000FF00004F
:1015A000000000000000000000000000000000003B
:1015B00000FFFFFF0000000000FF0000FF00000030
:1015C00000FFFFFF0000000000FF0000FF00000020
:1015D00000FF000000FF000000FFFFFFFF00000011
:1015E00000000000000000000000000000000000FB
:1015F0000000FFFFFF00000000FF000000FF0000F0
:1016000000FF00000000000000FF000000000000DC
:1016100000FF000000FF00000000FFFFFF000000CF
:1016200000000000000000000000000000000000BA
:1016300000FFFFFFFF0000000000FF0000FF0000B0
:101640000000FF0000FF00000000FF0000FF00009E
:101650000000FF0000FF000000FFFFFFFF00000090
:10166000000000000000000000000000000000007A
:1016700000FFFFFFFFFF000000FF00000000000070
:1016800000FFFFFF0000000000FF0000000000005E
:1016900000FF00000000000000FFFFFFFFFF000050
:1016A000000000000000000000000000000000003A
:1016B00000FFFFFFFFFF000000FF00000000000030
:1016C00000FF00000000000000FFFFFF000000001E
:1016D00000FF00000000000000FF0000000000000C
:1016E00000000000000000000000000000000000FA
:1016F0000000FFFFFF00000000FF000000FF0000EF
:1017000000FF00000000000000FF00FFFFFF0000DE
:1017100000FF000000FF00000000FFFFFF000000CE
:1017200000000000000000000000000000000000B9
:1017300000FF000000FF000000FF000000FF0000AD
:1017400000FFFFFFFFFF000000FF000000FF0000A0
:1017500000FF000000FF000000FF000000FF00008D
:101760000000000000000000000000000000000079
:101770000000FFFFFF000000000000FF000000006D
:10178000000000FF00000000000000FF000000005B
:10179000000000FF000000000000FFFFFF0000004D
:1017A0000000000000000000000000000000000039
:1017B000000000FFFFFF00000000000000FF00002D
:1017C0000000000000FF00000000000000FF00001B
:1017D00000FF000000FF00000000FFFFFF0000000E
:1017E00000000000000000000000000000000000F9
:1017F00000FF000000FF000000FF0000FF000000ED
:1018000000FF00FF0000000000FFFFFF00000000DD
:1018100000FF0000FF00000000FF000000FF0000CC
:1018200000000000000000000000000000000000B8
:1018300000FF00000000000000FF000000000000AA
:1018400000FF00000000000000FF0000000000009A
:1018500000FF00000000000000FFFFFFFFFF00008E
:101860000000000000000000000000000000000078
:1018700000FFFF00FFFF000000FF00FF00FF00006F
:1018800000FF00FF00FF000000FF000000FF00005D
:1018900000FF000000FF000000FF000000FF00004C
:1018A0000000000000000000000000000000000038
:1018B00000FFFF0000FF000000FF00FF00FF00002E
:1018C00000FF00FF00FF000000FF0000FFFF00001E
:1018D00000FF0000FFFF000000FF000000FF00000D
:1018E00000000000000000000000000000000000F8
:1018F0000000FFFFFF00000000FF000000FF0000ED
:1019000000FF000000FF000000FF000000FF0000DB
:1019100000FF000000FF00000000FFFFFF000000CC
:1019200000000000000000000000000000000000B7
:1019300000FFFFFFFF00000000FF000000FF0000AD
:1019400000FF000000FF000000FFFFFFFF0000009D
:1019500000FF00000000000000FF00000000000089
:101960000000000000000000000000000000000077
:101970000000FFFFFF00000000FF000000FF00006C
:1019800000FF000000FF000000FF00FF00FF00005C
:1019900000FF0000FF0000000000FFFF00FF00004C
:1019A0000000000000000000000000000000000037
:1019B00000FFFFFFFF00000000FF000000FF00002D
:1019C00000FF000000FF000000FFFFFFFF0000001D
:1019D00000FF00FF0000000000FF0000FFFF00000C
:1019E00000000000000000000000000000000000F7
:1019F0000000FFFFFF00000000FF000000000000EB
:101A00000000FFFFFF0000000000000000FF0000DA
:101A10000000000000FF000000FFFFFFFF000000CB
:101A200000000000000000000000000000000000B6
:101A300000FFFFFFFFFF0000000000FF00000000AC
:101A4000000000FF00000000000000FF0000000098
:101A5000000000FF00000000000000FF0000000088
:101A60000000000000000000000000000000000076
:101A700000FF000000FF000000FF000000FF00006A
:101A800000FF000000FF000000FF000000FF00005A
:101A900000FF000000FF00000000FFFFFFFF00004C
:101AA0000000000000000000000000000000000036
:101AB00000FF000000FF000000FF000000FF00002A
:101AC00000FF000000FF00000000FF00FF0000001A
:101AD0000000FF00FF000000000000FF0000000009
:101AE00000000000000000000000000000000000F6
:101AF00000FF000000FF000000FF000000FF0000EA
:101B000000FF00FF00FF000000FF00FF00FF0000DB
:101B100000FF00FF00FF000000FFFF00FFFF0000CC
:101B200000000000000000000000000000000000B5
:101B300000FF000000FF00000000FF00FF000000A9
:101B4000000000FF000000000000FF00FF00000098
:101B500000FF000000FF000000FF000000FF000089
:101B60000000000000000000000000000000000075
:101B700000FF000000FF000000FF000000FF000069
:101B80000000FFFFFF000000000000FF0000000059
:101B9000000000FF00000000000000FF0000000047
:101BA0000000000000000000000000000000000035
:101BB00000FFFFFFFFFF000000000000FF0000002B
:101BC000000000FF000000000000FF000000000017
:101BD00000FF00000000000000FFFFFFFFFF00000B
:101BE00000000000000000000000000000000000F5
:101BF00000000000000000000000000000000000E5
:101C00000000FFFFFFFF000000FF000000FF0000DA
:101C100000FF0000FFFF00000000FFFF00FF0000CA
:101C200000000000000000000000000000000000B4
:101C300000FF00000000000000FF000000000000A6
:101C400000FFFFFFFF00000000FF000000FF00009A
:101C500000FF000000FF000000FFFFFFFF0000008A
:101C60000000000000000000000000000000000074
:101C70000000000000000000000000000000000064
:101C80000000FFFFFFFF000000FF00000000000059
:101C900000FF0000000000000000FFFFFFFF000049
:101CA0000000000000000000000000000000000034
:101CB0000000000000FF00000000000000FF000026
:101CC0000000FFFFFFFF000000FF000000FF00001A
:101CD00000FF000000FF00000000FFFFFFFF00000A
:101CE00000000000000000000000000000000000F4
:101CF00000000000000000000000000000000000E4
:101D00000000FFFFFF00000000FF0000FFFF0000D9
:101D100000FFFFFF000000000000FFFFFFFF0000CA
:101D200000000000000000000000000000000000B3
:101D3000000000FFFF0000000000FF0000FF0000A7
:101D40000000FF00000000000000FF000000000095
:101D500000FFFFFF000000000000FF000000000087
:101D60000000FF00000000000000FF000000000075
:101D70000000000000000000000000000000000063
:101D80000000FFFFFFFF000000FF000000FF000059
:101D900000FF000000FF00000000FFFFFFFF000049
:101DA0000000000000FF00000000FFFFFF00000037
:101DB00000FF00000000000000FF00000000000025
:101DC00000FFFFFFFF00000000FF000000FF000019
:101DD00000FF000000FF000000FF000000FF000007
:101DE00000000000000000000000000000000000F3
:101DF000000000FF000000000000000000000000E4
:101E00000000FFFF00000000000000FF00000000D5
:101E1000000000FF000000000000FFFFFF000000C6
:101E200000000000000000000000000000000000B2
:101E300000000000FF0000000000000000000000A3
:101E4000000000FFFF00000000000000FF00000095
:101E500000000000FF00000000000000FF00000084
:101E600000000000FF0000000000FFFF0000000075
:101E700000FF00000000000000FF00000000000064
:101E800000FF0000FFFF000000FF00FF0000000057
:101E900000FFFFFF0000000000FF0000FFFF000048
:101EA0000000000000000000000000000000000032
:101EB00000FFFF00000000000000FF000000000025
:101EC0000000FF00000000000000FF000000000014
:101ED0000000FF00000000000000FFFFFF00000006
:101EE00000000000000000000000000000000000F2
:101EF00000000000000000000000000000000000E2
:101F000000FFFFFFFF00000000FF00FF00FF0000D8
:101F100000FF00FF00FF000000FF00FF00FF0000C7
:101F200000000000000000000000000000000000B1
:101F300000000000000000000000000000000000A1
:101F400000FFFFFFFF00000000FF000000FF000097
:101F500000FF000000FF000000FF000000FF000085
:101F60000000000000000000000000000000000071
:101F70000000000000000000000000000000000061
:101F80000000FFFFFF00000000FF000000FF000056
:101F900000FF000000FF00000000FFFFFF00000046
:101FA0000000000000000000000000000000000031
:101FB0000000000000000000000000000000000021
:101FC00000FFFFFFFF00000000FF000000FF000017
:101FD00000FF000000FF000000FFFFFFFF00000007
:101FE00000FF00000000000000FF000000000000F3
:101FF00000000000000000000000000000000000E1
:102000000000FFFFFFFF000000FF000000FF0000D6
:1020100000FF000000FF00000000FFFFFFFF0000C6
:102020000000000000FF00000000000000FF0000B2
:1020300000000000000000000000000000000000A0
:1020400000FF00FFFFFF000000FFFF000000000096
:1020500000FF00000000000000FF00000000000082
:102060000000000000000000000000000000000070
:102070000000000000000000000000000000000060
:102080000000FFFFFFFF000000FFFFFFFF00000058
:102090000000000000FF000000FFFFFFFF00000045
:1020A0000000000000000000000000000000000030
:1020B0000000FF00000000000000FF000000000022
:1020C00000FFFFFFFF0000000000FF000000000015
:1020D0000000FF0000FF0000000000FFFF00000004
:1020E00000000000000000000000000000000000F0
:1020F00000000000000000000000000000000000E0
:1021000000FF000000FF000000FF000000FF0000D3
:1021100000FF000000FF00000000FFFFFFFF0000C5
:1021200000000000000000000000000000000000AF
:10213000000000000000000000000000000000009F
:1021400000FF000000FF000000FF000000FF000093
:102150000000FF00FF000000000000FF0000000082
:10216000000000000000000000000000000000006F
:10217000000000000000000000000000000000005F
:1021800000FF000000FF000000FF00FF00FF000054
:1021900000FF00FF00FF000000FFFF00FFFF000046
:1021A000000000000000000000000000000000002F
:1021B000000000000000000000000000000000001F
:1021C00000FFFF0000FF0000000000FFFF00000014
:1021D0000000FFFF0000000000FF0000FFFF000004
:1021E00000000000000000000000000000000000EF
:1021F00000000000000000000000000000000000DF
:1022000000FF000000FF000000FF000000FF0000D2
:1022100000FF000000FF00000000FFFFFFFF0000C4
:102220000000000000FF00000000FFFFFF000000B2
:10223000000000000000000000000000000000009E
:1022400000FFFFFFFFFF0000000000FFFF00000095
:102250000000FF000000000000FFFFFFFFFF000084
:10226000000000000000000000000000000000006E
:102270000005013B3C3D3E3F03032526272D2E2F25
:10228000353637C7202B2B20CFCFCFC7C7202B2BDE
:1022900020CFCFC7C720007700CFCFC7C76F7777D2
:1022A0006FCFCFC720202B2B20CFCFC7206F1C1F75
:1022B000136FCFC7C7202B2B20CFCFC7C7C713C7DC
:1022C00013CFCFCF202B2B20CFCFCFCFCF202B2B77
:1022D00020CFCFCFCF20007700CFCFCFCF6F777772
:1022E0006FCFCFCF20202B2B206FCFCF6F131F1C92
:1022F0001320CFCFCF202B2B20CFCFCF13CFCFCFBB
:10230000CF13CFCF202B2B20CFCFCFCFCF202B2B36
:1023100020CFCFCFCF20007700CFCFCFCF6F777731
:102320006FCFCFCFCF206F2B20CFCFCFCF20201399
:102330001FCFCFCFCF202B2B20CFCFCF13CFCFCFBF
:10234000CF13CFCFCFADFFFFCFCFCFCFADFFFFFFAD
:10235000FFCFCFCFADFF00FF00CFCFCFCFCFFF005C
:10236000FFCFCFCFADFFFFFFFFADCFCFAD5BFFFF07
:102370005BADCFCFCFADFFFFCFCFCFCFCFADCFAD09
:10238000CFCFCFCFCFADFFFFCFCFCFCFADFFFFFFB1
:10239000FFCFCFCFADFF00FF00CFCFCFCFCFFF001C
:1023A000FFCFCFCFADFFFFFFFFFFCFCFFF5BFFFF23
:1023B0005BADADCFCFADFFFF5BCFCFCFADCFCFCF3D
:1023C000CFADCFCFCFADFFFFCFCFCFCFADFFFFFF93
:1023D000FFCFCFCFADFF00FF00CFCFCFCFCFFF00DC
:1023E000FFCFCFCFADADFFFFFFADFFCFADFFFFFF05
:1023F000FF5BADCFCF5B5BFFFFCFCFCFADCFCFCFFD
:10240000CFADCFCFCFCFCFCFCFCFCFCFCFCFCFCFFE
:10241000CFCFCFCFCFCFCFCFCFCFCFCFCFCFCFCFCC
:10242000CFCFCFCFCFCFCFCFCFCFCFCFCFCFCFCFBC
:10243000CFCFCFCFCFCFCFCFCFCFCFCFCFCFCFCFAC
:10244000CFCFCFC7C7C7C75656CF00C7C7C7565687
:10245000565600C7C7C7563F563F00C7C7C7565650
:102460005656CFC7C7565656565656C756C75656CF
:1024700056CF56C7C7C7565656CFCFC7C756CFCF6A
:1024800056CFCFCFCFCFCFCFCFCFCFCFCFCFCFCFD5
:10249000CFCFCFCFCFCFCFCFFF6FCFCFCFCFCFFF4C
:1024A000CFCFCFFFFFFFADFFCFCFCFCFFFADFFFF30
:1024B000CFCFCFCFCFFFFFCFCFCFCFCFCFCF6FCF2C
:1024C000CFCFCFCFCFFFCFFFCFCFCFCFFF00FF00FA
:1024D000FFCFCFFF005B00005BFFCFFF00000000DD
:1024E0005BFFCFCFFF00005BFFCFCFCFCFFF5BFF06
:1024F000CFCFCFCFCFCFFFCFCFCFCFCFCFCFCFCFBC
:10250000CFCFCFCFCFCFCFCFCFCFCFCFCFCFCFCFDB
:10251000CFCFCF37CFCF3737CFCFCFCFCF3727376B
:10252000CFCF37CF3727372737CFCF373737273773
:102530002737CF0000000000000000CF000000009F
:1025400000CFCFCFCFFFCFFFCFCFCFCFFF06FF063C
:10255000FFCFCFFF0647060604FFCFFF060606069D
:1025600004FFCFCFFF060604FFCFCFCFCFFF04FF7E
:10257000CFCFCFCFCFCFFFCFCFCFCFCFCFCFCFCF3B
:10258000CFCFCFCFCFCFCFCFCFCFCFCFCFF5F5FFDF
:10259000F5CFCFCFCFCFF5F5CFCFCFCFCFF5ADFFA5
:1025A000F5CFCFCFF5040D060DF5CFCFF504040D13
:1025B00004F5CFCFCFF5F5F5F5CFCFCFCFCFCFCF38
:1025C000CFCFCFCFCF1D1D1D1DCFCFCFCF1D3737C5
:1025D000011DCFCFCF372737371D1DCF37273727DF
:1025E000371D0A1D1D1D1D1D1D1D1D1D0A0A6E0AFC
:1025F0000A1DC71D0A0A0A0A0A1DC71D1D1D1D1D29
:102600001DC7C7CFCFCFCFCFCFCFCFCF1D1D1D1D64
:102610001DCFCF1D1D0A0A0A0A1DCF1D0A0A0A0A6C
:102620000A1D1D1D1D1D1D1D1D1D1D1D0A0A6E0AD5
:102630000A1DCF1D0A0A0A0A0A1DCF1D1D1D1D1DD8
:102640001DCFCFCFCFCF2737CFCFCFCFCF27C7C744
:1026500037CFCFCFCF27C7C727CFCFCFCFCF2727D2
:10266000CFCFCFCFCFCFCF27CFCFCFCFCFCF272772
:10267000CFCFCFCFCFCFCF27CFCFCFCFCF2727270A
:10268000CFCFCF0011241FBECFEFD0E1DEBFCDBF33
:1026900014BE88E10FB6F894809360001092600039
:1026A0000FBE11E0A0E0B1E0ECE2F1E602C005905F
:1026B0000D92A630B107D9F71BE0A0E2B1E001C04E
:1026C0001D92AD38B107E1F70E942518811102C0B3
:1026D0000E940318F894E1E4F8E080E881932AE08E
:1026E000ED34F207D9F781E498E090934E0A809395
:1026F0004D0A10924F0A81E08093660A8093670A20
:102700008093650A1092520A1092580A10925E0A3B
:102710001092640A10920E081092100892E19093A1
:102720000F0890EE909318089093160894E19093F8
:1027300017089093150810921C0810921B0810920D
:10274000200810921F088093510A0E94F82280E707
:1027500090E0FC0125913491F901FF273083029626
:1027600020E08E399207A9F778940E94F7220E9400
:10277000942F0C9494300C9400000CE00A95F1F71F
:10278000ECEDF7E0C0E2D1E02091890B0027A081B9
:10279000B181AC0FBD1F1C911283021708F4102FDA
:1027A0001C93339603950C3090F301E316E01A95D1
:1027B000F1F70A95D9F720900C0830900D08009198
:1027C000080810910908680138018CE1C0E2D1E0E5
:1027D0004E01002430910B08303009F0C4EA09F0B2
:1027E000D4E009F0832F09F0610100EEA02E6627E6
:1027F00078E07ED236E23A95F1F700000E942F147D
:102800003FE03A95F1F700000000AA94A9F0639523
:10281000C895683031F033E03A95F1F700000000D8
:10282000E8CF662700243EE1C30FD01D8A9509F446
:10283000E40109F46301DDCF36E03A95F1F758D2AF
:1028400011240E940022E091100842E0E160E42798
:10285000E0931008E2E0E093360011240895DE01D1
:10286000679F860100501340000D111D18010CEDEB
:1028700014E0000D111D280130E41EE12D91239F6D
:10288000A1012C3008F4A201040E151EF0012C3019
:10289000F0F0059108B92D91059108B9239F059194
:1028A00008B92C300000059108B908F4A20105917F
:1028B00008B9040E151E059108B92C301A9505911A
:1028C00008B9059131F1F00108B918F700C001917C
:1028D00008B92D910191000008B9239F01910000D2
:1028E00008B92C3000C0019108B908F0A10101918C
:1028F000040E08B9151E00C0019108B92C3000C0A3
:10290000019108B901911A9521F0F00108B908F672
:10291000DECF08B90027C895000008B9089520E463
:10292000E0910808F09109088C50829FE00DF11D9C
:10293000ACEDB4E0629FA00DB11D002405900D9296
:1029400005900D9205900D9205900D9205900D92B7
:1029500005900D9205900D9205900D9205900D92A7
:1029600005900D9205900D9205900D9205900D9297
:1029700005900D9205900D9205900D9205900D9287
:1029800005900D9205900D9205900D9205900D9277
:1029900005900D9205900D9205900D9205900D9267
:1029A00005900D9205900D9205900D9205900D9257
:1029B00005900D9205900D9205900D9205900D9247
:1029C00005900D9205900D9205900D9205900D9237
:1029D00005900D9205900D9205900D9205900D9227
:1029E00005900D9205900D9205900D9205900D9217
:1029F00005900D9205900D9205900D9205900D9207
:102A000005900D9205900D9205900D9205900D92F6
:102A100005900D9205900D9205900D9205900D92E6
:102A200005900D9205900D9205900D9205900D92D6
:102A300005900D9205900D9205900D921124089528
:102A40000F931F93CF93DF9394E0899FE4EAF4E020
:102A5000E00DF11D03818281E0E48E9FD00198E0BA
:102A6000099FC0E0D8E00024C10DD01DE881F981A4
:102A7000EA0FFB1FACEDB4E090E4699FA00DB11D1F
:102A80001124DD27403051F4A20FB11D822FC22F37
:102A900000FF11C03796C0E1C21B0DC088E0821B49
:102AA00000FD04C0C82FE80FF11D05C0C8E0C20F2B
:102AB000E20FF11D3197503041F498E0939FA00D43
:102AC000B11D932F01FDF8960AC098E0931B632F68
:102AD0006A9501FF692F58E0569FE00DF11D6FEFD9
:102AE0007FEF00FF61E000FF772701FD6097112471
:102AF0003EEF58E0591B48E0481B249123132C93C8
:102B00001196E60FF71F4A95C1F7EC0FFD1FA80FAE
:102B1000B11D5A9581F7DF91CF911F910F910895C3
:102B20000F921F92EF93FF93EFB7EF93E091840022
:102B3000E251F1E0EF1700F0F395FA30D8F30C947E
:102B4000A115E0910F08EA95E0930F08F0910E08A7
:102B5000F0FD57C0EC3098F0F3E0F0938900FDE809
:102B6000F0938800E0FB289826F4E1E00E943B17F0
:102B7000B8C0E5E1EA95F1F70000289AB2C0E63066
:102B800038F100C000C02898E0FBE4E016F40E9491
:102B90003B17E4E0E0933600E6E0E0936F00A1C06D
:102BA000EF93EFB7EF93E0918400ED55E13000F043
:102BB000E23000F0E33000F0E43000F0E53000F007
:102BC000289AE2E0E0936F00EF91EFBFEF91189544
:102BD00000C0E0FB289826F4E1E00E943B1705C006
:102BE000E5E1EA95F1F70000289AE0910F08E0305E
:102BF00009F077C0EDEFE0930F08E1E0E0930E08F5
:102C000070C0E7E0E0938900EBE1E093880000C04A
:102C10002898E2E000C00E943B17FDEF00901508E5
:102C2000F019E0910F08EF17E0F4FDEF00901508A0
:102C3000F01900901608F019EF1798F0EDE1FF2752
:102C400000800F92EA95E1F70FE10A95F1F7000095
:102C500000000E94BD13E1E0FF270F900192EE31CA
:102C6000E0F3E0910F08E03009F03BC02F933F9371
:102C70004F935F936F937F938F939F93AF93BF9384
:102C800078941124EE27E0930E08E2E1E0930F0818
:102C9000F0911708F0931508F0911808F0931608B2
:102CA000E0911108F0911208E115F10509F009957C
:102CB0000E94F3170E94D2230E9483161124E091F0
:102CC0001308F0911408E115F10509F00995BF9179
:102CD000AF919F918F917F916F915F914F913F91B4
:102CE0002F91EF91EFBFFF91EF911F900F901895EB
:102CF0002898E2E000C00E943B17E0910F08EA9597
:102D0000E0930F080895E091510AE0FD0E947B19BD
:102D100000904F0A002019F4A1E4B8E002C0A7E433
:102D2000B9E021E0022600924F0A22E02093500AE7
:102D3000E091510AE0FF08952F923F924F925F92E7
:102D40006F927F928F929F92AF92BF92CF92DF92BB
:102D5000EF92FF920F931F93CF93DF932090530A2C
:102D60003090540A4090560A5090570A6090550A85
:102D70001091520A7090590A80905A0A90905B0AFA
:102D8000A0905C0AB0905D0A2091580AC0905F0A3A
:102D9000D090600AE090620AF090630A0091610AA4
:102DA00030915E0A9FEF620C431CF2014491410393
:102DB0000008C12DD02D970CA81CF50144914203A9
:102DC0000008C10DD01D0C0DED1CF701449143030B
:102DD0000008C10DD01D0024C038D0050CF0CFE78D
:102DE0000A94C038D0050CF4C0E8C058CD939A9529
:102DF00009F0D9CF4091500A4A954093500A97E084
:102E000009F0D1CF6092550A4092560A90925B0A1F
:102E1000A0925C0A0093610AE092620A6093660ADB
:102E20007093670A8093680ADF91CF911F910F9189
:102E3000FF90EF90DF90CF90BF90AF909F908F90DA
:102E40007F906F905F904F903F902F900895E0910A
:102E50004D0AF0914E0A019100000093B3000AE080
:102E6000ED34F00701E418E008F0F801E0934D0AB2
:102E7000F0934E0A08950F931F932F93EF93E091D1
:102E80004D0AF0914E0A01910093B3000AE0ED342F
:102E9000F00701E418E008F0F801E0934D0AF09320
:102EA0004E0AE8E0EA95F1F7EF912F911F910F910B
:102EB000E0FD289AE0FF01C00895F4E1FA95F1F7EA
:102EC00000C0E1FD289AE1FF00C00895809300084A
:102ED000909301080895E4E8F3E0A0E2B1E06CE02B
:102EE0006D933197E9F711240895992777272EE1FB
:102EF000629F080E191EA0E2B1E0A00DB11D445F53
:102F00004C9311240895809308089093090808951C
:102F10008091100881700895209110082E7F2093D1
:102F200010080895882329F48091190890911A08AF
:102F3000089580911D0890911E080895F999FECF7B
:102F400092BD81BD60BDF894FA9AF99A789408957B
:102F5000F999FECF92BD81BDF894F89A80B5789426
:102F6000089528E088E190E00FB6F894A895809342
:102F700060000FBE20936000FFCF129AC895C895DD
:102F8000C895C895129840E180E090E020E030E0DC
:102F90003695279596958795C895C895C895C895EF
:102FA0001398009B3068019B9068139AC895C89548
:102FB000C895C895415061F730931A0820931908B5
:102FC00090931E0880931D088091190890911A080B
:102FD0000F9731F080911D0890911E080F9711F402
:102FE0000E94B117089510921F0B009903C081E051
:102FF00080931F0B019905C080911F0B8260809305
:103000001F0B0C94BD17CF93DF93C0E0D0E0FE01FF
:10301000E256FF4F6491CE010E949E172196C03266
:10302000D105A9F7C0E2D0E06FEFCE010E949E1754
:103030006FEFCE0101960E949E17A096C11588E001
:10304000D80791F7DF91CF910895CF9380E090E07A
:103050000E94A817C82F81E090E00E94A817282F8F
:1030600030E0322F22272C0F311D81E02A353545E3
:1030700009F080E0CF910895FC014587089581E033
:1030800091E09093670A8093660A4093650A0895D9
:10309000FC0120812F7520830895FC01208120648C
:1030A00020830895FC0144870895FC014783089517
:1030B000FC01408708951F93CF93DF93EC01162FF7
:1030C000298130E0C901880F991F885F974CFC0166
:1030D00065917491F901E40FF11D47FDFA95EE0F2A
:1030E000FF1FE85FF74C85919491861B970B6091C9
:1030F000270B70E00E94BF2F6115710511F461E08C
:1031000070E086E0189FF0011124EE5AF54F2181FE
:103110003281260F371F328321837B836A83888124
:10312000886088838981840F8C83DF91CF911F9180
:1031300008954093270B0895862F642F0C94A31BAA
:10314000FC01862F9181490F4183642F0C948C1BC5
:10315000FC01862F6181641B61830C948C1B0F938F
:103160001F93CF93DF931F92CDB7DEB78C01862FCD
:10317000642F49830E948C1B4981F801418380811F
:10318000877F80830F90DF91CF911F910F910895DA
:10319000DC01ED91FC9111979F012F5F3F4F11963C
:1031A0003C932E93849187FD02C090E008958F7721
:1031B00090E0F9019695982F8827979587959F011C
:1031C0002F5F3F4FE4914E2F4F77840F911DE7FD06
:1031D000F0CF2D933C930895FF920F931F93CF93BD
:1031E000DF93082F162F86E1089FE0011124CE5DA2
:1031F000D44F8881F82EFF1CFF24FF1C1A8A1D86DD
:103200009FEF9C874B871B8A877B806288831F8206
:1032100099872983033069F4F11001C0122F81E0EE
:1032200091E09093670A8093660A81E08093650A33
:1032300008C0622F802F0E948C1B60E0802F0E94AC
:10324000A31BFF2011F01F8701C01E87E0917C0B9C
:10325000F0917D0B89E0189FE00DF11D112433964C
:1032600085919491009719F41D8A1C8A06C0FC016F
:103270002491298B01969D8B8C8BDF91CF911F918F
:103280000F91FF900895322FA82FB0E096E1899F0B
:10329000F0011124EE5DF44F908195FF02C097FD7F
:1032A00029C0311119C086E18A9FF0018B9FF00D72
:1032B0001124EE5DF44F8585811102C096FF1386BF
:1032C00086E18A9FF0018B9FF00D1124EE5DF44F93
:1032D00080818F7B8083089526E12A9FF0012B9FB8
:1032E000F00D1124EE5DF44F9F779083242F432F30
:1032F0000C94EC1808959F92AF92BF92CF92DF92F8
:10330000EF92FF920F931F93CF93DF93A3E5BAE061
:10331000C2E2DBE020E030E0F901EE5DF44F8585AC
:10332000882389F04485992787FD9095840F911D06
:103330008F3F910519F014F08FEF90E097FF02C0D6
:1033400080E090E08487188113FF23C06A817B812D
:103350008D919C911197860F971F11969C938E9338
:10336000E481F0E0EE0FFF1FE85FF74C45915491C8
:103370001616170624F48417950730F40AC0672B35
:1033800041F04817590728F011965C934E93177F28
:1033900018832A5E3F4F669616962835310509F048
:1033A000BBCF80914008882309F4C6C0C6E1809154
:1033B0007A0B90917B0B2091800B3091810B8217BF
:1033C000930709F0B4C02091830B3091840BB901AD
:1033D0006F5F7F4F7093840B6093830BF90144916F
:1033E0004F3F69F5A9014E5F5F4F5093840B4093A7
:1033F000830BFB0164916F3219F41092400897C05F
:10340000663009F087C0C90104969093840B8093BD
:10341000830BF90133962491233529F49093860B7D
:103420008093850B77C0253409F074C08091850B9B
:103430009091860B9093840B8093830B6BC047FD18
:1034400040937E0B90917E0B892F8F7047FF08C0B1
:103450002E5F3F4F3093840B2093830BFB014491ED
:10346000907F903BE9F0903C09F44EC0903909F010
:1034700051C0E091830BF091840B9F012F5F3F4F70
:103480003093840B2093830B2491220FC89FD0018B
:103490001124AE5DB44F1E966C910E9443193AC040
:1034A000E091830BF091840B9F012F5F3F4F30938E
:1034B000840B2093830B9491473041F4C89FF00113
:1034C0001124EE5DF44F990F928724C04B3041F4E4
:1034D000C89FF0011124EE5DF44F990F91871AC037
:1034E0004C3541F4C89FF0011124EE5DF44F990F63
:1034F000978310C0443671F4C89FF0011124EE5D2B
:10350000F44F990F908706C0C89FF0011124EE5D1B
:10351000F44F468783E89BE00E94C8189093810B84
:103520008093800B10927B0B10927A0B40CF019608
:1035300090937B0B80937A0B92E5C92E9AE0D92E5B
:10354000C2E2DBE0E12CF12C912CAA24AA94B12C4C
:10355000888186FD4DC08C899D8987010E5D144F41
:10356000892B09F43EC0D80152969C9152975196EE
:103570008C91981708F435C0F801928981899813C5
:1035800030C0EC89FD89AF014F5F5F4F5D8B4C8B85
:1035900024912F3F31F488818F7788831D8A1C8A7C
:1035A00020C0CF0102969D8B8C8BFA014491E22FB3
:1035B000F0E0EE0FFF1FE254FF4F25913491692D8B
:1035C000CE01F9010995EC89FD89CF0101969D8B0A
:1035D0008C8BE491D8015196EC93519752961C92A2
:1035E000CBCFD80152968C9152978F5F52968C9385
:1035F000888185FF74C0D701AE5DB44F53969C910E
:1036000053979F3F21F09F5F53969C93539787FD5D
:1036100004C01A968C911A9701C08FEF1B962C91BB
:103620001B9716966C911697222309F44FC01C968F
:103630005C911C97552309F449C0882309F446C0BE
:1036400040917F0B442309F441C0289F900111242D
:103650003395232F3327529FC001539F900D112480
:103660009395892F992719965C911997589F9001E6
:10367000599F300D11243395232F3327429FC001CA
:10368000439F900D11249395892F992717962C917C
:1036900017972223E9F0E62FF0E0E050F64CE49192
:1036A000E0582E9FF0011124F395EF2FFF27A5017D
:1036B0004E1B5F0B489F9001499F300D589F300D66
:1036C0001124C9019395892F992702C080E090E0C9
:1036D00018962C911897260F16962C9302C080E00E
:1036E00090E0F60180839394F6E1EF0EF11C66966C
:1036F00086E0C80ED11CA8E5EA16F10409F028CF2F
:10370000DF91CF911F910F91FF90EF90DF90CF90BD
:10371000BF90AF909F90089599277727833008F046
:103720000895E8E0F8E3660F771FE60FF71FA5910D
:10373000B491E2E5FAE026E0289FE00DF11DA183B7
:10374000B2831124089599277727E2E5FAE026E06D
:10375000289FE00DF11D6E3F31F46091650A6E7F88
:103760006093650A0BC06F3F31F46091650A6E6F1C
:103770006093650A03C07AE3760F75831124089578
:103780000000000000000000000000000000000039
:103790000000000000000000000000000000000029
:1037A0000000000000000000000000000000000019
:1037B0000000000000000000000000000000000009
:1037C00000000000000000000000000000000000F9
:1037D00000000000000000000000000000000000E9
:1037E00000000000000000000000000000000000D9
:1037F00000000000000000000000000000000000C9
:1038000080E08093510A08952200240026002800B9
:103810002B002D0030003300360039003D00400001
:10382000440048004C00510056005B0060006600F8
:103830006C00730079008100880090009900A2005C
:10384000AC00B600C100CC00D800E500F3000101D7
:10385000100121013201440157016C0181019801DD
:10386000B001CA01E501020221024102640288029C
:10387000AE02D7020303300361039403CB030504B4
:1038800042048304C70410055D05AF050506610603
:10389000C206290796070908830805098E09200A28
:1038A000BA0A5D0B0A0CC10C840D510E2B0F1210BD
:1038B00007110A121D1340147415BA16141883192F
:1038C000071BA31C571E24200E22142439267F28F0
:1038D000E82A752D293006330F364539AD3C49406D
:1038E0001B442848734CFE50CF55EA5A51600C6671
:1038F0001D6C8B725A79928037885090E598FDA1A3
:103900009FABD3B5A3C00000000000000000000082
:1039100000000000000000000000000000000000A7
:103920000000000000000000000000000000000097
:103930000000000000000000000000000000000087
:103940000000000000000000000000000000000077
:103950000000000000000000000000000000000067
:103960000000000000000000000000000000000057
:103970000000000000000000000000000000000047
:103980000000000000000000000000000000000037
:103990000000000000000000000000000000000027
:1039A0000000000000000000000000000000000017
:1039B0000000000000000000000000000000000007
:1039C00000000000000000000000000000000000F7
:1039D00000000000000000000000000000000000E7
:1039E00000000000000000000000000000000000D7
:1039F00000000000000000000000000000000000C7
:103A0000000306090C101316191C1F2225282B2E43
:103A1000313336393C3F414447494C4E5153555858
:103A20005A5C5E60626466686A6B6D6F7071737415
:103A3000757678797A7A7B7C7D7D7E7E7E7F7F7FCE
:103A40007F7F7F7F7E7E7E7D7D7C7B7A7A797876B4
:103A500075747371706F6D6B6A68666462605E5CCA
:103A60005A585553514E4C494744413F3C393633DF
:103A7000312E2B2825221F1C191613100C090603A2
:103A800000FDFAF7F4F0EDEAE7E4E1DEDBD8D5D2A9
:103A9000CFCDCAC7C4C1BFBCB9B7B4B2AFADABA874
:103AA000A6A4A2A09E9C9A9896959391908F8D8C97
:103AB0008B8A8887868685848383828282818181BE
:103AC0008181818182828283838485868687888AB8
:103AD0008B8C8D8F9091939596989A9C9EA0A2A482
:103AE000A6A8ABADAFB2B4B7B9BCBFC1C4C7CACD4D
:103AF000CFD2D5D8DBDEE1E4E7EAEDF0F4F7FAFD6A
:103B0000808182838485868788898A8B8C8D8E8F3D
:103B1000909192939495969798999A9B9C9D9E9F2D
:103B2000A0A1A2A3A4A5A6A7A8A9AAABACADAEAF1D
:103B3000B0B1B2B3B4B5B6B7B8B9BABBBCBDBEBF0D
:103B4000C0C1C2C3C4C5C6C7C8C9CACBCCCDCECFFD
:103B5000D0D1D2D3D4D5D6D7D8D9DADBDCDDDEDFED
:103B6000E0E1E2E3E4E5E6E7E8E9EAEBECEDEEEFDD
:103B7000F0F1F2F3F4F5F6F7F8F9FAFBFCFDFEFFCD
:103B8000000102030405060708090A0B0C0D0E0FBD
:103B9000101112131415161718191A1B1C1D1E1FAD
:103BA000202122232425262728292A2B2C2D2E2F9D
:103BB000303132333435363738393A3B3C3D3E3F8D
:103BC000404142434445464748494A4B4C4D4E4F7D
:103BD000505152535455565758595A5B5C5D5E5F6D
:103BE000606162636465666768696A6B6C6D6E6F5D
:103BF000707172737475767778797A7B7C7D7E7F4D
:103C000000020406080A0C0E10121416181A1C1EC4
:103C100020222426282A2C2E30323436383A3C3EB4
:103C200040424446484A4C4E50525456585A5C5EA4
:103C300060626466686A6C6E70727476787A7C7E94
:103C40007F7D7B79777573716F6D6B696765636174
:103C50005F5D5B59575553514F4D4B494745434164
:103C60003F3D3B39373533312F2D2B292725232154
:103C70001F1D1B19171513110F0D0B090705030144
:103C8000FFFDFBF9F7F5F3F1EFEDEBE9E7E5E3E134
:103C9000DFDDDBD9D7D5D3D1CFCDCBC9C7C5C3C124
:103CA000BFBDBBB9B7B5B3B1AFADABA9A7A5A3A114
:103CB0009F9D9B99979593918F8D8B898785838104
:103CC00080828486888A8C8E90929496989A9C9E04
:103CD000A0A2A4A6A8AAACAEB0B2B4B6B8BABCBEF4
:103CE000C0C2C4C6C8CACCCED0D2D4D6D8DADCDEE4
:103CF000E0E2E4E6E8EAECEEF0F2F4F6F8FAFCFED4
:103D00007F7F7F7F7F7F7F7F7F7F7F7F7F7F7F7FC3
:103D10007F7F7F7F7F7F7F7F7F7F7F7F7F7F7F7FB3
:103D20007F7F7F7F7F7F7F7F7F7F7F7F7F7F7F7FA3
:103D30007F7F7F7F7F7F7F7F7F7F7F7F7F7F7F7F93
:104000000309131E28313A40464C5054585B5E61F8
:10401000636567696B6C6E6F7071727374757677B8
:10402000777879797A7A7B7B7C7C7C7D7D7D7E7EDE
:104030007E7E7F7F7F7F7F7F7F7F7F7F7F7F7F7F92
:104040007F7F7F7F7F7F7F7F7F7F7F7F7F7E7E7E83
:104050007E7D7D7D7C7C7C7B7B7A7A7979787777B5
:10406000767574737271706F6E6C6B69676563617E
:104070005E5B5854504C46403A31281E13090300E9
:10408000C6CCD5DBDFE3E5E7E9EAEBECEDEEEFEFFD
:10409000F0F0F0F1F1F1F1F2F2F2F2F2F2F2F2F309
:1040A000F3F3F3F3F3F3F3F3F3F3F3F3F3F3F3F3E0
:1040B000F3F3F3F3F3F3F3F3F3F3F3F3F3F3F3F3D0
:1040C000F3F3F3F3F3F3F3F3F3F3F3F3F3F3F3F3C0
:1040D000F3F3F3F3F3F3F3F3F3F3F3F3F3F3F3F3B0
:1040E000F2F2F2F2F2F2F2F2F1F1F1F1F0F0F0EFBD
:1040F000EFEEEDECEBEAE9E7E5E3DFDBD5CCC6007C
:1041000000283D42302D2C2B2C2D2E2F30323335D4
:1041100037393B3D3F414345484A4C4E5053555734
:10412000595B5D5F61636567696B6C6E7071737419
:10413000757778797A7B7C7D7D7E7E7F7F7F7F7FC0
:104140007F7F7F7F7F7F7E7E7D7D7C7B7A797877A6
:1041500075747371706E6C6B69676563615F5D5BCD
:1041600059575553504E4C4A484543413F3D3B39C2
:1041700037353332302F2E2D2C2B2C2D30423D282D
:1041800000E9E5FED4D7D7D7D6D4D2D0CECCCAC892
:10419000C6C3C1BFBDBAB8B6B4B1AFADABA9A7A5D0
:1041A000A3A19F9E9C9A999795949391908F8D8CA3
:1041B0008B8A8988888786858584848483838383A2
:1041C0008383838383848484858586878888898A9A
:1041D0008B8C8D8F909193949597999A9C9E9FA18B
:1041E000A3A5A7A9ABADAFB1B4B6B8BABDBFC1C3A3
:1041F000C6C8CACCCED0D2D4D6D7D7D7D4FEE5E95C
:10420000F9F8F9F5EBE1DDDEE0E2E4E5E6E5E4E22C
:10421000DED9D2CAC1B7ACA299918A868381808047
:104220008182838586888A8C8D8F909293959697CC
:1042300098999A9B9B9C9D9D9D9E9E9E9F9F9F9FB4
:104240009F9F9F9E9E9E9D9D9D9C9B9B9A999897AC
:1042500096959392908F8D8C8A88868583828180B3
:10426000808183868A9199A2ACB7C1CAD2D9DEE295
:10427000E4E5E6E5E4E2E0DEDDE1EBF5F9F8F9009E
:104280000708070B151F2322201E1C1B1A1B1C1EB0
:1042900022272E363F49545E676F767A7E7F7F7F76
:1042A0007F7E7D7B7A7876747371706E6D6B6A69D0
:1042B00068676665656464636362626261616161C7
:1042C00061616162626263636364656566676869B0
:1042D0006A6B6D6E7071737476787A7B7D7E7F7F8A
:1042E0007F7F7E7A766F675E54493F362E27221E87
:1042F0001C1B1A1B1C1E2022231F150B070807005E
:104300001F313D444E5354565A5F64696E7476793A
:104310007C7F7F7F7F7F7F7F7F7F7F7F7F7F7F7FB0
:104320007F7F7F7F7F7F7F7F7F7F7F7F7F7F7F7F9D
:104330007F7F7F7F7F7F7F7F7F7F7F7F7F7F7F7F8D
:104340007F7F7F7F7F7F7F7F7F7F7F7F7F7F7F7F7D
:104350007F7F7F7F7F7F7F7F7F7F7F7F7F7F7F7F6D
:104360007F7F7F7F7F7F7F7F7F7F7F7F7F7F7F7F5D
:104370007F7F7F7F7F7F7F7F7F7F7F7C7871684CAF
:104380002C1C120C0A0B0A05FDF3E9DFD4CAC0B7D6
:10439000AEA69E97918B868582808080808080806B
:1043A000808080808080808080808080808080800D
:1043B00080808080808080808080808080808080FD
:1043C00080808080808080808080808080808080ED
:1043D00080808080808080808080808080808080DD
:1043E00080808080808080808080808080808080CD
:1043F000808080808087919DACC4CBD4DDF2FAFAB6
:104400009091890BEEEDF7E080E0891761F0208153
:10441000DF0112970D90BC91A02DA05EBE4F2C9392
:104420008F5F3396F2CF08958093000108952F9205
:104430003F924F925F926F927F928F929F92AF9234
:10444000BF92CF92DF92EF92FF920F931F93CF9381
:10445000DF9300D000D01F92CDB7DEB71092890B4A
:1044600080910001882309F4AAC065EAE62E64E081
:10447000F62E712CF70131972081203F09F47FC07F
:10448000F7013081832F90E0322E369436943694A3
:10449000277019F4F1E0F98302C042E0498353E048
:1044A000969587955A95E1F7682E832F877019F4B2
:1044B0002224239402C042E0242EC82ED12CDC2CCE
:1044C000CC24C20ED11C00E010E092EE960D9A832F
:1044D00092EE930D9B83862D800F8E3118F0AA806B
:1044E000A00E01C0A82EEEE1AE9E50011124502E68
:1044F00044241D821C828C81830D8E3118F08B81A7
:10450000EC818E0F9501280F311DC901805E9E4FF1
:104510004C01FC0180818C30E0F06091890B6C30A3
:1045200008F5462F50E0FA01EE0FFF1FE40FF51FCC
:10453000E452F84F3183208382830E948F1480914C
:10454000890BF401808391E0980F9093890B8C3054
:1045500048F496014C815D81440D551D682F872DCF
:104560000E9420158C819D8101969D838C83998169
:10457000891708F20F5F1F4F021508F4ACCF739430
:10458000F4E0EF0EF11C4EE0741274CF0F900F9018
:104590000F900F900F90DF91CF911F910F91FF908F
:1045A000EF90DF90CF90BF90AF909F908F907F90D3
:1045B0006F905F904F903F902F900C9400220F903F
:1045C0000F900F900F900F90DF91CF911F910F914F
:1045D000FF90EF90DF90CF90BF90AF909F908F9023
:1045E0007F906F905F904F903F902F900895089527
:1045F000E4EAF4E080EF8083349694E0EC3DF90740
:10460000D1F708956F927F928F929F92AF92BF924F
:10461000CF92DF92EF92FF920F931F93CF93DF938E
:10462000682E862EFA01A49031967490CA2CD12C53
:104630008A01B12CB714D1F0C0E0D0E0780182E05B
:10464000E80EF11C9B2C980CCA1560F4F701EC0FD6
:10465000FD1F449150E0692D8C2F860D0E94751727
:104660002196F2CFB3940C0D1D1DE4CFDF91CF91B5
:104670001F910F91FF90EF90DF90CF90BF90AF9080
:104680009F908F907F906F9008957F928F929F92CE
:10469000AF92BF92CF92DF92EF92FF920F931F9350
:1046A000CF93DF93882E962E6A015901C0E0D0E0A7
:1046B000CA15DB059CF4E12CF12C7C2E790CEC1452
:1046C000FD0454F4A801672D882D8E0D0E947517E6
:1046D0008FEFE81AF80AF3CF2196EACFDF91CF9156
:1046E0001F910F91FF90EF90DF90CF90BF90AF9010
:1046F0009F908F907F9008950F931F93CF93DF9398
:104700008C01C0E0D0E0C017D10744F40E948817A4
:104710008823E1F30E948C172196F5CFDF91CF918A
:104720001F910F9108958093870B10928B0B81E05E
:1047300080938A0B662321F080918A0B8111FCCF34
:104740000895811103C08FEF87B9089591E0909388
:104750008C0B9093880B0C94932380918A0B882365
:1047600001F180918B0B811119C08091870B80938F
:104770008B0BE0918C0BF0E0E952FF4FE491E7B92D
:104780008091880B90918C0B890F80938C0B8823E0
:1047900011F08D3031F410928A0B0895815080937E
:1047A0008B0B08950E94AD230C9417221F93CF9377
:1047B000DF931F92CDB7DEB7182F69830E94433075
:1047C000698170E0611B71096F5F7F4F0E94BF2F8D
:1047D000810F0F90DF91CF911F910895372F480FD0
:1047E000290F922F48301CF06F5F485004C047FFDC
:1047F00002C06150485F283024F071E0730F98EFD9
:1048000005C027FF04C07FEF730F98E0920F842F3D
:104810000895CF93E72FC92F432F70E030E0D901DF
:104820001196A617B7070CF44EC0D90111976A1755
:104830007B070CF448C0F0E050E0DA011196AE17A7
:10484000BF070CF440C0DA011197EA17FB07DCF14F
:10485000A3E0660F771FAA95E1F7680F711D87FD2A
:104860007A95CB010496B3E0220F331FBA95E1F796
:10487000D9011496635F7F4F6A177B0720F1235F8E
:104880003F4F28173907F8F0CF0123E0880F991F11
:104890002A95E1F78C0F911DC7FD9A959C012C5F1D
:1048A0003F4F63E0440F551F6A95E1F7BA016C5F13
:1048B0007F4F0D968617970730F0435F5F4F81E07B
:1048C0004217530708F480E0CF910895EF92FF92CA
:1048D0000F931F93CF93DF931F92CDB7DEB7242F93
:1048E0004032C1F1062F10E0E82EF12C80ED840F4C
:1048F0008B3050F4205F422F50E0B801C70129836C
:104900000E947517298119C04B33A1F084ED840FE3
:10491000833010F4205E11C0413271F08FEB840FB0
:104920008A3110F4215F09C08FE9840F8A3128F49D
:10493000275F03C02BE401C02FE4422F50E0B801F1
:10494000C7010F90DF91CF911F910F91FF90EF90D2
:104950000C9475170F90DF91CF911F910F91FF90DD
:10496000EF900895FF920F931F93CF93DF93082F3B
:10497000162FEA0190E0892F800FFF24F394F90E9F
:10498000FE01E90FF11D4491442329F0612F0E949B
:1049900066249F2DF0CFDF91CF911F910F91FF9053
:1049A00008950E946B1781E791E00E94831783E8C6
:1049B00092E20E94661781E00E9414220E946B2AF4
:1049C0000E94CE2A0E9481280E94B92881E090E0AE
:1049D00090936B0A80936A0A0895CF93C0E08CE0AD
:1049E00090E00E94362F813011F0CF5FF8CF8C2FEE
:1049F00090E00E9448308CE090E00E94362F813099
:104A000031F483E090E090936B0A80936A0ACF912F
:104A1000089586E090E090936D0A80936C0A10925E
:104A20006B0A10926A0A08950F931F9300E010E03A
:104A30002CE130E04EE150E060E070E080E090E09A
:104A40000E9445231F910F910895019711F40C9432
:104A5000142508950E9481280E94B9280C94852A63
:104A60000E94932A853039F485E090E090936B0A98
:104A700080936A0A08950E94512A0E94B6288130C4
:104A800071F40E947D2B62E080E00E94D6230E9498
:104A9000362D0E94AF2C0E94AC2B0C942A25089531
:104AA000CF93C2E04AE250E06C2F81E00E9475177C
:104AB000CF5FCB31B9F7C2E04AE250E06C2F8BE117
:104AC0000E947517CF5FCB31B9F748E250E061E043
:104AD00081E00E94751748E250E061E08BE10E949E
:104AE000751748E250E065E081E00E94751748E2E2
:104AF00050E065E08BE10E94751748E250E06AE102
:104B000081E00E94751748E250E06AE18BE10E9463
:104B10007517C2E049E250E061E08C2F0E947517E2
:104B2000CF5FCB31B9F7C2E049E250E065E08C2FAE
:104B30000E947517CF5FCB31B9F7C2E049E250E070
:104B40006AE18C2F0E947517CF5FCB31B9F748E728
:104B500052E262E088E1CF910C940223CF93DF937D
:104B60004BE651E062E082E00E94B22445E651E06B
:104B700063E082E00E94B2244FE551E064E082E00D
:104B80000E94B224C7E0D9EFDC0F0E94902AD81708
:104B900088F40E948B2A8D1720F04BE250E062E0EF
:104BA00004C04CE250E06BEF6C0F8C2F0E94751725
:104BB000CF5FE9CFDF91CF910C9450250E9414254F
:104BC00048EF50E06EE080E00E94B22444EE50E0F6
:104BD0006FE085E00C94B2240E94DE258CE090E02A
:104BE0000E94362F813021F410926B0A10926A0ACB
:104BF0000895CF9360E084E00E94A123C1E049E2E0
:104C000050E062E08C2F0E94751749E250E06DE0A1
:104C10008C2F0E947517CF5FCD3189F748E250E0A5
:104C200062E080E00E94751748E250E062E08DE1AA
:104C30000E94751748E250E06DE080E00E94751711
:104C400048E250E06DE08DE10E947517C3E04AE252
:104C500050E06C2F80E00E9475174AE250E06C2F04
:104C60008DE10E947517CF5FCD3089F746E451E0A2
:104C700065E085E00E94B22442E551E062E188E00F
:104C80000E94B22445E351E069E180E00E94B22431
:104C900047E151E06AE180E00E94B22441E752E23C
:104CA00069E188E10E94022340E250E064E081E093
:104CB0000E94751740E250E064E082E00E947517A0
:104CC00041E250E064E083E00E947517C5E040E2F5
:104CD00050E06C2F81E00E94751740E250E06C2F8D
:104CE00083E00E947517CF5FC93089F740E250E03A
:104CF00069E081E00E94751740E250E069E082E0DF
:104D00000E94751743E250E069E083E00E94751746
:104D100040E250E067E085E00E94751740E250E015
:104D200067E087E00E94751740E250E068E085E0A8
:104D30000E94751740E250E068E087E00E94751716
:104D400044E250E069E085E00E94751740E250E0DF
:104D500069E086E00E94751740E250E069E087E074
:104D60000E94751741E250E067E089E00E947517E4
:104D700040E250E067E08AE00E94751741E250E0AF
:104D800067E08BE00E94751740E250E068E089E040
:104D90000E94751740E250E069E089E00E947517B3
:104DA00040E250E068E08BE00E94751740E250E07E
:104DB00069E08BE00E94751741E250E067E089E10D
:104DC0000E94751740E250E067E08AE10E94751783
:104DD00041E250E067E08BE10E94751740E250E04D
:104DE00068E089E10E94751740E250E069E089E1DE
:104DF0000E94751740E250E068E08BE10E94751751
:104E000040E250E069E08BE10E94751742E250E019
:104E100067E08DE00E94751740E250E067E08EE0A9
:104E20000E94751740E250E067E08FE00E9475171E
:104E300040E250E068E08DE00E94751740E250E0EB
:104E400068E08FE00E94751744E250E069E08DE071
:104E50000E94751740E250E069E08EE00E947517ED
:104E600040E250E069E08FE00E94751740E250E0B8
:104E70006AE08FE00E94751744E250E06BE08DE03D
:104E80000E94751740E250E06BE08EE00E947517BB
:104E900043E250E06BE08FE00E94751740E250E083
:104EA00067E081E10E94751740E250E067E082E12F
:104EB0000E94751743E250E067E083E10E94751796
:104EC00040E250E068E081E10E94751741E250E065
:104ED00068E082E10E94751740E250E069E081E1FC
:104EE0000E94751740E250E069E082E10E94751768
:104EF00043E250E069E083E10E94751742E250E02E
:104F000067E085E10E94751740E250E067E086E1C6
:104F10000E94751741E250E067E087E10E94751733
:104F200040E250E068E085E10E94751740E250E001
:104F300068E087E10E94751744E250E069E085E18E
:104F40000E94751740E250E069E086E10E94751703
:104F500043E250E069E087E1CF910C94751781300E
:104F6000910519F0039719F008950C94F9250E9402
:104F70007D2B62E080E00E94D6230E94362D0E94A5
:104F8000AF2C0E94AC2B0E94AE250E9481280C946D
:104F9000B92880916C0A90916D0A20916A0A30912B
:104FA0006B0A2817390781F00E94252580916A0A2B
:104FB00090916B0A0E94AF2780916A0A90916B0AC8
:104FC00090936D0A80936C0A80916C0A90916D0A9F
:104FD0008130910549F030F08330910539F0059723
:104FE00039F008950C94D1240C94ED240C943025C0
:104FF0000C94EC251F93CF93DF9381E00E94DC2B70
:10500000EB0111E0160F6D2F812F0E94EC2B8130E8
:1050100041F01FEF1C0F6D2F812F0E94EC2B813070
:1050200011F4612F13C011E01D0F612F8C2F0E940E
:10503000EC2B813019F46C2F712F0CC0D1506D2FD7
:105040008C2F0E94EC2B813019F46C2F7D2F02C025
:1050500060E070E080E090E0DF91CF911F910895D3
:105060000E94B12A28E0629F800D1124885E8093FF
:10507000A40488E0789F900D1124985C9093A50477
:105080000E94A62A843019F41092A60408950E9462
:10509000A62A823019F481E08093A7040E94A62AF0
:1050A000833011F41092A70480916F0A91E0980F59
:1050B00090936F0A63E00E949F2F91110DC0E091C1
:1050C0007C0A81E08E0F80937C0AE370F0E0E85860
:1050D000F54F80818093A60408950E94E72A28E076
:1050E000629F800D1124885E8093A80488E0789FD9
:1050F000900D1124985C9093A90483E08093AA04F6
:1051000008951092720A1092710A1092A60480EF0C
:105110008093A4048093A5041092A7048093A8040C
:105120008093A9041092AB0410927C0A81E08093D2
:10513000780A1092790A82E080937A0A10927B0AA8
:1051400083E08093770A94E09093730A8093740AC3
:1051500095E09093750A8093760A0E94FA270E9440
:10516000BA2A0E94FA270E94DE2A08958091710AC5
:10517000089581E08093720A089585E090E00E948E
:10518000362F813049F480E00E949B2A84E00E94FF
:10519000AA2A81E00C94C72A0E94C32A813099F37D
:1051A00081E090E00E94362F813091F40E94A62A7F
:1051B000811108C00E94962A833050F40E94962ADA
:1051C0008F5F04C080E00E94AA2A81E00E949B2A8F
:1051D00083E090E00E94362F813091F40E94A62A4D
:1051E000823041F40E94962A833050F40E94962A1D
:1051F0008F5F04C082E00E94AA2A81E00E949B2A5D
:1052000084E090E00E94362F813091F40E94A62A1B
:10521000833041F40E94962A833050F40E94962AEB
:105220008F5F04C083E00E94AA2A81E00E949B2A2B
:1052300082E090E00E94362F813091F40E94A62AED
:10524000813041F40E94962A833050F40E94962ABD
:105250008F5F04C081E00E94AA2A81E00E949B2AFD
:1052600080E090E00E94362F813051F40E94962A0F
:10527000811103C084E00C94AA2A81500C949B2ACB
:1052800008950E94C32A81110BC080916E0A91E09B
:10529000980F90936E0A833018F080E00C94C72A20
:1052A00008954F925F926F927F928F929F92AF92EA
:1052B000BF92CF92DF92EF92FF920F931F93CF9303
:1052C000DF931F92CDB7DEB70E94B12A162F472E6B
:1052D000582E692E0E94B12A962E772E882EA62E41
:1052E000B72EF82E092F80E099830E94DC2B6B01EA
:1052F000E82E0E94A62A9981833089F40E94962A7A
:1053000020E0482F612F742D852D962D0E94EE23CD
:10531000962E772E882EA62EB72EF82E092F99833B
:105320000E94A62A9981823091F40E94962A482FE1
:10533000419520E0612F742D852D962D0E94EE233E
:10534000962E772E882EA62EB72EF82E092F99830B
:105350000E94A62A9981811112C00E94962A282FA4
:10536000219540E0612F742D852D962D0E94EE230E
:10537000962E772E882EA62EB72EF82E092F9983DB
:105380000E94A62A9981813089F40E94962A282FAA
:1053900040E0612F742D852D962D0E94EE23962ED0
:1053A000772E882EA62EB72EF82E092F4E2D960179
:1053B000692D772D882D0E940924813019F480935E
:1053C000710A5DC0642D8FEF810F0E94EC2B81303C
:1053D00099F0892D90E0212F30E02150310982177A
:1053E000930751F4AA24A394A90C84E00E94AA2A4A
:1053F00080E00E949B2AF12C642D81E0810F0E94A5
:10540000EC2B813059F0A11209C01F143CF484E048
:105410000E94AA2A80E00E949B2AF12C6FEF640D63
:10542000812F0E94EC2B813099F0472D50E0242DE4
:1054300030E0215031094217530751F4BB24B39493
:10544000B70C84E00E94AA2A80E00E949B2A00E018
:1054500061E0640D812F0E94EC2B813059F0B41073
:1054600009C010163CF484E00E94AA2A80E00E9441
:105470009B2A00E0B5018F2D902F0E94BA2A0F9031
:10548000DF91CF911F910F91FF90EF90DF90CF9020
:10549000BF90AF909F908F907F906F905F904F9054
:1054A00008958091700A833081F48091720A81306E
:1054B00061F40E94BD280E9441290E9451290E9446
:1054C00030280E946D281092700A8091700A8F5FB8
:1054D0008093700A089580E380937D0A83E080932F
:1054E0007E0A10927F0A1092810A1092800A10920E
:1054F000820A84E08093830A1092840A1092850ABB
:105500001092860A1092870A0895E2E8FAE08081F4
:105510008F5F8083089580917D0A82958F700895B2
:1055200080917E0A08958091820A08958091830A6D
:1055300082958F700895E3E8FAE020E1829FC00130
:10554000112490819F70982B908308958091830AF5
:105550008F700895E3E8FAE09081907F982B908314
:1055600008956091840A7091850A8091860A9091CD
:10557000870A08956093840A7093850A8093860A47
:105580009093870A089580917D0A8F700895EDE7C2
:10559000FAE09081907F980F9083089583E0809344
:1055A000880A10928A0A1092890A10928B0A109225
:1055B0008C0A10928D0A10928E0A089560938B0ABD
:1055C00070938C0A80938D0A90938E0A089560914F
:1055D0008B0A70918C0A80918D0A90918E0A0895A1
:1055E000282F237030E0220F331FA3E0B0E0022EFB
:1055F00001C0AA0F0A94EAF7A0958695869592E1D4
:10560000899FF0011124E60FF11DED54F54F8081C3
:10561000A823022E01C0440F0A94EAF7A42BA0830A
:1056200008957F928F929F92AF92BF92CF92DF9216
:10563000EF92FF920F931F93CF93DF93D82EC62E36
:10564000481B261B14163CF081E0411101C080E08C
:10565000A82EA19402C0AA24A39412163CF081E0C3
:10566000211101C080E0982E919402C09924939456
:10567000E42FFF27E7FDF095F7FF03C0F195E195D3
:10568000F1097E2E332727FD309537FF03C0319572
:1056900021953109822E1E2FE2170CF4122FB12C06
:1056A000E12CF12CC12FDD27C7FDD09521962B2DA4
:1056B000332727FD3095C217D3078CF0402F6C2D70
:1056C0008D2D0E94F02AF70CE80C1F1514F4F11A26
:1056D000DA0C1E1514F4E11AC90CB394E8CFDF916B
:1056E000CF911F910F91FF90EF90DF90CF90BF90DF
:1056F000AF909F908F907F90089523EB3AE080E0E9
:1057000090E0F901E80FF91F1082019682319105AE
:10571000C1F72E5E3F4F8BE02F31380781F7E0EA6B
:10572000FAE01082DF0112971C92DF0111971C92A0
:1057300033968AE0EF3AF807A1F7E1E9FAE0108240
:10574000DF0112971C92DF0111971C9233968AE0B9
:10575000E03AF807A1F70895CF93DF934091B20A9A
:1057600050E06091B10A695F8091B00A8D5F0E943C
:1057700075174091AF0A50E06091AE0A695F809161
:10578000AD0A8D5F0E947517C0EADAE048814423B4
:1057900059F050E0FE0131976081695FFE01329758
:1057A00080818D5F0E94751723968AE0CF3AD807D3
:1057B00069F7DF91CF910895813039F46091B00A93
:1057C0007091B10A8091B20A08956091AD0A70910A
:1057D000AE0A8091AF0A0895883120F5623110F544
:1057E000482F437050E0440F551F23E030E0042E53
:1057F00002C0220F331F0A94E2F78695869592E144
:10580000899FF0011124E60FF11DED54F54F8081C1
:1058100090E02823392302C0369527954A95E2F770
:10582000822F089580E008951F93CF93DF93162F62
:10583000811120C0D0E0C0E06D2F8C2F0E94EC2B96
:105840008250823080F467E083E0112331F00E94BF
:10585000D6238C0F8093B00A23C00E94D6238C0FCE
:105860008093AD0A25C0CF5FC83131F7DF5FD231F9
:1058700011F771C0813021F5D1E120C0C150D9F0BC
:105880006D2F8C2F0E94EC2B82508230B8F764E091
:1058900081E0112341F00E94D623C81BC093B00AB7
:1058A000D093B10A42C00E94D623C81BC093AD0A50
:1058B000D093AE0A47C0D15009F44DC0C7E1E0CF44
:1058C0008330D1F4D7E1C1E16C2F8D2F0E94EC2BF6
:1058D0008250823060F4112329F0D093B00A66E040
:1058E00083E01EC0D093AD0A66E083E026C0C150BD
:1058F00059F7D15041F72FC0823069F5D0E029C067
:10590000833041F0C15011F16C2F8D2F0E94EC2B90
:105910008C30B1F7112369F0D093B00A64E082E0D3
:105920000E94D623C81BC093B10A84E08093B20AB8
:1059300012C0D093AD0A64E082E00E94D623C81B57
:10594000C093AE0A84E08093AF0A05C0DF5FD83110
:1059500011F0C1E1D9CFDF91CF911F910895FF924E
:105960000F931F93CF93DF9363E081E00E94D623D0
:1059700007E0C82FD0E039EFF32EF00E13E06F2DC3
:105980008DEF810F0E94EC2B823031F0833039F0A3
:10599000813041F4AE0108C04CE050E005C04DE05C
:1059A00050E002C040E050E0602F812F0E94751748
:1059B0001F5F1B3121F70F5F0931E9F6DF91CF91AE
:1059C0001F910F91FF900895FF920F931F93CF9314
:1059D000DF93182FD62FC82F41E06D2F8C2F0E94F8
:1059E000F02A0FEF0C0F6D2F802F0E94EC2B8111EE
:1059F0000CC0C02FF1CF6D2F802F0E94EC2B91E0B7
:105A0000811190E0913051F4102F41E06D2F812FE2
:105A10000E94F02A01E0010F083168F30FEF0D0F2B
:105A2000FF24F394FD0E1C17D8F0D1110BC06F2D7D
:105A30008C2F0E94EC2B811111C06F2D8C2F0E9496
:105A4000E42C0CC0602F8C2F0E94EC2B811104C021
:105A5000602F8C2F0E94E42CD13148F3CF5FE3CF2D
:105A6000DF91CF911F910F91FF9008954F925F9218
:105A70006F927F928F929F92AF92BF92CF92DF925E
:105A8000EF92FF920F931F93CF93DF93811118C171
:105A900061E00E94D623982E61E080E00E94D62328
:105AA000C82E6EE089E00E94D623182F6FE08AE0AE
:105AB0000E94D623D82EE82FF0E061E1E62EF12CEB
:105AC000C7018E1B9F0BBD2C989EB00C1124C2E108
:105AD000D0E0CE018E1B9F0B989E802C112402E0FB
:105AE0002B2D40E0682D80E00E94112B2B2D412FA3
:105AF000682D812F0E94112B4FEF410F03E0282DBD
:105B0000682D81E00E94112B2B2D412F6B2D80E001
:105B10000E94112B7D2C7694B12EB694BE0167198C
:105B20007109969E602D11246F5F8B2D0E94E42CCD
:105B300065E1611B86E00E94D623A82E60E189E022
:105B40000E94D623682EE82FF0E0EE1AFF0ACE9CC2
:105B5000800D1124E82ECE018E1B9F0BC89E502C69
:105B6000112478E1472EF42CFA1802E02E2D4F2D47
:105B7000652D8F2D0E94112B2E2D47E1652D87E17C
:105B80000E94112B03E0252D46E1652D89E18A193C
:105B90000E94112B2E2D47E16E2D8F2D0E94112B6F
:105BA0006694C619D109CC9E602D11246F5F8A2D91
:105BB0008695481A842D0E94E42C9C101AC0870CEC
:105BC0006FEF680D262F4F2D812F0E94112B01E0C2
:105BD000282D4F2D682D812F0E94112B61E0680D1B
:105BE00047E14A1903E0262F81E0810F0E94112B23
:105BF00014C1DFEFDB0DC1E0CB0D91102CC002E032
:105C000020E14D2F6D2D8D2F0E94112B03E021E1FE
:105C10004F2D61E18D2F0E94112B01E020E14C2FCF
:105C20006D2D8B2D0E94112B20E14F2D60E18B2DCE
:105C30000E94112B02E02FE04C2F6D2D8C2F0E9423
:105C4000112B03E02FE04F2D6FE08C2F0E94112BC2
:105C500061E080E0B4C011E11D1902E020E04D2FA9
:105C6000612F8D2F0E94112B03E020E04F2D60E06B
:105C70008B2D0E94112B62E16D1901E021E04B2D6B
:105C80008B2D0E94112B21E04F2D61E08B2D0E9466
:105C9000112B02E022E04C2F612F8C2F0E94112B40
:105CA00047E14A1903E022E062E082E08B0D0E94A6
:105CB000112B61E083E00E94142C60E082E0B3C00D
:105CC000813009F04AC067E182E10E94D623C82FE3
:105CD00061E18EE00E94D623D82F63E080E00E942D
:105CE000D623D82E8D2F869549E0F42EF80ED9E0D4
:105CF000D81BC6951CE01C1B02E02F2D412F6D2FD9
:105D0000812F0E94112B5CE0E52EEC0E2F2D4E2DE5
:105D10006D2F8E2D0E94112B03E02F2D4E2D6F2DF8
:105D2000812F0E94112B4BE04C0F2D2F6D2F8DE0FA
:105D30008C1B0E94112B69E08CE00E94E42C63E034
:105D400080E00E94D623C82FD816C9F361E08D2DBC
:105D50000E94142C60E08C2F66C0823009F075C060
:105D600061E080E00E94D6236BE081112DC088E0C5
:105D70000E94D6238695D9E0D80FC9E0C81B02E05F
:105D80002D2F40E06C2F80E00E94112B2D2F47E13A
:105D90006C2F87E10E94112B03E02D2F47E16D2F1F
