:100000000C9401120C947D120C947D120C947D12B0
:100010000C947D120C947D120C947D120C947D1224
:100020000C947D120C947D120C947D120C947D1214
:100030000C947D120C9452140C9492140C947D1216
:100040000C947D120C947D120C947D120C947D12F4
:100050000C947D120C947D120C947D120C947D12E4
:100060000C947D120C947D120C947D120C947D12D4
:100070008100450027FF24FF2A902B1C210C22FB26
:10008000850084008903888D81096F0244424700FE
:100090004501B083B300B10125118A4F8B035A5536
:1000A00001200101003808000000000000000000ED
:1000B00000000000000000000000000000004617E3
:1000C0004917CE17C617BF17521757175C17A61731
:1000D0005F1762176517A31700408891D2E4ADB58A
:1000E000B6BEBFFFFE202B2B20FEFEFEFEFE202B09
:1000F0002B20FEFEFEFE20007700FEFEFEFE6F7748
:10010000776FFEFEFE20202B2B20FEFEFE206F1CB4
:100110001F136FFEFEFE202B2B20FEFEFEFEFE13A5
:10012000FE13FEFEFE202B2B20FEFEFEFEFE202BED
:100130002B20FEFEFEFE20007700FEFEFEFE6F7707
:10014000776FFEFEFE20202B2B206FFEFE6F131F0D
:100150001C1320FEFEFE202B2B20FEFEFE13FEFEB7
:10016000FEFE13FEFE202B2B20FEFEFEFEFE202BAD
:100170002B20FEFEFEFE20007700FEFEFEFE6F77C7
:10018000776FFEFEFEFE206F2B20FEFEFEFE20207F
:10019000131FFEFEFEFE202B2B20FEFEFE13FEFE96
:1001A000FEFE13FEFEFEFEFEFEFEFEFEFEFEFEFE5A
:1001B000FEFEFEFEFEFEFEFEFEFEFEFEFEFEFEFE5F
:1001C000FEFEFEFEFEFEFEFEFEFEFEFEFEFEFEFE4F
:1001D000FEFEFEFEFEFEFEFEFEFEFEFEFEFEFEFE3F
:1001E000FEFEFEFEFEFEFEFE5656FE00FEFEFE5625
:1001F00056565600FEFEFE563F563F00FEFEFE5689
:10020000565656FEFEFE565656565656FE56FE5646
:100210005656FE56FEFEFE565656FEFEFEFE56FE96
:10022000FE56FEFEFEFEADFFFFFEFEFEFEADFFFF34
:10023000FFFFFEFEFEADFF00FF00FEFEFEFEFEFF26
:1002400000FFFEFEFEADFFFFFFFFADFEADFE5BFF5C
:10025000FF5BFEADFEFEADFFFFFEFEFEFEADFEFE51
:10026000FEADFEFEFEFEFEFEFEFEFEFEFEFEFEFEFF
:10027000FEFEFEFEFEFEFEFEFEFF6FFEFEFEFEFE2C
:10028000FFFEFEFEFFFFFFADFFFEFEFEFEFFADFF29
:10029000FFFEFEFEFEFEFFFFFEFEFEFEFEFEFE6F0A
:1002A000FEFEFEFEFEFEFFFEFFFEFEFEFEFF00FF68
:1002B00000FFFEFEFF005B00005BFFFEFF00000092
:1002C000005BFFFEFEFF00005BFFFEFEFEFEFF5B2D
:1002D000FFFEFEFEFEFEFEFFFEFEFEFEFEFEFEFE3C
:1002E000FEFEFEFEFEFEFEFEFEFEFEFEFEFEFEFE2E
:1002F000FEFEFEFE37FEFE3737FEFEFEFEFE372711
:1003000037FEFE37FE3727372737FEFE37373727CA
:10031000372737FE0000000000000000FE0000004C
:100320000000FEFEFEFEFFFEFFFEFEFEFEFF06FFDD
:1003300006FFFEFEFF0647060604FFFEFF06060652
:100340000604FFFEFEFF060604FFFEFEFEFEFF049F
:10035000FFFEFEFEFEFEFEFFFEFEFEFEFEFEFEFEBB
:10036000FEFEFEFEFEFEFEFEFEFEFEFEFEFEF5F5BF
:10037000FFF5FEFEFEFEFEF5F5FEFEFEFEFEF5AD11
:10038000FFF5FEFEFEF5040D060DF5FEFEF5040478
:100390000D04F5FEFEFEF5F5F5F5FEFEFEFEFEFE95
:1003A000FEFEFEFEFEFE1D1D1D1DFEFEFEFE1D3799
:1003B00037011DFEFEFE372737371D1DFE37273755
:1003C00027371D0A1D1D1D1D1D1D1D1D1D0A0A6E21
:1003D0000A0A1DFE1D0A0A0A0A0A1DFE1D1D1D1D10
:1003E0001D1DFEFEFEFEFEFEFEFEFEFEFE1D1D1D92
:1003F0001D1DFEFE1D1D0A0A0A0A1DFE1D0A0A0A0F
:100400000A0A1D1D1D1D1D1D1D1D1D1D1D0A0A6E17
:100410000A0A1DFE1D0A0A0A0A0A1DFE1D1D1D1DCF
:100420001D1DFEFEFEFEFE2737FEFEFEFEFE27FE23
:10043000FE37FEFEFEFE27FEFE27FEFEFEFEFE2728
:1004400027FEFEFEFEFEFEFE27FEFEFEFEFEFE2751
:1004500027FEFEFEFEFEFEFE27FEFEFEFEFE272718
:1004600027FEFEFE0000000000000000000000006B
:10047000000000000000000000000000000000007C
:10048000000000000000000000000000000000006C
:10049000000000000000000000000000000000005C
:1004A0000000000001010101010101010A0A0A0A1C
:1004B0000A0A0A0A01010101010101010A0A0A0AE4
:1004C0000A0A0A0A01010101010101010A0A0A0AD4
:1004D0000A0A0A0A01010101010101010A0A0A0AC4
:1004E0000A0A0A0A01010101010101010153530134
:1004F0000153530101535301015353010101010100
:100500000101010101010101010101010153530137
:1005100001535301015353010153530101010101DF
:1005200001010101530A0101530A01010A0A0101F3
:100530000A0A01010101530A0101530A01010A0AD1
:1005400001010A0A530A0101530A01010A0A0101C1
:100550000A0A01010101530A0101530A01010A0AB1
:1005600001010A0A00000065650000000065650AD7
:100570000B656500650A0B0A0B0A0B65ADAD0B0A2E
:100580000B0A0B0A0B0A0B0A0BAD0B0AADAD0B0ADB
:100590000B0A0B0A0B0A0B0A0B0A0B0A0B0A0B0AB3
:1005A0000B0A0B0A0A0A0A0A0A0A0A0A0A000000C7
:1005B00000010B0A0A000000015C0B0A0A0000019E
:1005C0000B5C0B0A0A00015C0B5C0B0A0A010B5C5A
:1005D0000B5C0B0A0A5C0B5C0B5C0B0A0A0A0A0A2E
:1005E0000A0A0A0A5C0C0C0C0C0C0C5C0C0C0C0CB3
:1005F0000C0C0C0C0C0C0C0C0C0C0C0C5C0C0C0CEB
:100600000C0C0C5C0B0B0B0B0B0B0B0B0B0A0A0AE9
:100610000A0A0A0B0B0101010101010B0B0A0A0A6C
:100620000A0A0A0B01656565656565010A5C5C5C23
:100630005C5C5C0A015C072A456E5C010A5C072A67
:10064000456E5C0A015C5C5C5C5C5C010A5CD237F8
:1006500010615C0A015CD23710615C010A5C5C5C71
:100660005C5C5C0A01016565656501010A6565659B
:100670006565650A010B656565650B010AA40B0BD1
:100680000B0BA40A010BA4A4A4A40B010A0B0B0BD3
:100690000B0B0B0A01A40B0B0B0BA4010A0AA4A45D
:1006A000A4A40A0A0000656565650000006565652B
:1006B000656565000B6565656565650B6565656503
:1006C00065656565656565656565656565656565DA
:1006D00065656565656565656565656565656565CA
:1006E00065656565656565656565656565656565BA
:1006F000656565650A6565656565650A0B656565BA
:100700006565650B0B0A656565650A0B0A0B0B0BC6
:100710000A0A0B0A0A0B0A0A0B0B0A0B000A0B0B3C
:100720000A0A0B090065656565656565656565654A
:100730006565656565656565656565650A656565C4
:10074000656565650B0A0B0A0A0B0A0A0B0B0A0B97
:100750000B0A0B0B0A0B0B0A0A0B0A0A090A0A0BF3
:100760000B0A0B0B656565656565656565656565A2
:100770006565656565656565656565656565656529
:100780006565656565656565656565656565656519
:100790006565656565656565656565656565656509
:1007A00065656565656565656565656565656565F9
:1007B00065656565656565656565656565656565E9
:1007C000656565650A0A0B0B0A0B0A0B0B0B0A0B16
:1007D0000B0A0B0B0A0A0B0A0A0B0B0A0B0B0A0B70
:1007E0000B0A0B0B65656565656565006565656587
:1007F00065656565656565656565656565656565A9
:100800006565650A0B0A0A0B0B0B0B0B0A0B0B0A2F
:100810000B0B0A0B0B0B0A0B0B0A0B0A0A0B0B0B2D
:100820000A0B0B00006565656565650065656565B6
:100830006565656565656565656565656565656568
:10084000656565650A6565656565650B0B0B0A0B76
:100850000B0A0B0A0B0A0B0A0A0B0B0B000B0A0BF9
:100860000B0B0A00090909090909090912121212D8
:1008700012121212090909090909090912121212A0
:100880001212121209090909090909091212121290
:100890001212121209090909090909091212121280
:1008A0001212121209090909090909090912120982
:1008B0000912120909121209091212090909090972
:1008C0000909090909090909090909090912120986
:1008D0000912120909121209091212090909090952
:1008E0000909090919120909191209091212090934
:1008F0001212090909091912090919120909121212
:100900000909121219120909191209091212090901
:1009100012120909090919120909191209091212F1
:1009200009091212FFFFFF0000000000FF00000095
:1009300000000000FF00000000000000FF000000B9
:1009400000000000FFFF0000FFFFFF00FF000000AD
:1009500000FF0000FF0000000000FF00FFFFFF009D
:10096000FFFFFF000000000000000000000000008A
:100970000000000000000000000000000000000077
:100980000000000000FFFF00FFFF0000FF0000006C
:100990000000FF00FF000000FFFF000000FFFF005D
:1009A000FFFFFF000000000000000000000000004A
:1009B0000000000000000000000000000000000037
:1009C00000000000FFFF000000FFFF00FF00FF002D
:1009D000FFFFFF00FFFF0000FF000000FF0000001E
:1009E00000FFFF0000000000000000000000000009
:1009F000000000000000FFFF0000000000FF0000FA
:100A00000000000000FFFF0000FFFF0000FF0000EB
:100A1000FF00000000FF0000FF0000FF00FF0000DB
:100A2000FF000000000000000000000000000000C7
:100A300000000000000000000000000000000000B6
:100A4000000000000000000000000000FF0000FFA8
:100A5000FFFFFF0000FF00FF00FF00FFFF0000FF9F
:100A600000FF00FF1919101910102319102323106B
:100A700023192310192310102310231910101910F3
:100A800019191923231010191019101923101910EE
:100A90001923232319191023191923191923231989
:100AA00010192323101910101019191019102319D7
:100AB00019101019101919231923231023102310AA
:100AC00010192319101910191910101019102310CA
:100AD00010231019101019232319191010191910A7
:100AE0001010191019232319191910101910231097
:100AF000102319101019101910232319101923236A
:100B00001919101919101923191010101910231080
:100B10001019191010191910232319231910191954
:100B2000102310230000000000000000FFFFFFFF63
:100B3000FF000000FF00000000FF0000FF000000B9
:100B400000FF0000FF00000000FF00FFFF000000AA
:100B500000FF00FFFF00000000FF00FFFFFFFFFF9E
:100B6000FF00000000000000000000000000000086
:100B70000000000000000000000000000000000075
:100B8000000000000000FF00FF0000000000FF0068
:100B9000FFFFFF000000FF00FF0000FFFFFF00005D
:100BA000FF0000FF00000000000000000000000047
:100BB000000000000000FFFF0000000000FF000038
:100BC000FF00000000FF0000FF0000FF0000FFFF2B
:100BD0000000FFFF00000000FF00FF000000FFFF1B
:100BE000000000FF00000000000000000000000006
:100BF00000000000000000000000000000000000F5
:100C000000000000FF0000FFFF0000FFFF00FF00EA
:100C100000FF00FF0000FF0000FF00FFFF0000FFDB
:100C2000FF0000FF000000000000000000000000C6
:100C3000000000000000000000FFFF0000000000B6
:100C4000FF0000FF00000000000000FFFFFF0000A9
:100C50000000FF000000FF0000FF00000000FF0098
:100C6000FFFFFFFF00202B2B20010100000A652B56
:100C70002B200A000001650077000100000A6F6563
:100C8000776F0A000020202B6520010000206F1CD8
:100C900065656F000001202B2B200100000A0A135C
:100CA0000A130A0000202B2B20010100000A202B30
:100CB0002B650A000001200077650100000A6F77AC
:100CC000656F0A00002020652B200100002065656B
:100CD0001F136F000001202B2B200100000A0A13B4
:100CE0000A130A0000202B2B20010100000A202BF0
:100CF0002B200A000001200065000100000A657732
:100D0000656F0A00002065656520010000206F65A1
:100D100065136F000001202B65200100000A0A13F3
:100D20000A130A0000202B2B65010100000A202B6A
:100D300065200A000001200065000100000A6F77AD
:100D4000656F0A00002020656520010000206F65A6
:100D50001F136F00000120652B200100000A0A13F9
:100D60000A130A0000202B2B20010100000A202B6F
:100D70002B200A0000012000770001000065656556
:100D800065650A000020202B2B20010000206F1C2D
:100D90001F136F000001202B2B200100000A0A13F3
:100DA0000A130A0000000000000000000000ADADC2
:100DB000ADADADAD00AD00201D37373700AD1D37EF
:100DC0003737373700AD1D1D37371D1D00AD1D1DD1
:100DD0001D1D1D3700AD001D1D1D373700AD000066
:100DE0001D1D37370000000000000000ADADADADA7
:100DF000ADADADAD37373737373737371D1D1D37F9
:100E0000373737371D37373737373737373737378C
:100E100037371D3737373737371D1D3737373737B0
:100E20001D1D37370000000000000000ADADADAD66
:100E3000ADAD000037371D002029AD003737370032
:100E40002020AD003737371D0020AD003737371D64
:100E50000020AD003737371D1D00AD00371D1D1DAB
:100E60001D00AD00ADADADADADADADADA3A3A3A3C4
:100E7000A3A3A3AD525252525252A3AD5252525258
:100E80005252A3AD525252525252A3AD52525252EA
:100E90005252A3AD525252525252A3AD52525252DA
:100EA0005252A3AD00000000000000005252525206
:100EB00052525252ADADADADADADADADA3A3A3A3F6
:100EC000A3A3A3A3525252525252525252525252BE
:100ED000525252525252525252525252000000003A
:100EE0000000000000525252A3AD52000052525274
:100EF000A3AD520000525252A3AD520000525252C2
:100F0000A3AD520000525252A3AD520000525252B1
:100F1000A3AD520000525252A3AD520000525252A1
:100F2000A3AD520000202B2B20010100000A202B32
:100F300065200A000001206565650100000A6F65F3
:100F400077650A00002020656565010000206F1CA0
:100F50001F136F000001202B2B200100000A0A1331
:100F60000A130A000000000000000000000000005A
:100F7000000000000000000000000000000000264B
:100F800026002F2F0000002626002F2F0000000033
:100F9000000000000000006E6E006F6F0000006E29
:100FA0006E006F6F00AD1D1D1D37373700AD001D82
:100FB0001D1D373700AD00001D1D1D1D00AD0000BB
:100FC000001D1D1D00ADB7B70000000000AD2E2EA6
:100FD000006F65FD00AD2E00136FB7FD00AD000082
:100FE0006F13B7B737371D1D1D1D1D1D1D1D1D009E
:100FF000001D1D1D1D1D00656F6F1D0000006F6F22
:101000006F6F00000000006F6F0000009100656FBF
:101010006F00FD91EB006FB7B765FDEBB72EB7B76B
:10102000B7B726261D1D1D1D1D00AD001D1D1D1D54
:101030001D00AD0000001D1D1D00AD0000000000E2
:101040000000AD0000262600B7B7AD000026260040
:101050002626AD00002613130026AD002626132FEA
:101060000000AD0065656565656565656565656517
:101070006565656565656565656565656565656520
:10108000656565650A0B0A0B0B0A0B0B0B0A0B0B4C
:101090000A0B0A0A0A0B0B0B0B0A0B0B0A0B0A0AA8
:1010A0000A0B0A0B00000000000000000000000016
:1010B0000000000000000000000000000000000030
:1010C0000000000000000000000000000000000020
:1010D00000000000000000000000000019000000F7
:1010E0000000000009091A1A1A1A09091265231AC0
:1010F000231A1A121A231A231A1A1A1A1A1A231A34
:101100001A1A1A1A101A1A1A1A1A1A101210101079
:10111000101010120909090B0B09090912120B5CB6
:101120005C0B1212000000000000000013131300FB
:10113000B7B7000013131300B7B70000000000009A
:101140000000000000000000656565000000000070
:101150006565650000000000000000000000000060
:101160000000000000AD00002F13B7B700AD000075
:101170002F136FB700AD0000136F136F00AD0000A9
:10118000006F001300AD00000000200000AD000063
:10119000202029290000ADADADADADAD00000000AF
:1011A00000000000B7B7B70065262626B7B7B7B767
:1011B00026262626B7B7651313132626656FB7B7FD
:1011C000B72626650013656565651300006565260D
:1011D00026260000ADADADADADADADAD000000005B
:1011E000000000002626132F0000AD002626132F36
:1011F0000000AD00260026650000AD0013002600AB
:101200000000AD00200000000000AD0020202020E4
:101210000000AD00ADADADADADAD00000000000013
:1012200000000000655C1D271F0000000A0B030082
:1012300037000000A4AD6E5300000000F50100006F
:1012400000000000060D040000000000FF47000041
:10125000000000000000000000000000000000008E
:101260000000000010212A000000001A59697300D4
:101270000000001919612335000000100000000073
:101280000000000800000000000000000000000056
:10129000000000000000000000000000000000004E
:1012A0000000000000FFFFFFFFFFFFFFFFAD5B5BE3
:1012B0005B5B5B5BFF5B5BFFFF5B5BFFFF5BFF5BA6
:1012C0005B5BFF5BFF5BFF5B5B5BFF5BFF5B5BFF96
:1012D000FF5B5BFFFFAD5B5B5B5B5B5B00FFFFFF8F
:1012E000FFFFFFFFFFFFFFFFFFFFFFFF52000000B8
:1012F00000000000FF5200FFFF0000FF5B5B52FF99
:1013000000FF00005B5B5BFFFF000000FF5B52FF24
:10131000FFFF00005B52000000000000FFFFFFFF26
:10132000FFFFFFFFFFFFFFFFFFFFFFFF00000000C9
:101330000000000000FF0000FF0000FFFF000000B1
:10134000FFFF00FFFF00FF00FF00FFFFFF000000A6
:10135000FF0000FF0000000000000000FFFFFFFF93
:10136000FFFFFFFFFFFFFFFFFFFFFFFF0000000089
:10137000000000000000FFFF0000000000FF000070
:10138000000000FF00FF000000FF00000000FFFF62
:10139000000000FF0000000000000000FFFFFFFF52
:1013A000FFFFFFFFFFFFFFFFFFFFFF000000000048
:1013B000000000FFFFFF0000FF0000FF000000FF33
:1013C00000FF00FFFFFF00FFFFFF00FFFFFF00FF28
:1013D00000FF00FF00000000000000FFFFFFFFFF14
:1013E000FFFFFF00050213141516171B1C1D1E1FFF
:1013F0000501393A3B3C3D03032526272D2E2F348A
:101400003536000000000000000000000000000071
:1014100000000000000000000000000000000000CC
:1014200000000000000000000000000000000000BC
:1014300000000000000000000000000000000000AC
:1014400000000000FFFFFF0000000000FFFFFF00A2
:1014500000000000FFFFFF0000000000FFFF000091
:1014600000000000FFFF000000000000000000007E
:1014700000000000FFFF000000000000000000006E
:1014800000000000FF00FF0000000000FF00FF0060
:1014900000000000FF00FF0000000000000000004E
:1014A000000000000000000000000000000000003C
:1014B000000000000000000000000000000000002C
:1014C000000000FF000000FF0000FFFFFFFFFFFF24
:1014D000FF0000FF000000FF000000FF000000FF11
:1014E000000000FF000000FF0000FFFFFFFFFFFF04
:1014F000FF0000FF000000FF0000000000000000EF
:101500000000000000FF0000000000FFFFFFFFFFE1
:10151000FF00FF0000FF0000000000FFFFFFFFFFD3
:101520000000000000FF0000FF00FFFFFFFFFFFFC3
:101530000000000000FF00000000000000000000AC
:101540000000FFFF000000000000FFFF0000FF00A0
:101550000000000000FF000000000000FF0000008D
:10156000000000FF000000000000FF0000FFFF007F
:101570000000000000FFFF0000000000000000006D
:1015800000000000FFFF0000000000FF0000FF005F
:10159000000000FFFF00FF00000000FFFFFF000051
:1015A0000000FF0000FFFF00FF00FF000000FFFF42
:1015B000000000FFFFFFFF00FF0000000000000030
:1015C000000000FFFF000000000000FFFF0000001F
:1015D00000000000FF000000000000FF000000000D
:1015E00000000000000000000000000000000000FB
:1015F00000000000000000000000000000000000EB
:10160000000000000000FFFF0000000000FF0000DD
:1016100000000000FF00000000000000FF000000CC
:1016200000000000FF0000000000000000FF0000BC
:10163000000000000000FFFF0000000000000000AC
:1016400000000000FFFF0000000000000000FF009D
:1016500000000000000000FF00000000000000FF8C
:1016600000000000000000FF000000000000FF007C
:1016700000000000FFFF000000000000000000006C
:1016800000000000000000000000000000FF00005B
:10169000000000FF00FF00FF00000000FFFFFF0050
:1016A000000000FF00FF00FF0000000000FF00003E
:1016B000000000000000000000000000000000002A
:1016C00000000000000000000000000000FF00001B
:1016D0000000000000FF0000000000FFFFFFFFFF10
:1016E0000000000000FF00000000000000FF0000FC
:1016F00000000000000000000000000000000000EA
:1017000000000000000000000000000000000000D9
:1017100000000000000000000000000000000000C9
:1017200000000000FFFF000000000000FFFF0000BD
:10173000000000FFFF0000000000000000000000AB
:101740000000000000000000000000000000000099
:101750000000000000000000000000FFFFFFFFFF8E
:101760000000000000000000000000000000000079
:101770000000000000000000000000000000000069
:101780000000000000000000000000000000000059
:101790000000000000000000000000000000000049
:1017A000000000000000000000000000FFFF00003B
:1017B00000000000FFFF000000000000000000002B
:1017C0000000000000000000FF000000000000FF1B
:1017D000000000000000FF000000000000FF00000B
:1017E00000000000FF000000000000FF00000000FB
:1017F0000000FF00000000000000000000000000EA
:1018000000000000FFFFFF00000000FF0000FFFFDE
:101810000000FFFF000000FFFF00FFFF000000FFCF
:10182000FF00FFFF000000FFFF0000FFFF0000FFC0
:1018300000000000FFFFFF000000000000000000AB
:101840000000000000FFFF0000000000FFFFFF009D
:101850000000000000FFFF000000000000FFFF008C
:101860000000000000FFFF000000000000FFFF007C
:10187000000000FFFFFFFFFFFF000000000000006E
:10188000000000FFFFFFFFFF0000FFFF000000FF60
:10189000FF0000000000FFFFFF000000FFFFFFFF50
:1018A000000000FFFFFFFF000000FFFFFF0000003F
:1018B0000000FFFFFFFFFFFFFF000000000000002F
:1018C000000000FFFFFFFFFFFF0000000000FFFF20
:1018D0000000000000FFFF0000000000FFFFFFFF0E
:1018E00000000000000000FFFF00FFFF000000FFFD
:1018F000FF0000FFFFFFFFFF0000000000000000EE
:101900000000000000FFFFFF00000000FFFFFFFFDE
:10191000000000FFFF00FFFF0000FFFF0000FFFFCF
:101920000000FFFFFFFFFFFFFF0000000000FFFFC0
:10193000000000000000FFFF0000000000000000A9
:101940000000FFFFFFFFFFFF0000FFFF000000009F
:101950000000FFFFFFFFFFFF00000000000000FF8E
:10196000FF000000000000FFFF00FFFF000000FF7D
:10197000FF0000FFFFFFFFFF00000000000000006D
:1019800000000000FFFFFFFF000000FFFF0000005D
:101990000000FFFF000000000000FFFFFFFFFFFF4F
:1019A0000000FFFF000000FFFF00FFFF000000FF3E
:1019B000FF0000FFFFFFFFFF00000000000000002D
:1019C0000000FFFFFFFFFFFFFF00FFFF000000FF21
:1019D000FF0000000000FFFF0000000000FFFF000C
:1019E00000000000FFFF000000000000FFFF0000FB
:1019F00000000000FFFF00000000000000000000E9
:101A0000000000FFFFFFFF000000FFFF000000FFDD
:101A10000000FFFFFF0000FF000000FFFFFFFF00CE
:101A20000000FF0000FFFFFFFF00FF00000000FFBD
:101A3000FF0000FFFFFFFFFF0000000000000000AC
:101A4000000000FFFFFFFFFF0000FFFF000000FF9E
:101A5000FF00FFFF000000FFFF0000FFFFFFFFFF90
:101A6000FF000000000000FFFF0000000000FFFF7B
:101A7000000000FFFFFFFF0000000000000000006A
:101A8000000000000000000000000000FFFF000058
:101A900000000000FFFF0000000000000000000048
:101AA00000000000FFFF000000000000FFFF00003A
:101AB0000000000000000000000000000000000026
:101AC000000000000000000000000000FFFF000018
:101AD00000000000FFFF0000000000000000000008
:101AE00000000000FFFF000000000000FFFF0000FA
:101AF000000000FFFF0000000000000000000000E8
:101B0000000000000000FF000000000000FF0000D7
:101B100000000000FF000000000000FF00000000C7
:101B200000000000FF0000000000000000FF0000B7
:101B3000000000000000FF000000000000000000A6
:101B40000000000000000000000000000000000095
:101B5000000000FFFFFFFFFF00000000000000008A
:101B6000000000FFFFFFFFFF00000000000000007A
:101B70000000000000000000000000000000000065
:101B800000000000FF0000000000000000FF000057
:101B9000000000000000FF0000000000000000FF47
:101BA000000000000000FF000000000000FF000037
:101BB00000000000FF000000000000000000000026
:101BC000000000FFFFFFFFFF0000FFFFFFFFFFFF20
:101BD000FF00FFFF000000FFFF0000000000FFFF0C
:101BE00000000000FFFFFF000000000000000000F8
:101BF00000000000FFFFFF000000000000000000E8
:101C000000000000FFFFFF00000000FF000000FFD9
:101C10000000FF0000FF00FF0000FF00FF00FFFFCB
:101C20000000FF0000FFFF00000000FF00000000B8
:101C300000000000FFFFFFFF0000000000000000A8
:101C400000000000FFFFFF00000000FFFF00FFFF9B
:101C50000000FFFF000000FFFF00FFFF000000FF8B
:101C6000FF00FFFFFFFFFFFFFF00FFFF000000FF7F
:101C7000FF00FFFF000000FFFF0000000000000069
:101C80000000FFFFFFFFFFFF0000FFFF000000FF5D
:101C9000FF00FFFF000000FFFF00FFFFFFFFFFFF4F
:101CA0000000FFFF000000FFFF00FFFF000000FF3B
:101CB000FF00FFFFFFFFFFFF00000000000000002B
:101CC00000000000FFFFFFFF000000FFFF0000FF1B
:101CD000FF00FFFF000000000000FFFF0000000009
:101CE0000000FFFF00000000000000FFFF0000FFF9
:101CF000FF000000FFFFFFFF0000000000000000E9
:101D00000000FFFFFFFFFF000000FFFF0000FFFFDC
:101D10000000FFFF000000FFFF00FFFF000000FFCA
:101D2000FF00FFFF000000FFFF00FFFF0000FFFFBC
:101D30000000FFFFFFFFFF000000000000000000A8
:101D40000000FFFFFFFFFFFFFF00FFFF000000009C
:101D50000000FFFF000000000000FFFFFFFFFFFF8B
:101D60000000FFFF000000000000FFFF0000000077
:101D70000000FFFFFFFFFFFFFF000000000000006A
:101D80000000FFFFFFFFFFFFFF00FFFF000000005C
:101D90000000FFFF000000000000FFFFFFFFFFFF4B
:101DA0000000FFFF000000000000FFFF0000000037
:101DB0000000FFFF00000000000000000000000025
:101DC00000000000FFFFFFFFFF0000FFFF0000001A
:101DD0000000FFFF000000000000FFFF0000FFFF09
:101DE000FF00FFFF000000FFFF0000FFFF0000FFFB
:101DF000FF000000FFFFFFFFFF00000000000000E9
:101E00000000FFFF000000FFFF00FFFF000000FFD9
:101E1000FF00FFFF000000FFFF00FFFFFFFFFFFFCD
:101E2000FF00FFFF000000FFFF00FFFF000000FFBA
:101E3000FF00FFFF000000FFFF00000000000000A7
:101E4000000000FFFFFFFFFFFF00000000FFFF009A
:101E50000000000000FFFF000000000000FFFF0086
:101E60000000000000FFFF000000000000FFFF0076
:101E7000000000FFFFFFFFFFFF0000000000000068
:101E80000000000000FFFFFFFF0000000000FFFF58
:101E9000000000000000FFFF000000000000FFFF46
:101EA000000000000000FFFF0000FF000000FFFF37
:101EB000000000FFFFFFFF00000000000000000026
:101EC0000000FFFF000000FFFF00FFFF0000FFFF1A
:101ED0000000FFFF00FFFF000000FFFFFFFF00000A
:101EE0000000FFFFFFFFFF000000FFFF00FFFFFFFC
:101EF0000000FFFF0000FFFFFF00000000000000E7
:101F0000000000FFFF000000000000FFFF000000D5
:101F1000000000FFFF000000000000FFFF000000C5
:101F2000000000FFFF000000000000FFFF000000B5
:101F3000000000FFFFFFFFFFFF00000000000000A7
:101F40000000FFFF000000FFFF00FFFFFF00FFFF9A
:101F5000FF00FFFFFFFFFFFFFF00FFFFFFFFFFFF8F
:101F6000FF00FFFF00FF00FFFF00FFFF000000FF7A
:101F7000FF00FFFF000000FFFF0000000000000066
:101F80000000FFFF000000FFFF00FFFFFF0000FF59
:101F9000FF00FFFFFFFF00FFFF00FFFFFFFFFFFF4E
:101FA000FF00FFFF00FFFFFFFF00FFFF0000FFFF3C
:101FB000FF00FFFF000000FFFF0000000000000026
:101FC000000000FFFFFFFFFF0000FFFF000000FF19
:101FD000FF00FFFF000000FFFF00FFFF000000FF09
:101FE000FF00FFFF000000FFFF00FFFF000000FFF9
:101FF000FF0000FFFFFFFFFF0000000000000000E7
:102000000000FFFFFFFFFFFF0000FFFF000000FFD9
:10201000FF00FFFF000000FFFF00FFFF000000FFC8
:10202000FF00FFFFFFFFFFFF0000FFFF00000000B9
:102030000000FFFF000000000000000000000000A2
:10204000000000FFFFFFFFFF0000FFFF000000FF98
:10205000FF00FFFF000000FFFF00FFFF000000FF88
:10206000FF00FFFF00FFFFFFFF00FFFF0000FFFF7B
:10207000000000FFFFFFFF00FF0000000000000065
:102080000000FFFFFFFFFFFF0000FFFF000000FF59
:10209000FF00FFFF000000FFFF00FFFF0000FFFF49
:1020A000FF00FFFFFFFFFF000000FFFF00FFFFFF3B
:1020B0000000FFFF0000FFFFFF0000000000000025
:1020C000000000FFFFFFFF000000FFFF0000FFFF18
:1020D0000000FFFF00000000000000FFFFFFFFFF07
:1020E00000000000000000FFFF00FFFF000000FFF5
:1020F000FF0000FFFFFFFFFF0000000000000000E6
:10210000000000FFFFFFFFFFFF00000000FFFF00D7
:102110000000000000FFFF000000000000FFFF00C3
:102120000000000000FFFF000000000000FFFF00B3
:102130000000000000FFFF000000000000000000A1
:102140000000FFFF000000FFFF00FFFF000000FF96
:10215000FF00FFFF000000FFFF00FFFF000000FF87
:10216000FF00FFFF000000FFFF00FFFF000000FF77
:10217000FF0000FFFFFFFFFF000000000000000065
:102180000000FFFF000000FFFF00FFFF000000FF56
:10219000FF00FFFF000000FFFF00FFFFFF00FFFF49
:1021A000FF0000FFFFFFFFFF00000000FFFFFF0038
:1021B0000000000000FF0000000000000000000020
:1021C0000000FFFF000000FFFF00FFFF000000FF16
:1021D000FF00FFFF00FF00FFFF00FFFFFFFFFFFF0B
:1021E000FF00FFFFFFFFFFFFFF00FFFFFF00FFFFFC
:1021F000FF00FFFF000000FFFF00000000000000E4
:102200000000FFFF000000FFFF00FFFFFF00FFFFD7
:10221000FF0000FFFFFFFFFF00000000FFFFFF00C7
:10222000000000FFFFFFFFFF0000FFFFFF00FFFFB8
:10223000FF00FFFF000000FFFF00000000000000A3
:10224000000000FFFF0000FFFF0000FFFF0000FF95
:10225000FF0000FFFF0000FFFF000000FFFFFFFF87
:102260000000000000FFFF000000000000FFFF0072
:102270000000000000FFFF00000000000000000060
:102280000000FFFFFFFFFFFFFF0000000000FFFF57
:10229000FF00000000FFFFFF00000000FFFFFF0045
:1022A000000000FFFFFF00000000FFFFFF00000034
:1022B0000000FFFFFFFFFFFFFF0000000000000025
:1022C00000000000FFFFFFFF00000000FFFF000014
:1022D00000000000FFFF000000000000FFFF000002
:1022E00000000000FFFF000000000000FFFF0000F2
:1022F00000000000FFFFFFFF0000000000000000E2
:1023000000000000FFFFFFFF000000FF00000000D2
:10231000FF00FF0000FFFF0000FFFF00FF000000C4
:1023200000FFFF00FF00000000FFFF0000FFFF00B4
:1023300000FF00FF00000000FF000000FFFFFFFFA4
:1023400000000000FFFFFFFF000000000000FFFF93
:10235000000000000000FFFF000000000000FFFF81
:10236000000000000000FFFF000000000000FFFF71
:1023700000000000FFFFFFFF000000000000000061
:1023800000000000FF000000000000FF00FF000050
:102390000000FF000000FF0000000000000000003F
:1023A000000000000000000000000000000000002D
:1023B000000000000000000000000000000000001D
:1023C000000000000000000000000000000000000D
:1023D00000000000000000000000000000000000FD
:1023E00000000000000000000000000000000000ED
:1023F0000000FFFFFFFFFFFFFF00000000000000E4
:10240000000011241FBECFEFD0E1DEBFCDBF14BE50
:1024100088E10FB6F89480936000109260000FBEC0
:1024200011E0A0E0B1E0ECEFF5E502C005900D92FF
:10243000A630B107D9F71AE0A0E2B1E001C01D92C1
:10244000A134B107E1F70E943117811102C00E9447
:102450000F17F894E1E2F7E080E8819399E0ED321C
:10246000F907D9F781E297E090932E0980932D091F
:1024700010922F0981E08093460980934709809349
:102480004509109232091092380910923E091092B3
:102490004409109202071092040792E190930307F7
:1024A00090EE90930C0790930A0794E190930B079A
:1024B000909309071092100710920F0710921407BB
:1024C00010921307809331090E94802180E090E0F0
:1024D000FC01EE0FFF1FE059FF4F25913491F901E8
:1024E000FF27308301968731910591F778940E94F8
:1024F0007F210E94D7290C94FC2A0C9400000CE048
:102500000A95F1F7ECEDF6E0C0E2D1E020913D0A4A
:102510000027A081B181AC0FBD1F1C91128302174F
:1025200008F4102F1C9333960395083090F305E3BD
:1025300016E01A95F1F70A95D9F720900007309028
:1025400001070091FC061091FD06680138018CE13D
:10255000C0E2D1E04E0100243091FF06303009F096
:10256000C4EA09F0D4E009F0832F09F0610100EE1C
:10257000A02E662778E07ED236E23A95F1F7000089
:102580000E94F1123FE03A95F1F700000000AA9492
:10259000A9F06395C895683031F033E03A95F1F7CA
:1025A00000000000E8CF662700243EE1C30FD01DE5
:1025B0008A9509F4E40109F46301DDCF36E03A9528
:1025C000F1F758D211240E948020E091040742E0E4
:1025D000E160E427E0930407E2E0E0933600112491
:1025E0000895DE01679F860100501240000D111D05
:1025F00018010CED14E0000D111D280130E41EE15E
:102600002D91239FA101283008F4A201040E151E6C
:10261000F0012830F0F0059108B92D91059108B925
:10262000239F059108B928300000059108B908F4E6
:10263000A201059108B9040E151E059108B92830AC
:102640001A95059108B9059131F1F00108B918F70B
:1026500000C0019108B92D910191000008B9239F94
:102660000191000008B9283000C0019108B908F0B4
:10267000A1010191040E08B9151E00C0019108B90D
:10268000283000C0019108B901911A9521F0F0019C
:1026900008B908F6DECF08B90027C895000008B9C8
:1026A000089520E4E091FC06F091FD068850829F99
:1026B000E00DF11DACEDB4E0629FA00DB11D002452
:1026C00005900D9205900D9205900D9205900D923A
:1026D00005900D9205900D9205900D9205900D922A
:1026E00005900D9205900D9205900D9205900D921A
:1026F00005900D9205900D9205900D9205900D920A
:1027000005900D9205900D9205900D9205900D92F9
:1027100005900D9205900D9205900D9205900D92E9
:1027200005900D9205900D9205900D9205900D92D9
:1027300005900D9205900D9205900D9205900D92C9
:1027400005900D9205900D9205900D9205900D92B9
:1027500005900D9205900D9205900D9205900D92A9
:1027600005900D9205900D9205900D9205900D9299
:1027700005900D9205900D9205900D9205900D9289
:1027800005900D9205900D9205900D9205900D9279
:1027900005900D9205900D9205900D9205900D9269
:1027A00005900D9205900D9205900D9205900D9259
:1027B00005900D9205900D9205900D9205900D9249
:1027C000112408950F931F93CF93DF9394E0899F73
:1027D000E4EAF4E0E00DF11D03818281E0E48E9FE4
:1027E000D00198E0099FC4EFD6E00024C10DD01DB0
:1027F000E881F981EA0FFB1FACEDB4E090E4699F3A
:10280000A00DB11D1124DD27403051F4A20FB11DE0
:10281000822FC22F00FF11C03796C0E1C21B0DC02E
:1028200088E0821B00FD04C0C82FE80FF11D05C021
:10283000C8E0C20FE20FF11D3197503041F498E02B
:10284000939FA00DB11D932F01FDF8960AC098E04B
:10285000931B632F6A9501FF692F58E0569FE00D87
:10286000F11D6FEF7FEF00FF61E000FF772701FDB3
:10287000609711243EEF58E0591B48E0481B249113
:1028800023132C931196E60FF71F4A95C1F7EC0F0F
:10289000FD1FA80FB11D5A9581F7DF91CF911F91B0
:1028A0000F9108950F921F92EF93FF93EFB7EF935D
:1028B000E0918400E251F1E0EF1700F0F395FA3077
:1028C000D8F30C946314E0910307EA95E0930307AF
:1028D000F0910207F0FD57C0EC3098F0F3E0F09370
:1028E0008900FDE8F0938800E0FB289826F4E1E0F9
:1028F0000E94FD15B8C0E5E1EA95F1F70000289ABD
:10290000B2C0E63038F100C000C02898E0FBE4E037
:1029100016F40E94FD15E4E0E0933600E6E0E09353
:102920006F00A1C0EF93EFB7EF93E0918400ED55F6
:10293000E13000F0E23000F0E33000F0E43000F08D
:10294000E53000F0289AE2E0E0936F00EF91EFBFEE
:10295000EF91189500C0E0FB289826F4E1E00E9472
:10296000FD1505C0E5E1EA95F1F70000289AE09130
:102970000307E03009F077C0EDEFE0930307E1E0F3
:10298000E093020770C0E7E0E0938900EBE1E09399
:10299000880000C02898E2E000C00E94FD15FDEF0D
:1029A00000900907F019E0910307EF17E0F4FDEF3D
:1029B00000900907F01900900A07F019EF1798F036
:1029C000EDE1FF2700800F92EA95E1F70FE10A950C
:1029D000F1F7000000000E947F12E1E0FF270F9056
:1029E0000192EE31E0F3E0910307E03009F03BC0E3
:1029F0002F933F934F935F936F937F938F939F9307
:102A0000AF93BF9378941124EE27E0930207E2E19D
:102A1000E0930307F0910B07F0930907F0910C077F
:102A2000F0930A07E0910507F0910607E115F1051B
:102A300009F009950E94FF160E9409220E9445157F
:102A40001124E0910707F0910807E115F10509F05D
:102A50000995BF91AF919F918F917F916F915F91F8
:102A60004F913F912F91EF91EFBFFF91EF911F9009
:102A70000F9018952898E2E000C00E94FD15E091A3
:102A80000307EA95E09303070895E0913109E0FD1B
:102A90000E94851800902F09002019F4A1E2B7E0E8
:102AA00002C0A7E2B8E021E0022600922F0922E04E
:102AB00020933009E0913109E0FF08952F923F9271
:102AC0004F925F926F927F928F929F92AF92BF923E
:102AD000CF92DF92EF92FF920F931F93CF93DF93EA
:102AE00020903309309034094090360950903709CE
:102AF00060903509109132097090390980903A0937
:102B000090903B09A0903C09B0903D092091380974
:102B1000C0903F09D0904009E0904209F0904309ED
:102B20000091410930913E099FEF620C431CF20174
:102B3000449141030008C12DD02D970CA81CF5012C
:102B4000449142030008C10DD01D0C0DED1CF7018E
:102B5000449143030008C10DD01D0024C038D005A6
:102B60000CF0CFE70A94C038D0050CF4C0E8C05888
:102B7000CD939A9509F0D9CF409130094A95409369
:102B8000300997E009F0D1CF6092350940923609BB
:102B900090923B09A0923C0900934109E0924209BE
:102BA000609346097093470980934809DF91CF915C
:102BB0001F910F91FF90EF90DF90CF90BF90AF905B
:102BC0009F908F907F906F905F904F903F902F904D
:102BD0000895E0912D09F0912E09019100000093D4
:102BE000B30009E0ED32F00701E217E008F0F80168
:102BF000E0932D09F0932E0908950F931F932F93BF
:102C0000EF93E0912D09F0912E0901910093B3000B
:102C100009E0ED32F00701E217E008F0F801E09377
:102C20002D09F0932E09E8E0EA95F1F7EF912F9145
:102C30001F910F91E0FD289AE0FF01C00895F4E193
:102C4000FA95F1F700C0E1FD289AE1FF00C0089570
:102C500099277727833008F00895E8E0F5E3660FB9
:102C6000771FE60FF71FA591B491E2E3F9E026E0A4
:102C7000289FE00DF11DA183B28311240895909146
:102C800045099170880F892B8093450908959927EC
:102C90007727E2E3F9E026E0289FE00DF11D6E3F83
:102CA00031F4609145096E7F609345090BC06F3F19
:102CB00031F4609145096E6F6093450903C077E375
:102CC000760F75831124089599277727E2E3F9E0B9
:102CD00026E0289FE00DF11D608311240895809364
:102CE000F4069093F5060895E4E8F3E0A0E2B1E07D
:102CF00068E06D933197E9F71124089599277727B4
:102D00002EE1629F080E191EA0E2B1E0A00DB11DD8
:102D1000485F4C93112408958093FE060895809394
:102D2000FC069093FD060895809104078170089534
:102D3000209104072E7F209304070895882329F407
:102D400080910D0790910E07089580911107909141
:102D500012070895F999FECF92BD81BD60BDF89428
:102D6000FA9AF99A78940895F999FECF92BD81BDA7
:102D7000F894F89A80B57894089528E088E190E076
:102D80000FB6F894A895809360000FBE2093600062
:102D9000FFCF129AC895C895C895C895129840E17A
:102DA00080E090E020E030E0369527959695879575
:102DB000C895C895C895C8951398009B3068019B25
:102DC0009068139AC895C895C895C895415061F701
:102DD00030930E0720930D079093120780931107ED
:102DE00080910D0790910E070F9731F08091110798
:102DF000909112070F9711F40E94BD16089510923A
:102E0000D309009903C081E08093D309019905C0DB
:102E10008091D30982608093D3090C94C916CF9313
:102E2000DF93C0E0D0E0FE01E256FF4F6491CE0197
:102E30000E94AA162196C032D105A9F7C0E2D0E0BF
:102E40006FEFCE010E94AA166FEFCE0101960E948D
:102E5000AA16A096C11588E0D80791F7DF91CF9107
:102E60000895CF9380E090E00E94B416C82F81E0CF
:102E700090E00E94B416382F20E02C0F311D81E025
:102E80002A35354509F080E0CF910895FC0145874A
:102E9000089581E091E0909347098093460940931B
:102EA00045090895FC0120812F7520830895FC01B8
:102EB0002081206420830895FC0144870895FC014B
:102EC00047830895FC01408708951F93CF93DF93B4
:102ED000EC01162F298130E0C901880F991F885F06
:102EE0009A4CFC01A591B491F901E40FF11D47FD45
:102EF000FA95EE0FFF1FE85FFA4C859194918A1BBB
:102F00009B0B6091DB0970E00E942A2A6115710514
:102F100011F461E070E086E0189FF0011124EE5C8E
:102F2000F64F21813281260F371F328321837B8325
:102F30006A838881886088838981840F8C83DF918C
:102F4000CF911F9108954093DB0908950F931F932C
:102F5000CF93DF931F92CDB7DEB78C01862F642FFE
:102F600049830E9428164981F80141838081877F27
:102F700080830F90DF91CF911F910F910895FC01F5
:102F8000862F6181641B61830C942816FC01862FB7
:102F90009181490F4183642F0C942816862F642F4A
:102FA0000C944716DC01ED91FC911197AF014F5F36
:102FB0005F4F11965C934E93249127FD02C030E041
:102FC00013C02F7730E03695322F2227379527957B
:102FD000FA014F5F5F4FE4918E2F8F77280F311DDD
:102FE000E7FDF1CF4D935C93C9010895FF920F93D4
:102FF0001F93CF93DF93082F162F86E1089FE001E0
:103000001124CA52D64F8881F82EFF1CFF24FF1CC2
:103010001A8A1D869FEF9C874B871B8A877B80625D
:1030200088831F8299872983033069F4F11001C0D6
:10303000122F81E091E0909347098093460981E047
:103040008093450908C0622F802F0E94281660E0F7
:10305000802F0E944716FF2011F01F8701C01E8796
:10306000E091300AF091310A89E0189FE00DF11DDE
:103070001124339685919491009719F41D8A1C8A26
:1030800006C0FC012491298B01969D8B8C8BDF91CE
:10309000CF911F910F91FF900895322FA82FB0E08C
:1030A00096E1899FF0011124EA52F64F908195FF35
:1030B00002C097FD29C0311119C086E18A9FF00135
:1030C0008B9FF00D1124EA52F64F8585811102C0C5
:1030D00096FF138686E18A9FF0018B9FF00D1124E5
:1030E000EA52F64F80818F7B8083089526E12A9FE4
:1030F000F0012B9FF00D1124EA52F64F9F77908339
:10310000242F432F0C94F6170895AF92BF92CF92BD
:10311000DF92EF92FF920F931F93CF93DF93C3E35E
:10312000D9E020E030E006E1029FD001039FB00D1E
:103130001124AA52B64F1D968C911D978823A9F091
:103140001C964C911C97992787FD9095840F911D93
:103150008F3F910519F014F08FEF90E097FF02C0B8
:1031600080E090E01C968C931C971C9113FF24C068
:1031700012966D917C91139788819981860F971F84
:10318000998388831496EC911497F0E0EE0FFF1F5B
:10319000E85FFA4C459154911616170624F48417EB
:1031A000950730F409C0672B39F04817590720F00C
:1031B00059834883177F1C932F5F3F4F26962430F7
:1031C000310509F0B1CF809120078111B5C0C6C08B
:1031D0002091370A3091380AB9016F5F7F4F7093A1
:1031E000380A6093370AF90144914F3F69F5A90104
:1031F0004E5F5F4F5093380A4093370AFB0164914A
:103200006F3219F410922007A4C0663009F087C00D
:10321000C90104969093380A8093370AF9013396CE
:103220002491233529F490933A0A8093390A77C080
:10323000253409F074C08091390A90913A0A90932C
:10324000380A8093370A6BC047FD4093320A909149
:10325000320A892F8F7047FF08C02E5F3F4F30938F
:10326000380A2093370AFB014491907F903BE9F0A4
:10327000903C09F44EC0903909F051C0E091370AF2
:10328000F091380A9F012F5F3F4F3093380A209307
:10329000370A2491220FC89FD0011124AA52B64F99
:1032A0001E966C910E944D183AC0E091370AF09139
:1032B000380A9F012F5F3F4F3093380A2093370A17
:1032C0009491473041F4C89FF0011124EA52F64F1F
:1032D000990F928724C04B3041F4C89FF00111240C
:1032E000EA52F64F990F91871AC04C3541F4C89FA6
:1032F000F0011124EA52F64F990F978310C044361B
:1033000071F4C89FF0011124EA52F64F990F90878B
:1033100006C0C89FF0011124EA52F64F468787E3A2
:103320009AE00E94D2179093350A8093340A109243
:103330002F0A10922E0A01C0C6E180912E0A9091A8
:103340002F0A2091340A3091350A8217930709F425
:103350003FCF019690932F0A80932E0AE2E3EE2E40
:10336000E9E0FE2E00E010E0F6E1BF2ECC24CA9486
:10337000D12CA02EB09EE001B19ED00D1124CA52D6
:10338000D64F888186FD3CC08C899D89892B09F4A4
:1033900034C09A898989981760F52FC0EC89FD8916
:1033A000AF014F5F5F4F5D8B4C8B24912F3F31F40A
:1033B00088818F7788831D8A1C8A1FC0CF0102965F
:1033C0009D8B8C8BFA014491E22FF0E0EE0FFF1FF2
:1033D000E254FF4F259134916A2DCE01F9010995F0
:1033E000EC89FD89CF0101969D8B8C8BE491E98B53
:1033F0001A8A9A898989981789F28A898F5F8A8BB4
:10340000888185FF5EC09B899F3F11F09F5F9B8BEA
:1034100087FD02C08A8501C08FEF2B85222309F426
:1034200049C05C85552309F445C0882309F442C08E
:103430004091330A442309F43DC0289F9001112490
:103440003395232F3327529FC001539F900D112492
:103450009395892F99275985589F9001599F300D31
:1034600011243395232F3327429FC001439F900D92
:1034700011249395892F99272F812223E9F0EE813A
:10348000F0E0E050F94CE491E0582E9FF001112457
:10349000F395EF2FFF27A6014E1B5F0B489F90016E
:1034A000499F300D589F300D1124C9019395892FE4
:1034B000992702C080E090E02E813885230F2E836B
:1034C00002C080E090E0F70180830F5F1F4FF6E0BD
:1034D000EF0EF11C0430110509F04BCFDF91CF91B5
:1034E0001F910F91FF90EF90DF90CF90BF90AF9022
:1034F000089500000000000000000000000000002F
:1035000080E08093310908952200240026002800DD
:103510002B002D0030003300360039003D00400004
:10352000440048004C00510056005B0060006600FB
:103530006C00730079008100880090009900A2005F
:10354000AC00B600C100CC00D800E500F3000101DA
:10355000100121013201440157016C0181019801E0
:10356000B001CA01E501020221024102640288029F
:10357000AE02D7020303300361039403CB030504B7
:1035800042048304C70410055D05AF050506610606
:10359000C206290796070908830805098E09200A2B
:1035A000BA0A5D0B0A0CC10C840D510E2B0F1210C0
:1035B00007110A121D1340147415BA161418831932
:1035C000071BA31C571E24200E22142439267F28F3
:1035D000E82A752D293006330F364539AD3C494070
:1035E0001B442848734CFE50CF55EA5A51600C6674
:1035F0001D6C8B725A79928037885090E598FDA1A6
:103600009FABD3B5A3C00000000000000000000085
:1036100000000000000000000000000000000000AA
:10362000000000000000000000000000000000009A
:10363000000000000000000000000000000000008A
:10364000000000000000000000000000000000007A
:10365000000000000000000000000000000000006A
:10366000000000000000000000000000000000005A
:10367000000000000000000000000000000000004A
:10368000000000000000000000000000000000003A
:10369000000000000000000000000000000000002A
:1036A000000000000000000000000000000000001A
:1036B000000000000000000000000000000000000A
:1036C00000000000000000000000000000000000FA
:1036D00000000000000000000000000000000000EA
:1036E00000000000000000000000000000000000DA
:1036F00000000000000000000000000000000000CA
:10370000000306090C101316191C1F2225282B2E46
:10371000313336393C3F414447494C4E515355585B
:103720005A5C5E60626466686A6B6D6F7071737418
:10373000757678797A7A7B7C7D7D7E7E7E7F7F7FD1
:103740007F7F7F7F7E7E7E7D7D7C7B7A7A797876B7
:1037500075747371706F6D6B6A68666462605E5CCD
:103760005A585553514E4C494744413F3C393633E2
:10377000312E2B2825221F1C191613100C090603A5
:1037800000FDFAF7F4F0EDEAE7E4E1DEDBD8D5D2AC
:10379000CFCDCAC7C4C1BFBCB9B7B4B2AFADABA877
:1037A000A6A4A2A09E9C9A9896959391908F8D8C9A
:1037B0008B8A8887868685848383828282818181C1
:1037C0008181818182828283838485868687888ABB
:1037D0008B8C8D8F9091939596989A9C9EA0A2A485
:1037E000A6A8ABADAFB2B4B7B9BCBFC1C4C7CACD50
:1037F000CFD2D5D8DBDEE1E4E7EAEDF0F4F7FAFD6D
:10380000808182838485868788898A8B8C8D8E8F40
:10381000909192939495969798999A9B9C9D9E9F30
:10382000A0A1A2A3A4A5A6A7A8A9AAABACADAEAF20
:10383000B0B1B2B3B4B5B6B7B8B9BABBBCBDBEBF10
:10384000C0C1C2C3C4C5C6C7C8C9CACBCCCDCECF00
:10385000D0D1D2D3D4D5D6D7D8D9DADBDCDDDEDFF0
:10386000E0E1E2E3E4E5E6E7E8E9EAEBECEDEEEFE0
:10387000F0F1F2F3F4F5F6F7F8F9FAFBFCFDFEFFD0
:10388000000102030405060708090A0B0C0D0E0FC0
:10389000101112131415161718191A1B1C1D1E1FB0
:1038A000202122232425262728292A2B2C2D2E2FA0
:1038B000303132333435363738393A3B3C3D3E3F90
:1038C000404142434445464748494A4B4C4D4E4F80
:1038D000505152535455565758595A5B5C5D5E5F70
:1038E000606162636465666768696A6B6C6D6E6F60
:1038F000707172737475767778797A7B7C7D7E7F50
:1039000000020406080A0C0E10121416181A1C1EC7
:1039100020222426282A2C2E30323436383A3C3EB7
:1039200040424446484A4C4E50525456585A5C5EA7
:1039300060626466686A6C6E70727476787A7C7E97
:103940007F7D7B79777573716F6D6B696765636177
:103950005F5D5B59575553514F4D4B494745434167
:103960003F3D3B39373533312F2D2B292725232157
:103970001F1D1B19171513110F0D0B090705030147
:10398000FFFDFBF9F7F5F3F1EFEDEBE9E7E5E3E137
:10399000DFDDDBD9D7D5D3D1CFCDCBC9C7C5C3C127
:1039A000BFBDBBB9B7B5B3B1AFADABA9A7A5A3A117
:1039B0009F9D9B99979593918F8D8B898785838107
:1039C00080828486888A8C8E90929496989A9C9E07
:1039D000A0A2A4A6A8AAACAEB0B2B4B6B8BABCBEF7
:1039E000C0C2C4C6C8CACCCED0D2D4D6D8DADCDEE7
:1039F000E0E2E4E6E8EAECEEF0F2F4F6F8FAFCFED7
:103A00007F7F7F7F7F7F7F7F7F7F7F7F7F7F7F7FC6
:103A10007F7F7F7F7F7F7F7F7F7F7F7F7F7F7F7FB6
:103A20007F7F7F7F7F7F7F7F7F7F7F7F7F7F7F7FA6
:103A30007F7F7F7F7F7F7F7F7F7F7F7F7F7F7F7F96
:103D00000309131E28313A40464C5054585B5E61FB
:103D1000636567696B6C6E6F7071727374757677BB
:103D2000777879797A7A7B7B7C7C7C7D7D7D7E7EE1
:103D30007E7E7F7F7F7F7F7F7F7F7F7F7F7F7F7F95
:103D40007F7F7F7F7F7F7F7F7F7F7F7F7F7E7E7E86
:103D50007E7D7D7D7C7C7C7B7B7A7A7979787777B8
:103D6000767574737271706F6E6C6B696765636181
:103D70005E5B5854504C46403A31281E13090300EC
:103D8000C6CCD5DBDFE3E5E7E9EAEBECEDEEEFEF00
:103D9000F0F0F0F1F1F1F1F2F2F2F2F2F2F2F2F30C
:103DA000F3F3F3F3F3F3F3F3F3F3F3F3F3F3F3F3E3
:103DB000F3F3F3F3F3F3F3F3F3F3F3F3F3F3F3F3D3
:103DC000F3F3F3F3F3F3F3F3F3F3F3F3F3F3F3F3C3
:103DD000F3F3F3F3F3F3F3F3F3F3F3F3F3F3F3F3B3
:103DE000F2F2F2F2F2F2F2F2F1F1F1F1F0F0F0EFC0
:103DF000EFEEEDECEBEAE9E7E5E3DFDBD5CCC6007F
:103E000000283D42302D2C2B2C2D2E2F30323335D7
:103E100037393B3D3F414345484A4C4E5053555737
:103E2000595B5D5F61636567696B6C6E707173741C
:103E3000757778797A7B7C7D7D7E7E7F7F7F7F7FC3
:103E40007F7F7F7F7F7F7E7E7D7D7C7B7A797877A9
:103E500075747371706E6C6B69676563615F5D5BD0
:103E600059575553504E4C4A484543413F3D3B39C5
:103E700037353332302F2E2D2C2B2C2D30423D2830
:103E800000E9E5FED4D7D7D7D6D4D2D0CECCCAC895
:103E9000C6C3C1BFBDBAB8B6B4B1AFADABA9A7A5D3
:103EA000A3A19F9E9C9A999795949391908F8D8CA6
:103EB0008B8A8988888786858584848483838383A5
:103EC0008383838383848484858586878888898A9D
:103ED0008B8C8D8F909193949597999A9C9E9FA18E
:103EE000A3A5A7A9ABADAFB1B4B6B8BABDBFC1C3A6
:103EF000C6C8CACCCED0D2D4D6D7D7D7D4FEE5E95F
:103F0000F9F8F9F5EBE1DDDEE0E2E4E5E6E5E4E22F
:103F1000DED9D2CAC1B7ACA299918A86838180804A
:103F20008182838586888A8C8D8F909293959697CF
:103F300098999A9B9B9C9D9D9D9E9E9E9F9F9F9FB7
:103F40009F9F9F9E9E9E9D9D9D9C9B9B9A999897AF
:103F500096959392908F8D8C8A88868583828180B6
:103F6000808183868A9199A2ACB7C1CAD2D9DEE298
:103F7000E4E5E6E5E4E2E0DEDDE1EBF5F9F8F900A1
:103F80000708070B151F2322201E1C1B1A1B1C1EB3
:103F900022272E363F49545E676F767A7E7F7F7F79
:103FA0007F7E7D7B7A7876747371706E6D6B6A69D3
:103FB00068676665656464636362626261616161CA
:103FC00061616162626263636364656566676869B3
:103FD0006A6B6D6E7071737476787A7B7D7E7F7F8D
:103FE0007F7F7E7A766F675E54493F362E27221E8A
:103FF0001C1B1A1B1C1E2022231F150B0708070061
:104000001F313D444E5354565A5F64696E7476793D
:104010007C7F7F7F7F7F7F7F7F7F7F7F7F7F7F7FB3
:104020007F7F7F7F7F7F7F7F7F7F7F7F7F7F7F7FA0
:104030007F7F7F7F7F7F7F7F7F7F7F7F7F7F7F7F90
:104040007F7F7F7F7F7F7F7F7F7F7F7F7F7F7F7F80
:104050007F7F7F7F7F7F7F7F7F7F7F7F7F7F7F7F70
:104060007F7F7F7F7F7F7F7F7F7F7F7F7F7F7F7F60
:104070007F7F7F7F7F7F7F7F7F7F7F7C7871684CB2
:104080002C1C120C0A0B0A05FDF3E9DFD4CAC0B7D9
:10409000AEA69E97918B868582808080808080806E
:1040A0008080808080808080808080808080808010
:1040B0008080808080808080808080808080808000
:1040C00080808080808080808080808080808080F0
:1040D00080808080808080808080808080808080E0
:1040E00080808080808080808080808080808080D0
:1040F000808080808087919DACC4CBD4DDF2FAFAB9
:1041000090913D0AEEEDF6E080E00BC02081DF01EA
:1041100012970D90BC91A02DA05EBE4F2C938F5F87
:1041200033968913F3CF08958093000108952F9259
:104130003F924F925F926F927F928F929F92AF9237
:10414000BF92CF92DF92EF92FF920F931F93CF9384
:10415000DF93CDB7DEB727970FB6F894DEBF0FBE5B
:10416000CDBF10923D0A80910001882309F4AEC0B2
:1041700065EAE62E64E0F62E312CF7013197808156
:10418000803F09F482C0F7014081242F30E0282EBF
:10419000269426942694877011F491E001C092E051
:1041A000998353E0369527955A95E1F72B83242F71
:1041B000277011F491E001C092E09A83D22EC12CB5
:1041C0002601480E511C00E010E09B819E519C830B
:1041D000922D9E519D8347C02E81822F820D8E315C
:1041E00010F08D81820FA301480F511D20E2A22EF5
:1041F00021E0B22EA40EB51EF50180818830E0F0DA
:1042000060913D0A683008F5A62FB0E0FD01EE0F81
:10421000FF1FEA0FFB1FE452F94F51834083828353
:104220000E94511380913D0AF5018083282F2F5F52
:1042300020933D0A883048F44E815F81480D591D16
:104240009201682F832D0E94E2138E819F81019637
:104250009F838E839981891708F4BECF0F5F1F4F0C
:104260009A81091790F4602E8B81800F8E3118F09F
:104270009C81690E01C0682EEEE16E9E3001112412
:10428000902E88241F821E82A7CF3394F4E0EF0E75
:10429000F11C8EE0381271CF27960FB6F894DEBF6E
:1042A0000FBECDBFDF91CF911F910F91FF90EF9087
:1042B000DF90CF90BF90AF909F908F907F906F9046
:1042C0005F904F903F902F900C94802027960FB6D0
:1042D000F894DEBF0FBECDBFDF91CF911F910F913C
:1042E000FF90EF90DF90CF90BF90AF909F908F9016
:1042F0007F906F905F904F903F902F90089508951A
:10430000E4EAF4E080EF8083349694E0EC3DF90732
:10431000D1F708956F927F928F929F92AF92BF9242
:10432000CF92DF92EF92FF920F931F93CF93DF9381
:10433000882E762EEA01FA01A49031969490CA2C28
:10434000D12CB12C1AC0F701E00FF11F449150E0BD
:10435000662D880D0E947E160F5F1F4F08C000E07B
:1043600010E07E01F2E0EF0EF11C6B2C670C802F49
:104370000A1548F3B394CC0DDD1DB910F0CFDF91D1
:10438000CF911F910F91FF90EF90DF90CF90BF9052
:10439000AF909F908F907F906F9008950F931F9391
:1043A000CF93DF938C01C0E0D0E007C00E94941649
:1043B0008823E1F30E9498162196C017D107B4F321
:1043C000DF91CF911F910F91089580913E0A88232C
:1043D000F9F080913F0A811118C080913B0A8093C7
:1043E0003F0A9091400AE92FF0E0E952FF4FE49133
:1043F000E7B980913C0A890F8093400A882311F025
:104400008D3031F410923E0A0895815080933F0A16
:1044100008950E94E5210C9497201F93CF93DF937A
:104420001F92CDB7DEB7182F69830E94B12A698128
:1044300070E0611B71096F5F7F4F0E942A2A810F14
:104440000F90DF91CF911F910895372F480F290FBB
:10445000483024F06F5F842F885007C047FF04C0A6
:104460006150842F885F01C0842F28302CF0732F77
:104470007F5F922F9850089527FF05C0732F7150CA
:10448000922F985F0895922F08950E9474168EE3DC
:104490000E948C1684E694E00E948F1684EE90E0D1
:1044A0000E946F1681E00E9494200E94BB240C940D
:1044B00022250E94BB240C9422250E94DF240E9406
:1044C0001F25813079F40E9459220E94E62562E07E
:1044D00080E00E940D2290E00E9477270E944326F0
:1044E0000C94FB250895CF93C1E04AE250E06C2F75
:1044F00080E00E947E16CF5FCC31B9F7C1E04AE27E
:1045000050E06C2F8DE10E947E16CF5FCC31B9F761
:1045100048E250E060E080E00E947E1648E250E011
:1045200060E08DE10E947E1648E250E064E080E0A9
:104530000E947E1648E250E064E08DE10E947E1603
:1045400048E250E06BE180E00E947E1648E250E0D5
:104550006BE18DE10E947E16C1E049E250E060E02F
:104560008C2F0E947E16CF5FCD31B9F7C1E049E2B2
:1045700050E064E08C2F0E947E16CF5FCD31B9F7FA
:10458000C1E049E250E06BE18C2F0E947E16CF5FC4
:10459000CD31B9F747EF53E161E08AE1CF910C9457
:1045A0008A2144EE53E16DE08CE00C948A21892B42
:1045B00011F410924F09089584E090E090934D0912
:1045C00080934C09089581E090E090934D09809389
:1045D0004C0908951F93CF93DF9381E00E94112629
:1045E000EB01162F1F5F6D2F812F0E942126813036
:1045F00009F408C01C2F11506D2F812F0E94212615
:10460000813011F4612F13C01D2F1F5F612F8C2F7C
:104610000E942126813019F46C2F712F0CC0D150CB
:104620006D2F8C2F0E942126813019F46C2F7D2F45
:1046300002C060E070E080E090E0DF91CF911F91D8
:1046400008950E94EA220E94482581E090E090931C
:104650004D0980934C09089581E090E00E947829EB
:10466000813091F40E943625811108C00E942625D0
:10467000833050F40E9426258F5F04C080E00E94A2
:104680003A2581E00E942B2583E090E00E94782962
:10469000813091F40E943625823041F40E94262513
:1046A000833050F40E9426258F5F04C082E00E9470
:1046B0003A2581E00E942B2584E090E00E94782931
:1046C000813091F40E943625833041F40E942625E2
:1046D000833050F40E9426258F5F04C083E00E943F
:1046E0003A2581E00E942B2582E090E00E94782903
:1046F000813091F40E943625813041F40E942625B4
:10470000833050F40E9426258F5F04C081E00E9410
:104710003A2581E00E942B2580E090E00E947829D4
:10472000813059F40E942625811104C084E00E9442
:104730003A2503C081500E942B2582E090E090939F
:104740004D0980934C0908950E94412528E0629FFD
:10475000800D1124885E8093A40488E0789F900DDA
:104760001124985C9093A5040E943625843019F496
:104770001092A60408950E943625823019F481E033
:104780008093A7040E943625833011F41092A70469
:1047900080915509982F9F5F9093550963E00E947F
:1047A0000A2A91110DC080915009E82FE370F0E0C2
:1047B000EF5AF64F90819093A6048F5F8093500933
:1047C00008958F929F92AF92BF92CF92DF92EF9215
:1047D000FF920F931F93CF93DF930E9441258B018C
:1047E0005C010E944125D62FC72FF82EE92E80E0CC
:1047F0000E9411264B010E943625833061F40E94ED
:10480000262520E0482FB801C5010E942522D62F79
:10481000C72FE92EF82EDC2ECD2E0E9436258230B1
:1048200079F40E942625482F419520E0B801C50162
:104830000E942522D62FC72FE92EF82ED72EC62E5E
:104840000E94362581110FC00E942625282F219510
:1048500040E0B801C5010E942522D62FC72FE92EBE
:10486000F82ED72EC62E0E943625813071F40E9474
:104870002625282F40E0B801C5010E942522D62F09
:10488000C72FE92EF82ED72EC62ED81106C0C91173
:1048900004C081E080934F0961C0612F802F815057
:1048A0000E942126813091F04D2F50E0202F30E0E2
:1048B000215031094217530749F4CD2EC39484E0A7
:1048C0000E943A2580E00E942B25F12C612F802F39
:1048D0008F5F0E942126813059F0C01209C01F1439
:1048E0003CF484E00E943A2580E00E942B25F12CC4
:1048F000612F6150802F0E942126813091F04C2F32
:1049000050E0212F30E0215031094217530749F47C
:10491000DC2ED39484E00E943A2580E00E942B256F
:10492000E12C612F6F5F802F0E942126813059F08A
:10493000D11209C01E143CF484E00E943A2580E0A4
:104940000E942B25E12CB6018F2D9E2D0E9448251B
:1049500083E090E090934D0980934C09DF91CF91D3
:104960001F910F91FF90EF90DF90CF90BF90AF908D
:104970009F908F90089585E090E090934B098093ED
:104980004A0910924D0910924C0910924E0910924A
:104990004F091092A60480EF8093A4048093A5048D
:1049A0001092A7041092500981E08093510910924F
:1049B000520982E080935309109254090895CF93CD
:1049C000DF9380914E098130B9F5C0914C09D091A7
:1049D0004D0980914A0990914B098C179D0739F038
:1049E000CE010E94D722D0934B09C0934A098091EF
:1049F0004A0990914B098230910591F028F4009773
:104A000049F00197A9F409C08330910561F004973A
:104A100079F40CC00E9421230BC00E942C2308C0F3
:104A20000E94E12305C00E94DC2202C00E94E32212
:104A3000DF91CF910C94A423DF91CF9108958091C1
:104A40004F09089581E080934E09089580915C0993
:104A500082958F700895ECE5F9E020E1829FC00116
:104A6000112490819F70982B9083089580915C0908
:104A70008F700895ECE5F9E09081907F982B9083FA
:104A80000895EDE5F9E06081718182819381089557
:104A900060935D0970935E0980935F09909360094C
:104AA0000895282F237030E0220F331FA3E0B0E0D9
:104AB000022E01C0AA0F0A94EAF7A0958695869562
:104AC00092E1899FF0011124E60FF11DEF59F64F95
:104AD0008081A823022E01C0440F0A94EAF7A42B78
:104AE000A08308956F927F928F929F92AF92BF9210
:104AF000CF92DF92EF92FF920F931F93CF93DF93AA
:104B000000D0CDB7DEB7B82EA62E481B261B141634
:104B100024F0411104C090E003C091E001C09FEF78
:104B2000121624F0211104C050E003C051E001C06E
:104B30005FEFE42FFF27E7FDF095F7FF03C0F19546
:104B4000E195F1099E2E332727FD309537FF03C0ED
:104B5000319521953109822E122F29150CF4192D2A
:104B6000612C712CC12CD12CE12EFF24E7FCF09498
:104B70008FEFE81AF80A16C0402F6A2D8B2D5A8342
:104B800099830E945125D90CC80C5A8199811D1511
:104B900014F4D11AB90E1C1514F4C11AA50EEFEFB6
:104BA0006E1A7E0AE614F7043CF70F900F90DF911F
:104BB000CF911F910F91FF90EF90DF90CF90BF901A
:104BC000AF909F908F907F906F90089521E639E08D
:104BD0000EC0F901E80FF91F10820196823191058C
:104BE000C1F72E5E3F4F89E02D3C380719F080E079
:104BF00090E0EFCF08954091CF096091CE09695FB1
:104C00008091CD0950E08D5F0E947E164091D209BF
:104C10006091D109695F8091D00950E08D5F0C945B
:104C20007E16813039F46091CD097091CE09809162
:104C3000CF0908956091D0097091D1098091D2096E
:104C40000895482F437050E0440F551F23E030E093
:104C5000042E02C0220F331F0A94E2F78695869530
:104C600092E1899FF0011124E60FF11DEF59F64FF3
:104C7000808190E02823392302C0369527954A95F4
:104C8000E2F7822F08950F931F93CF93DF9363E092
:104C900081E00E940D22082FD7E020C0612F8C2FC9
:104CA00083500E942126823039F0833041F08130D8
:104CB00049F4402F50E008C04CE050E005C04DE002
:104CC00050E002C040E050E06D2F8C2F0E947E1615
:104CD000CF5FCB3119F7DF5FD93121F01D2F17508E
:104CE000C3E0DCCFDF91CF911F910F9108951F9307
:104CF000CF93DF93162F882321F126C06D2F8C2FA1
:104D00000E942126823019F4111104C00BC0833097
:104D100089F4FACF67E083E00E940D228C0F809324
:104D2000CD0928C067E083E00E940D228C0F80939C
:104D3000D0092AC0CF5FC83109F7DF5FD23111F443
:104D400081C0D0E0C0E0DACF813049F525C06D2FB9
:104D50008C2F0E942126823019F4111104C00DC03D
:104D60008330A9F4FACF64E081E00E940D22C81BD1
:104D7000C093CD09D093CE094BC064E081E00E947E
:104D80000D22C81BC093D009D093D1094EC0C15089
:104D9000F1F6D15011F456C0D1E1C7E1D8CF83303C
:104DA000F9F41BC06C2F8D2F0E942126823019F43C
:104DB000111104C008C0833059F4FACFD093CD0943
:104DC00066E083E020C0D093D00966E083E028C08D
:104DD000C15041F7D15011F435C0D7E1C1E1E2CF64
:104DE000823081F52CC06C2F8D2F0E9421268C30B3
:104DF00019F4111104C010C08330D9F4FACFD09344
:104E0000CD0964E082E00E940D22C81BC093CE0948
:104E100084E08093CF0916C0D093D00964E082E08B
:104E20000E940D22C81BC093D10984E08093D2094F
:104E300009C0C150C1F6DF5FD83111F403C0D0E022
:104E4000C1E1D1CFDF91CF911F910895FF920F93D0
:104E50001F93CF93DF93182FD62FC82F01C0C02FD9
:104E600041E06D2F8C2F0E9451250C2F01506D2F8A
:104E7000802F0E942126882391F301C0102F41E04A
:104E80006D2F812F0E945125012F0F5F083118F5DA
:104E90006D2F802F0E942126882381F31CC0D11101
:104EA00007C06F2D8C2F0E942126811112C00DC0CA
:104EB000602F8C2F0E942126811104C0602F8C2F1F
:104EC0000E942627D13128F4ECCF6F2D8C2F0E9421
:104ED0002627CF5F04C00D2F0150FD2EF3941C1721
:104EE000F0F6DF91CF911F910F91FF9008954F92AF
:104EF0005F926F927F928F929F92AF92BF92CF926A
:104F0000DF92EF92FF920F931F93CF93DF93811164
:104F100019C161E00E940D22A82E61E080E00E948C
:104F20000D22982E6EE089E00E940D22D82E6FE0AF
:104F30008AE00E940D22C82EE82FF0E051E1E52E14
:104F4000F12C97012E1B3F0B182FA29E100D112440
:104F5000C2E1D0E0CE018E1B9F0BA89E802C1124B5
:104F600002E0212F40E0682D80E00E947225212F71
:104F70004D2D682D8D2D0E9472254D2D415003E041
:104F8000282D682D81E00E947225212F4D2D612F43
:104F900080E00E9472255C2C56941D2D1695FE0112
:104FA000E519F109AE9E602D11246F5F812F0E94DB
:104FB000262765E16D1986E00E940D22B82E60E17A
:104FC00089E00E940D22682EE82FF0E0EE1AFF0A19
:104FD000982F9E9C900D1124E92ECE018E1B9F0BC5
:104FE000989E702C112468E1462EF42CFB1802E0E8
:104FF0002E2D4F2D672D8F2D0E9472252E2D47E1CE
:10500000672D87E10E94722503E0272D46E1672D79
:1050100089E18B190E9472252E2D47E16E2D8F2D6F
:105020000E9472256694C619D1099C9E602D112498
:105030006F5F8B2D8695481A842D0E942627A91014
:105040001AC0850C682D6150262F4F2D8D2D0E9482
:10505000722501E0282D4F2D682D8D2D0E9472257F
:10506000682D6F5F47E14B1903E0262F8D2D8F5F71
:105070000E94722514C1C12FC150A1102DC002E0A1
:1050800020E14C2F6C2D8C2F0E94722503E021E132
:105090004F2D61E18C2F0E947225CE5F01E020E14F
:1050A0004C2F6C2D812F0E94722520E14F2D60E145
:1050B000812F0E94722502E02FE04C2F6C2D8C2F47
:1050C0000E94722503E02FE04F2D6FE08C2F0E948D
:1050D000722561E080E0B5C0D1E1DC1902E020E09A
:1050E0004C2F6D2F8C2F0E94722503E020E04F2D56
:1050F00060E0812F0E94722562E16C1901E021E0DD
:10510000412F812F0E94722521E04F2D61E0812FD8
:105110000E947225812F8F5F02E022E0482F6D2FC1
:105120000E94722547E14B1903E022E062E0812FE3
:105130008E5F0E94722561E083E00E94772660E026
:1051400082E0B3C0813009F04AC067E182E10E9489
:105150000D22C82F61E18EE00E940D22D82F63E05E
:1051600080E00E940D22D82E8D2F869539E0F32EF7
:10517000F80ED9E0D81BC6951CE01C1B02E02F2DB1
:10518000412F6D2F812F0E9472254CE0E42EEC0EF2
:105190002F2D4E2D6D2F8E2D0E94722503E02F2D69
:1051A0004E2D6F2D812F0E9472254C2F455F2D2F84
:1051B0006D2F8DE08C1B0E94722569E08CE00E94AF
:1051C000262763E080E00E940D22C82FD816C9F37D
:1051D00061E08D2D0E94772660E08C2F66C08230C2
:1051E00009F075C061E080E00E940D226BE0811142
:1051F0002DC088E00E940D228695D82FD75FC9E088
:10520000C81B02E02D2F40E06C2F80E00E94722529
:105210002D2F47E16C2F87E10E94722503E02D2F8F
:1052200047E16D2F80E00E9472252C2F46E16C2F04
:1052300081E00E94722569E08CE00E94262761E0EF
:1052400082E00E94772660E083E02FC088E00E9421
:105250000D22D82FD695CCE0CD1B02E020E14C2FBB
:1052600060E08C2F0E9472251D2F145F20E1412FDA
:1052700060E0812F0E9472254D2F455F03E020E002
:1052800060E08DE08D1B0E94722521E1412F61E1DC
:105290008C2F0E94722569E08CE00E94262761E035
:1052A00080E00E94772660E081E0DF91CF911F913E
:1052B0000F91FF90EF90DF90CF90BF90AF909F90B5
:1052C0008F907F906F905F904F900C947726DF9136
:1052D000CF911F910F91FF90EF90DF90CF90BF90F3
:1052E000AF909F908F907F906F905F904F900895B8
:1052F000CF93DF93EC0180E00E949E16C130D10570
:1053000031F4E4E096958795EA95E1F708C0C3305B
:10531000D10541F476E0969587957A95E1F7282FA7
:10532000217041C0C430D10531F4880F892F881F06
:10533000990B9195F4CFC230D10531F455E0969593
:1053400087955A95E1F7EBCFC530D10511F4292F98
:10535000E7CFC630D10509F4E2CFC730D10521F43B
:1053600091FB222720F91FC0C830D10519F496956A
:105370008795D5CFCB30D10529F49695879596950D
:105380008795CDCFCC30D10531F423E09695879524
:105390002A95E1F7C4CFCD2B29F421E0892B19F010
:1053A00020E001C001C0822FDF91CF9108950E94BB
:1053B00074160E9445220E94D122C0E001C0CF5F36
:1053C0008CE090E00E9478298130C9F78C2F90E022
:1053D0000E94B62A0E94732281E090E00E94CE21B2
:1053E0000E945D228CE090E00E9478298130A1F734
:1053F0000E94E6250E94432662E080E00E940D2282
:1054000090E00E9477270E9443260E94FB250E947D
:105410005922E2CF991B79E004C0991F961708F032
:10542000961B881F7A95C9F780950895AA1BBB1B08
:1054300051E107C0AA1FBB1FA617B70710F0A61B94
:10544000B70B881F991F5A95A9F780959095BC01B5
:10545000CD01089597FB072E16F4009407D077FD31
:1054600009D00E94162A07FC05D03EF4909581953C
:105470009F4F0895709561957F4F0895A1E21A2E70
:10548000AA1BBB1BFD010DC0AA1FBB1FEE1FFF1FE8
:10549000A217B307E407F50720F0A21BB30BE40B38
:1054A000F50B661F771F881F991F1A9469F760957F
:1054B0007095809590959B01AC01BD01CF01089539
:1054C0008F929F92AF92BF92CF92DF92EF92FF9214
:1054D000CF93DF93EC01688179818A819B8161158B
:1054E00071058105910521F464E279ED8BE597E082
:1054F0002DE133EF41E050E00E94D42A49015A01E6
:105500009B01AC01A7EAB1E40E94C12A6B017C01B6
:10551000ACEEB4EFA50194010E94CF2AC60ED71EAF
:10552000E81EF91EF7FE06C081E0C81AD108E1089E
:1055300080E8F80AC882D982EA82FB82E894D7F828
:10554000EE24FF24C601DF91CF91FF90EF90DF9012
:10555000CF90BF90AF909F908F9008950E94602A47
:10556000089581E091E00E94602A0895A0E0B0E0F3
:105570008093010190930201A0930301B093040171
:1055800008950E94F02AA59F900DB49F900DA49FAE
:10559000800D911D11240895B7FF0C94C12A0E941B
:1055A000C12A821B930B0895052E97FB16F40094D5
:1055B00007D057FD0DD00E943E2A07FC09D07EF48B
:1055C00090958095709561957F4F8F4F9F4F08956F
:1055D00050954095309521953F4F4F4F5F4F08951F
:1055E000A29FB001B39FC001A39F01D0B29F700DD5
:0C55F000811D1124911D0895F894FFCF37
:0655FC00010100000000A7
:00000001FF
