:100000000C9402130C947E130C947E130C947E13A8
:100010000C947E130C947E130C947E130C947E131C
:100020000C947E130C947E130C947E130C947E130C
:100030000C947E130C9453150C9493150C947E130E
:100040000C947E130C947E130C947E130C947E13EC
:100050000C947E130C947E130C947E130C947E13DC
:100060000C947E130C947E130C947E130C947E13CC
:100070005A5501200101003808000000000000006E
:100080000000000000000000000000000000000070
:100090008100450027FF24FF2A902B1C210C22FB06
:1000A000850084008903888D81096F0244424700DE
:1000B0004501B083B300B10125118A4F8B03481865
:1000C0004B18D918D018C718541859185E18AE18FC
:1000D000611864186718AB1800408891D2E4ADB578
:1000E000B6BEBFFFFE202B2B20FEFEFEFEFE202B09
:1000F0002B20FEFEFEFE20007700FEFEFEFE6F7748
:10010000776FFEFEFE20202B2B20FEFEFE206F1CB4
:100110001F136FFEFEFE202B2B20FEFEFEFEFE13A5
:10012000FE13FEFEFE202B2B20FEFEFEFEFE202BED
:100130002B20FEFEFEFE20007700FEFEFEFE6F7707
:10014000776FFEFEFE20202B2B206FFEFE6F131F0D
:100150001C1320FEFEFE202B2B20FEFEFE13FEFEB7
:10016000FEFE13FEFE202B2B20FEFEFEFEFE202BAD
:100170002B20FEFEFEFE20007700FEFEFEFE6F77C7
:10018000776FFEFEFEFE206F2B20FEFEFEFE20207F
:10019000131FFEFEFEFE202B2B20FEFEFE13FEFE96
:1001A000FEFE13FEFEFEFEFEFEFEFEFEFEFEFEFE5A
:1001B000FEFEFEFEFEFEFEFEFEFEFEFEFEFEFEFE5F
:1001C000FEFEFEFEFEFEFEFEFEFEFEFEFEFEFEFE4F
:1001D000FEFEFEFEFEFEFEFEFEFEFEFEFEFEFEFE3F
:1001E000FEFEFEFEFEFEFEFE5656FE00FEFEFE5625
:1001F00056565600FEFEFE563F563F00FEFEFE5689
:10020000565656FEFEFE565656565656FE56FE5646
:100210005656FE56FEFEFE565656FEFEFEFE56FE96
:10022000FE56FEFEFEFEADFFFFFEFEFEFEADFFFF34
:10023000FFFFFEFEFEADFF00FF00FEFEFEFEFEFF26
:1002400000FFFEFEFEADFFFFFFFFADFEADFE5BFF5C
:10025000FF5BFEADFEFEADFFFFFEFEFEFEADFEFE51
:10026000FEADFEFEFEFEFEFEFEFEFEFEFEFEFEFEFF
:10027000FEFEFEFEFEFEFEFEFEFF6FFEFEFEFEFE2C
:10028000FFFEFEFEFFFFFFADFFFEFEFEFEFFADFF29
:10029000FFFEFEFEFEFEFFFFFEFEFEFEFEFEFE6F0A
:1002A000FEFEFEFEFEFEFFFEFFFEFEFEFEFF00FF68
:1002B00000FFFEFEFF005B00005BFFFEFF00000092
:1002C000005BFFFEFEFF00005BFFFEFEFEFEFF5B2D
:1002D000FFFEFEFEFEFEFEFFFEFEFEFEFEFEFEFE3C
:1002E000FEFEFEFEFEFEFEFEFEFEFEFEFEFEFEFE2E
:1002F000FEFEFEFE37FEFE3737FEFEFEFEFE372711
:1003000037FEFE37FE3727372737FEFE37373727CA
:10031000372737FE0000000000000000FE0000004C
:100320000000FEFEFEFEFFFEFFFEFEFEFEFF06FFDD
:1003300006FFFEFEFF0647060604FFFEFF06060652
:100340000604FFFEFEFF060604FFFEFEFEFEFF049F
:10035000FFFEFEFEFEFEFEFFFEFEFEFEFEFEFEFEBB
:10036000FEFEFEFEFEFEFEFEFEFEFEFEFEFEF5F5BF
:10037000FFF5FEFEFEFEFEF5F5FEFEFEFEFEF5AD11
:10038000FFF5FEFEFEF5040D060DF5FEFEF5040478
:100390000D04F5FEFEFEF5F5F5F5FEFEFEFEFEFE95
:1003A000FEFEFEFEFEFE1D1D1D1DFEFEFEFE1D3799
:1003B00037011DFEFEFE372737371D1DFE37273755
:1003C00027371D0A1D1D1D1D1D1D1D1D1D0A0A6E21
:1003D0000A0A1DFE1D0A0A0A0A0A1DFE1D1D1D1D10
:1003E0001D1DFEFEFEFEFEFEFEFEFEFEFE1D1D1D92
:1003F0001D1DFEFE1D1D0A0A0A0A1DFE1D0A0A0A0F
:100400000A0A1D1D1D1D1D1D1D1D1D1D1D0A0A6E17
:100410000A0A1DFE1D0A0A0A0A0A1DFE1D1D1D1DCF
:100420001D1DFEFEFEFEFE2737FEFEFEFEFE27FE23
:10043000FE37FEFEFEFE27FEFE27FEFEFEFEFE2728
:1004400027FEFEFEFEFEFEFE27FEFEFEFEFEFE2751
:1004500027FEFEFEFEFEFEFE27FEFEFEFEFE272718
:1004600027FEFEFE03032526272D2E2F35363705C2
:10047000013B3C3D3E3F000000000000000000004A
:10048000000000000000000000000000000000006C
:10049000000000000000000000000000000000005C
:1004A000000000000000000000000000000000004C
:1004B00000000000000001010101010101010A0A20
:1004C0000A0A0A0A0A0A01010101010101010A0AD4
:1004D0000A0A0A0A0A0A01010101010101010A0AC4
:1004E0000A0A0A0A0A0A01010101010101010A0AB4
:1004F0000A0A0A0A0A0A0101010101010101015364
:10050000530101535301015353010153530101019D
:100510000101010101010101010101010101015379
:10052000530101535301015353010153530101017D
:10053000010101010101530A0101530A01010A0AE3
:1005400001010A0A01010101530A0101530A0101D3
:100550000A0A01010A0A530A0101530A01010A0A9F
:1005600001010A0A01010101530A0101530A0101B3
:100570000A0A01010A0A0000006565000000006522
:10058000650A0B656500650A0B0A0B0A0B65ADADC4
:100590000B0A0B0A0B0A0B0A0B0A0BAD0B0AADADCB
:1005A0000B0A0B0A0B0A0B0A0B0A0B0A0B0A0B0AA3
:1005B0000B0A0B0A0B0A0A0A0A0A0A0A0A0A0A00A2
:1005C000000000010B0A0A000000015C0B0A0A008F
:1005D00000010B5C0B0A0A00015C0B5C0B0A0A01B0
:1005E0000B5C0B5C0B0A0A5C0B5C0B5C0B0A0A0ACB
:1005F0000A0A0A0A0A0A5C0C0C0C0C0C0C5C0C0CA7
:100600000C0C0C0C0C0C0C0C0C0C0C0C0C0C5C0CDA
:100610000C0C0C0C0C5C0B0B0B0B0B0B0B0B0B00DF
:1006200000000000000B0B0000000000000B0B009E
:1006300000000000000B65656565656565655C5CCF
:100640005C5C5C5C5C5C5CBC072A456E545C5CBCBE
:10065000072A456E545C5C5C5C5C5C5C5C5C5C05C5
:10066000D2371061BC5C5C05D2371061BC5C5C5C4D
:100670005C5C5C5C5C5C006565656565650065652A
:100680006565656565650A6565656565650A520A3E
:100690000B0B0B0B0A520A52A4A4A4A4520A0A0A76
:1006A0000B0B0B0B0A0A520A0B0B0B0B0A520A52CA
:1006B000A4A4A4A4520A00005C5C5C5C0000005C82
:1006C0005C65655C5C000A5C656565655C0A5C5C34
:1006D000656565655C5C5C6565656565655C5C65F7
:1006E00065656565655C5C6565656565655C5C65DE
:1006F00065656565655C5C6565656565655C5C5CD7
:10070000656565655C5C0A5C656565655C0A0B5CD6
:100710005C65655C5C0B0B0A5C5C5C5C0A0B0A0B41
:100720000B0B0A0A0B0A0A0B0A0A0B0B0A0B000A2C
:100730000B0B0A0A0B09005C6565656565655C5C09
:100740006565656565655C5C6565656565650A5CCF
:100750005C5C5C5C5C5C0B0A0B0A0A0B0A0A0B0B08
:100760000A0B0B0A0B0B0A0B0B0A0A0B0A0A090AE3
:100770000A0B0B0A0B0B6565656565656565656547
:100780006565656565656565656565656565656519
:100790006565656565656565656565656565656509
:1007A00065656565656565656565656565656565F9
:1007B00065656565656565656565656565656565E9
:1007C00065656565656565656565656565655C5CEB
:1007D0005C5C5C5C5C5C0A0A0B0B0A0B0A0B0B0B87
:1007E0000A0B0B0A0B0B0A0A0B0A0A0B0B0A0B0B60
:1007F0000A0B0B0A0B0B6565656565655C00656535
:10080000656565655C5C6565656565655C5C5C5CCE
:100810005C5C5C5C5C0A0B0A0A0B0B0B0B0B0A0B97
:100820000B0A0B0B0A0B0B0B0A0B0B0A0B0A0A0B1E
:100830000B0B0A0B0B00005C5C5C5C5C5C005C5CA2
:10084000656565655C5C5C6565656565655C5C5C8E
:10085000656565655C5C0A5C5C5C5C5C5C0B0B0BF9
:100860000A0B0B0A0B0A0B0A0B0A0A0B0B0B000BE9
:100870000A0B0B0B0A0009090909090909091212D7
:100880001212121212120909090909090909121290
:100890001212121212120909090909090909121280
:1008A0001212121212120909090909090909121270
:1008B0001212121212120909090909090909091269
:1008C0001209091212090912120909121209090959
:1008D000090909090909090909090909090909127F
:1008E0001209091212090912120909121209090939
:1008F0000909090909091912090919120909121224
:100900000909121209090909191209091912090913
:1009100012120909121219120909191209091212DF
:1009200009091212090909091912090919120909F3
:10093000121209091212FFFFFF0000000000FF0061
:10094000000000000000FF00000000000000FF00A9
:10095000000000000000FFFF0000FFFFFF00FF009D
:10096000000000FF0000FF0000000000FF00FFFF8C
:10097000FF00FFFFFF00000000000000000000007B
:100980000000000000000000000000000000000067
:1009900000000000000000FFFF00FFFF0000FF005C
:1009A00000000000FF00FF000000FFFF000000FF4C
:1009B000FF00FFFFFF00000000000000000000003B
:1009C0000000000000000000000000000000000027
:1009D000000000000000FFFF000000FFFF00FF001C
:1009E000FF00FFFFFF00FFFF0000FF000000FF000F
:1009F000000000FFFF0000000000000000000000F9
:100A00000000000000000000FFFF0000000000FFE9
:100A100000000000000000FFFF0000FFFF0000FFDB
:100A20000000FF00000000FF0000FF0000FF00FFCB
:100A30000000FF00000000000000000000000000B7
:100A400000000000000000000000000000000000A6
:100A50000000000000000000000000000000FF0097
:100A600000FFFFFFFF0000FF00FF00FF00FFFF008F
:100A700000FF00FF00FF191910191010231910238F
:100A800023102319231019231010231023191010D9
:100A900019101919192323101019101910192310DE
:100AA000191019232323191910231919231919238C
:100AB00023191019232310191010101919101910C7
:100AC0002319191010191019192319232310231091
:100AD00023101019231910191019191010101910BA
:100AE000231010231019101019232319191010198D
:100AF0001910101019101923231919191010191091
:100B0000231010231910101910191023231910196C
:100B1000232319191019191019231910101019105D
:100B20002310101919101019191023231923191043
:100B30001919102310230000000000000000FFFF1F
:100B4000FFFFFF000000FF00000000FF0000FF00AB
:100B5000000000FF0000FF00000000FF00FFFF009A
:100B6000000000FF00FFFF00000000FF00FFFFFF8C
:100B7000FFFFFF0000000000000000000000000078
:100B80000000000000000000000000000000000065
:100B90000000000000000000FF00FF000000000057
:100BA000FF00FFFFFF000000FF00FF0000FFFFFF4E
:100BB0000000FF0000FF0000000000000000000037
:100BC0000000000000000000FFFF0000000000FF28
:100BD0000000FF00000000FF0000FF0000FF000019
:100BE000FFFF0000FFFF00000000FF00FF0000000B
:100BF000FFFF000000FF00000000000000000000F8
:100C000000000000000000000000000000000000E4
:100C1000000000000000FF0000FFFF0000FFFF00D9
:100C2000FF0000FF00FF0000FF0000FF00FFFF00CB
:100C300000FFFF0000FF00000000000000000000B7
:100C40000000000000000000000000FFFF000000A6
:100C50000000FF0000FF00000000000000FFFFFF99
:100C600000000000FF000000FF0000FF0000000087
:100C7000FF00FFFFFFFFFFFFFFFFFFFFFFFFFFFF83
:100C8000FFFFFFFFFFFFFFFFFFFFFFFFFFFFFFFF74
:100C9000FFFFFFFFFFFFFFFFFFFFFFFFFFFFFFFF64
:100CA000FFFFFFFFFFFFFFFFFFFFFFFFFFFFFFFF54
:100CB000FFFFFFFFFFFFFF00000000000000FFFF3D
:100CC000000000000000FFFFFF0000000000FFFF29
:100CD000FFFF00000000FFFFFFFFFF000000FFFF1D
:100CE000FFFFFFFF0000FFFFFFFFFFFFFF00FFFF11
:100CF000FFFFFFFFFFFF00000000000000FF0000FB
:100D000000000000FFFF0000000000FFFFFF0000E8
:100D10000000FFFFFFFF000000FFFFFFFFFF0000DC
:100D2000FFFFFFFFFFFF00FFFFFFFFFFFFFFFFFFD2
:100D3000FFFFFFFFFFFFFFFFFFFFFFFFFFFFFFFFC3
:100D4000FFFFFFFFFF00FFFFFFFFFFFF0000FFFFB0
:100D5000FFFFFF000000FFFFFFFF00000000FFFF9C
:100D6000FF0000000000FFFF000000000000FF0087
:100D7000000000000000FFFFFFFFFFFFFFFF00FF7C
:100D8000FFFFFFFFFFFF0001FFFFFFFFFFFF00006E
:100D900000FFFFFFFFFF00000000FFFFFFFF00005C
:100DA000000000FFFFFF000000000000FFFF000048
:100DB0000000000000FF0000000000000000000034
:100DC000ADADADADADAD00AD00201D37373700ADD9
:100DD0001D373737373700AD1D1D37371D1D00ADA7
:100DE0001D1D1D1D1D3700AD001D1D1D373700AD1C
:100DF00000001D1D37370000000000000000ADADF1
:100E0000ADADADADADAD37373737373737371D1DE2
:100E10001D37373737371D37373737373737373796
:100E2000373737371D3737373737371D1D373737A0
:100E300037371D1D37370000000000000000ADAD42
:100E4000ADADADAD000037371D002029AD003737FF
:100E500037002020AD003737371D0020AD00373771
:100E6000371D0020AD003737371D1D00AD00371D81
:100E70001D1D1D00AD00ADADADADADADADADA3A3C0
:100E8000A3A3A3A3A3AD525252525252A3AD5252A6
:100E900052525252A3AD525252525252A3AD5252DA
:100EA00052525252A3AD525252525252A3AD5252CA
:100EB00052525252A3AD00000000000000005252F6
:100EC000525252525252ADADADADADADADADA3A388
:100ED000A3A3A3A3A3A3525252525252525252520C
:100EE0005252525252525252525252525252000086
:100EF00000000000000000525252A3AD5200005208
:100F00005252A3AD520000525252A3AD52000052B1
:100F10005252A3AD520000525252A3AD52000052A1
:100F20005252A3AD520000525252A3AD5200005291
:100F30005252A3AD52000000FF00FF00000000FF6E
:100F400006FF06FF0000FF0647060604FF00FF0637
:100F500006060604FF0000FF060604FF000000006E
:100F6000FF04FF000000000000FF00000000000080
:100F70000000000000000000FF00FF00000000FF74
:100F800000FF00FF0000FF005B00005BFF00FF00B0
:100F90000000005BFF0000FF00005BFF000000009E
:100FA000FF5BFF000000000000FF000000000000E9
:100FB00000000000000000AD1D1D1D37373700ADDB
:100FC000001D1D1D373700AD00001D1D1D1D00AD8E
:100FD0000000001D1D1D00ADB7B70000000000ADF2
:100FE0002E2E006F65FD00AD2E00136FB7FD00AD16
:100FF00000006F13B7B737371D1D1D1D1D1D1D1DAB
:101000001D00001D1D1D1D1D00656F6F1D000000D2
:101010006F6F6F6F00000000006F6F0000009100A5
:10102000656F6F00FD91EB006FB7B765FDEBB72EF5
:10103000B7B7B7B726261D1D1D1D1D00AD001D1D10
:101040001D1D1D00AD0000001D1D1D00AD00000098
:1010500000000000AD0000262600B7B7AD00002656
:1010600026002626AD00002613130026AD002626F6
:10107000132F0000AD00656565656565656565658F
:101080006565656565656565656565656565656510
:101090006565656565650A0B0A0B0B0A0B0B0B0A88
:1010A0000B0B0A0B0A0A0A0B0B0B0B0A0B0B0A0B96
:1010B0000A0A0A0B0A0B00000000000000000000F2
:1010C00000000000000000520000000000000000CE
:1010D000520000000000000052520000000000001A
:1010E00000000000000000000000000000001900E7
:1010F00000000000000009091A1A1A1A09091265ED
:10110000231A231A1A121A231A231A1A1A1A1A1A23
:10111000231A1A1A1A1A101A1A1A1A1A1A1012104C
:101120001010101010120909090B0B0909091212ED
:101130000B5C5C0B121200000000000000000000BD
:10114000000000000000000000000052000000004D
:101150000000525200000000000052520000000047
:10116000000052000000000000000000000000002D
:101170000000000000000000000000000000131349
:101180001300B7B7000013131300B7B70000000037
:101190000000000000000000000065656500000020
:1011A0000000656565000000000000000000000010
:1011B00000000000000000AD00002F13B7B700AD25
:1011C00000002F136FB700AD0000136F136F00AD59
:1011D0000000006F001300AD00000000200000AD13
:1011E0000000202029290000ADADADADADAD00005F
:1011F000000000000000B7B7B70065262626B7B785
:10120000B7B726262626B7B7651313132626656FAC
:10121000B7B7B726266500136565656513000065D9
:10122000652626260000ADADADADADADADAD00007F
:101230000000000000002626132F0000AD00262627
:10124000132F0000AD00260026650000AD0013003E
:1012500026000000AD00200000000000AD002020AE
:1012600020200000AD00ADADADADADAD0000000083
:10127000000000000000655C1D271F0000000A0B35
:10128000030037000000A4AD6E5300000000F5011C
:10129000000000000000060D040000000000FF47F1
:1012A000000000000000000000000000000000003E
:1012B00000000000000010212A000000001A5969F7
:1012C00073000000001919612335000000100000B0
:1012D0000000000000080000000000000000000006
:1012E00000000000000000000000000000000000FE
:1012F000000000000000000000000000000052524A
:101300000000000000005200520000520000005295
:101310000052525200000000520052000000000033
:1013200000000000000000000000000000000000BD
:1013300000000000000000FFFFFFFFFFFFFFFFAD08
:101340005B5B5B5B5B5BFF5B5BFFFF5B5BFFFF5BB9
:10135000FF5B5B5BFF5BFF5BFF5B5B5BFF5BFF5B05
:101360005BFFFF5B5BFFFFAD5B5B5B5B5B5B00FFA2
:10137000FFFFFFFFFFFFFFFFFFFFFFFFFFFF520029
:10138000000000000000FF5200FFFF0000FF5B5B59
:1013900052FF00FF00005B5B5BFFFF000000FF5B94
:1013A00052FFFFFF00005B52000000000000FFFF43
:1013B000FFFFFFFFFFFFFFFFFFFFFFFFFFFF00003B
:1013C00000000000000000FF0000FF0000FFFF0021
:1013D0000000FFFF00FFFF00FF00FF00FFFFFF0016
:1013E0000000FF0000FF0000000000000000FFFF01
:1013F000FFFFFFFFFFFFFFFFFFFFFFFFFFFF0000FB
:101400000000000000000000FFFF0000000000FFDF
:101410000000000000FF00FF000000FF00000000CF
:10142000FFFF000000FF0000000000000000FFFFC1
:10143000FFFFFFFFFFFFFFFFFFFFFFFFFF000000B9
:101440000000000000FFFFFF0000FF0000FF0000A1
:1014500000FF00FF00FFFFFF00FFFFFF00FFFFFF97
:1014600000FF00FF00FF00000000000000FFFFFF82
:10147000FFFFFFFFFF0000FFFFFF00000000FF0075
:101480000000FF000000FF00FF00FF000000FF0061
:10149000FF00FF000000FF000000FF00000000FF51
:1014A000FFFF00000000000000000000000000003E
:1014B0000000000000000000FF000000000000FF2E
:1014C000FF00000000000000FF000000000000001E
:1014D000FF00000000000000FF000000000000FF0F
:1014E000FFFF0000000000000000000000000000FE
:1014F00000000000000000FFFFFF00000000FF00F0
:101500000000FF00000000000000FF00000000FFDE
:10151000FFFF00000000FF00000000000000FFFFD0
:10152000FFFFFF00000000000000000000000000BE
:10153000000000000000FFFFFFFFFF0000000000B0
:101540000000FF0000000000FFFF0000000000009E
:101550000000FF000000FF000000FF00000000FF8F
:10156000FFFF00000000000000000000000000007D
:10157000000000000000000000FF0000000000006C
:10158000FFFF0000000000FF00FF00000000FFFF61
:10159000FFFFFF000000000000FF0000000000004F
:1015A00000FF00000000000000000000000000003C
:1015B000000000000000FFFFFFFFFF000000FF0031
:1015C00000000000000000FFFFFF0000000000001E
:1015D0000000FF000000FF000000FF00000000FF0F
:1015E000FFFF0000000000000000000000000000FD
:1015F0000000000000000000FFFF0000000000FFEE
:1016000000000000000000FFFFFF00000000FF00DE
:101610000000FF000000FF000000FF00000000FFCE
:10162000FFFF0000000000000000000000000000BC
:10163000000000000000FFFFFFFFFF000000FF00B0
:101640000000FF000000000000FF0000000000009C
:10165000FF00000000000000FF000000000000008C
:10166000FF0000000000000000000000000000007B
:1016700000000000000000FFFFFF00000000FF006E
:101680000000FF00000000FFFFFF00000000FF005F
:101690000000FF000000FF000000FF00000000FF4E
:1016A000FFFF00000000000000000000000000003C
:1016B00000000000000000FFFFFF00000000FF002E
:1016C0000000FF000000FF000000FF00000000FF1E
:1016D000FFFFFF00000000000000FF00000000FF0F
:1016E000FFFF0000000000000000000000000000FC
:1016F00000000000000000000000000000000000EA
:1017000000000000000000FF0000000000000000DA
:10171000000000000000000000000000000000FFCA
:1017200000000000000000000000000000000000B9
:101730000000000000000000FFFFFF00000000FFAD
:10174000000000FF0000FF0000FFFF00FF00FF009F
:10175000FF000000FF00FF0000FFFF00FF0000FF90
:10176000000000FF00000000FFFFFF00000000007D
:101770000000000000000000000000000000000069
:101780000000000000000000000000000000000059
:10179000000000000000000000000000000000FF4A
:1017A00000000000000000FF00000000000000003A
:1017B0000000000000000000000000000000000029
:1017C0000000000000000000000000000000FFFF1B
:1017D000FFFFFF000000000000000000000000000C
:1017E00000000000000000000000000000000000F9
:1017F00000000000000000000000000000000000E9
:1018000000000000000000000000000000000000D8
:10181000000000000000000000000000000000FFC9
:1018200000000000000000000000000000000000B8
:101830000000000000000000FF00000000000000A9
:10184000FF00000000000000FF000000000000009A
:10185000FF00000000000000000000000000000089
:10186000FF00000000000000000000000000000079
:1018700000000000000000FFFFFF00000000FF006C
:101880000000FF000000FF000000FF000000FFFF5D
:10189000FFFFFF000000FF000000FF000000FF004E
:1018A0000000FF0000000000000000000000000039
:1018B000000000000000FFFFFF0000000000FF002C
:1018C00000FF00000000FFFFFF0000000000FF001D
:1018D00000FF00000000FF000000FF000000FFFF0D
:1018E000FFFF0000000000000000000000000000FA
:1018F00000000000000000FFFFFF00000000FF00EC
:101900000000FF000000FF00000000000000FF00DA
:10191000000000000000FF000000FF00000000FFCA
:10192000FFFF0000000000000000000000000000B9
:10193000000000000000FFFFFFFF0000000000FFAC
:101940000000FF00000000FF0000FF00000000FF9B
:101950000000FF00000000FF0000FF000000FFFF8C
:10196000FFFF000000000000000000000000000079
:10197000000000000000FFFFFFFFFF000000FF006D
:10198000000000000000FFFFFF0000000000FF005B
:10199000000000000000FF00000000000000FFFF4A
:1019A000FFFFFF000000000000000000000000003A
:1019B000000000000000FFFFFFFFFF000000FF002D
:1019C000000000000000FF00000000000000FFFF1A
:1019D000FF0000000000FF00000000000000FF000A
:1019E00000000000000000000000000000000000F7
:1019F00000000000000000FFFFFF00000000FF00EB
:101A00000000FF000000FF00000000000000FF00D9
:101A1000FFFFFF000000FF000000FF00000000FFCC
:101A2000FFFF0000000000000000000000000000B8
:101A3000000000000000FF000000FF000000FF00A9
:101A40000000FF000000FFFFFFFFFF000000FF009D
:101A50000000FF000000FF000000FF000000FF008A
:101A60000000FF0000000000000000000000000077
:101A700000000000000000FFFFFF00000000000069
:101A8000FF00000000000000FF0000000000000058
:101A9000FF00000000000000FF000000000000FF49
:101AA000FFFF000000000000000000000000000038
:101AB0000000000000000000FFFFFF000000000029
:101AC0000000FF00000000000000FF000000000018
:101AD0000000FF000000FF000000FF00000000FF0A
:101AE000FFFF0000000000000000000000000000F8
:101AF000000000000000FF000000FF000000FF00E9
:101B000000FF00000000FF00FF0000000000FFFFDA
:101B1000FF0000000000FF0000FF00000000FF00C9
:101B20000000FF00000000000000000000000000B6
:101B3000000000000000FF00000000000000FF00A7
:101B4000000000000000FF00000000000000FF0097
:101B5000000000000000FF00000000000000FFFF88
:101B6000FFFFFF0000000000000000000000000078
:101B7000000000000000FFFF00FFFF000000FF006A
:101B8000FF00FF000000FF00FF00FF000000FF005B
:101B90000000FF000000FF000000FF000000FF0049
:101BA0000000FF0000000000000000000000000036
:101BB000000000000000FFFF0000FF000000FF0029
:101BC000FF00FF000000FF00FF00FF000000FF001B
:101BD00000FFFF000000FF0000FFFF000000FF000B
:101BE0000000FF00000000000000000000000000F6
:101BF00000000000000000FFFFFF00000000FF00E9
:101C00000000FF000000FF000000FF000000FF00D8
:101C10000000FF000000FF000000FF00000000FFC8
:101C2000FFFF0000000000000000000000000000B6
:101C3000000000000000FFFFFFFF00000000FF00A9
:101C40000000FF000000FF000000FF000000FFFF99
:101C5000FFFF00000000FF00000000000000FF0088
:101C60000000000000000000000000000000000074
:101C700000000000000000FFFFFF00000000FF0068
:101C80000000FF000000FF000000FF000000FF0058
:101C9000FF00FF000000FF0000FF0000000000FF49
:101CA000FF00FF0000000000000000000000000036
:101CB000000000000000FFFFFFFF00000000FF0029
:101CC0000000FF000000FF000000FF000000FFFF19
:101CD000FFFF00000000FF00FF0000000000FF0009
:101CE00000FFFF00000000000000000000000000F6
:101CF00000000000000000FFFFFF00000000FF00E8
:101D000000000000000000FFFFFF000000000000D6
:101D10000000FF00000000000000FF000000FFFFC7
:101D2000FFFF0000000000000000000000000000B5
:101D3000000000000000FFFFFFFFFF0000000000A8
:101D4000FF00000000000000FF0000000000000095
:101D5000FF00000000000000FF0000000000000085
:101D6000FF00000000000000000000000000000074
:101D7000000000000000FF000000FF000000FF0066
:101D80000000FF000000FF000000FF000000FF0057
:101D90000000FF000000FF000000FF00000000FF47
:101DA000FFFFFF0000000000000000000000000036
:101DB000000000000000FF000000FF000000FF0026
:101DC0000000FF000000FF000000FF00000000FF17
:101DD00000FF0000000000FF00FF00000000000006
:101DE000FF000000000000000000000000000000F4
:101DF000000000000000FF000000FF000000FF00E6
:101E00000000FF000000FF00FF00FF000000FF00D7
:101E1000FF00FF000000FF00FF00FF000000FFFFC9
:101E200000FFFF00000000000000000000000000B4
:101E3000000000000000FF000000FF00000000FFA5
:101E400000FF000000000000FF000000000000FF95
:101E500000FF00000000FF000000FF000000FF0086
:101E60000000FF0000000000000000000000000073
:101E7000000000000000FF000000FF000000FF0065
:101E80000000FF00000000FFFFFF00000000000056
:101E9000FF00000000000000FF0000000000000044
:101EA000FF00000000000000000000000000000033
:101EB000000000000000FFFFFFFFFF000000000027
:101EC00000FF000000000000FF000000000000FF15
:101ED000000000000000FF00000000000000FFFF05
:101EE000FFFFFF00000000000000000000000000F5
:101EF00000000000000000000000000000000000E2
:101F000000000000000000FFFFFFFF000000FF00D6
:101F10000000FF000000FF0000FFFF00000000FFC6
:101F2000FF00FF00000000000000000000000000B3
:101F3000000000000000FF00000000000000FF00A3
:101F4000000000000000FFFFFFFF00000000FF0096
:101F50000000FF000000FF000000FF000000FFFF86
:101F6000FFFF000000000000000000000000000073
:101F70000000000000000000000000000000000061
:101F800000000000000000FFFFFFFF000000FF0056
:101F9000000000000000FF0000000000000000FF43
:101FA000FFFFFF0000000000000000000000000034
:101FB00000000000000000000000FF000000000022
:101FC0000000FF00000000FFFFFFFF000000FF0017
:101FD0000000FF000000FF000000FF00000000FF05
:101FE000FFFFFF00000000000000000000000000F4
:101FF00000000000000000000000000000000000E1
:1020000000000000000000FFFFFF00000000FF00D4
:1020100000FFFF000000FFFFFF000000000000FFC6
:10202000FFFFFF00000000000000000000000000B3
:102030000000000000000000FFFF0000000000FFA3
:102040000000FF00000000FF00000000000000FF93
:10205000000000000000FFFFFF000000000000FF84
:1020600000000000000000FF00000000000000FF72
:102070000000000000000000000000000000000060
:1020800000000000000000FFFFFFFF000000FF0055
:102090000000FF000000FF000000FF00000000FF44
:1020A000FFFFFF00000000000000FF00000000FF35
:1020B000FFFF00000000FF00000000000000FF0024
:1020C000000000000000FFFFFFFF00000000FF0015
:1020D0000000FF000000FF000000FF000000FF0004
:1020E0000000FF00000000000000000000000000F1
:1020F0000000000000000000FF00000000000000E1
:1021000000000000000000FFFF00000000000000D1
:10211000FF00000000000000FF000000000000FFC2
:10212000FFFF0000000000000000000000000000B1
:10213000000000000000000000FF000000000000A0
:102140000000000000000000FFFF00000000000091
:1021500000FF00000000000000FF00000000000081
:1021600000FF00000000000000FF0000000000FF72
:10217000FF0000000000FF00000000000000FF0062
:10218000000000000000FF0000FFFF000000FF0053
:10219000FF0000000000FFFFFF0000000000FF0044
:1021A00000FFFF0000000000000000000000000031
:1021B000000000000000FFFF00000000000000FF22
:1021C00000000000000000FF00000000000000FF11
:1021D00000000000000000FF00000000000000FF01
:1021E000FFFF0000000000000000000000000000F1
:1021F00000000000000000000000000000000000DF
:10220000000000000000FFFFFFFF00000000FF00D3
:10221000FF00FF000000FF00FF00FF000000FF00C4
:10222000FF00FF00000000000000000000000000B0
:10223000000000000000000000000000000000009E
:10224000000000000000FFFFFFFF00000000FF0093
:102250000000FF000000FF000000FF000000FF0082
:102260000000FF000000000000000000000000006F
:10227000000000000000000000000000000000005E
:1022800000000000000000FFFFFF00000000FF0052
:102290000000FF000000FF000000FF00000000FF42
:1022A000FFFF000000000000000000000000000030
:1022B000000000000000000000000000000000001E
:1022C000000000000000FFFFFFFF00000000FF0013
:1022D0000000FF000000FF000000FF000000FFFF03
:1022E000FFFF00000000FF00000000000000FF00F2
:1022F00000000000000000000000000000000000DE
:1023000000000000000000FFFFFFFF000000FF00D2
:102310000000FF000000FF000000FF00000000FFC1
:10232000FFFFFF00000000000000FF0000000000B1
:102330000000FF000000000000000000000000009E
:10234000000000000000FF00FFFFFF000000FFFF93
:10235000000000000000FF00000000000000FF007F
:10236000000000000000000000000000000000006D
:10237000000000000000000000000000000000005D
:1023800000000000000000FFFFFFFF000000FFFF53
:10239000FFFF0000000000000000FF000000FFFF42
:1023A000FFFF00000000000000000000000000002F
:1023B00000000000000000FF00000000000000FF1F
:1023C000000000000000FFFFFFFF0000000000FF12
:1023D00000000000000000FF0000FF0000000000FF
:1023E000FFFF0000000000000000000000000000EF
:1023F00000000000000000000000000000000000DD
:10240000000000000000FF000000FF000000FF00CF
:102410000000FF000000FF000000FF00000000FFC0
:10242000FFFFFF00000000000000000000000000AF
:10243000000000000000000000000000000000009C
:10244000000000000000FF000000FF000000FF008F
:102450000000FF00000000FF00FF0000000000007F
:10246000FF0000000000000000000000000000006D
:10247000000000000000000000000000000000005C
:10248000000000000000FF000000FF000000FF004F
:10249000FF00FF000000FF00FF00FF000000FFFF43
:1024A00000FFFF000000000000000000000000002E
:1024B000000000000000000000000000000000001C
:1024C000000000000000FFFF0000FF00000000000F
:1024D000FFFF0000000000FFFF0000000000FF0001
:1024E00000FFFF00000000000000000000000000EE
:1024F00000000000000000000000000000000000DC
:10250000000000000000FF000000FF000000FF00CE
:102510000000FF000000FF000000FF00000000FFBF
:10252000FFFFFF00000000000000FF00000000FFB0
:10253000FFFF00000000000000000000000000009D
:10254000000000000000FFFFFFFFFF000000000090
:10255000FFFF0000000000FF000000000000FFFF80
:10256000FFFFFF000000000000000000000000006E
:102570000000000000004C6966653A004B65797305
:102580003A00476F6C643A0050726573732053745D
:1025900061727421004573636170652046726F6DCE
:1025A000003B323031332042656E74726963697466
:1025B00079004F727978204C6F2D46692C206F720C
:1025C000797864657369676E6C61622E636F6D0004
:1025D000536F72727920746869732067616D65202A
:1025E000697320696E636F6D706C6574652E00543D
:1025F00068616E6B7320666F7220706C6179696EB2
:102600006721000011241FBECFEFD0E1DEBFCDBF98
:1026100014BE88E10FB6F8948093600010926000B9
:102620000FBE11E0A0E0B1E0ECEDF0E602C00590D5
:102630000D92A630B107D9F71BE0A0E2B1E001C0CE
:102640001D92AF37B107E1F70E943218882311F4C9
:102650000E941018F894E1E4F8E080E881939AE091
:10266000ED34F907D9F781E498E090934E0A80930E
:102670004D0A10924F0A81E08093660A8093670AA0
:102680008093650A1092520A1092580A10925E0ABC
:102690001092640A10920E081092100892E1909322
:1026A0000F0890EE909318089093160894E1909379
:1026B00017089093150810921C0810921B0810928E
:1026C000200810921F088093510A0E945C2380E02A
:1026D00090E0FC01EE0FFF1FE057FF4F2591349172
:1026E000F901F070308301968731910591F7789464
:1026F0000E945B230E94472F0C946C300C940000C6
:102700000CE00A95F1F7ECEDF7E0C0E2D1E02091A2
:102710007B0B0027A081B181AC0FBD1F1C911283E0
:10272000021708F4102F1C93339603950C3090F386
:1027300001E316E01A95F1F70A95D9F720900C08F5
:1027400030900D08009108081091090868013801BF
:102750008CE1C0E2D1E04E01002430910B08303012
:1027600009F0C4EA09F0D4E009F0832F09F061010F
:1027700000EEA02E662778E07ED236E23A95F1F799
:1027800000000E94F2133FE03A95F1F700000000CC
:10279000AA94A9F06395C895683031F033E03A9572
:1027A000F1F700000000E8CF662700243EE1C30FE8
:1027B000D01D8A9509F4E40109F46301DDCF36E008
:1027C0003A95F1F758D211240E948022E091100826
:1027D00042E0E160E427E0931008E2E0E093360095
:1027E00011240895DE01679F860100501340000DFB
:1027F000111D18010CED14E0000D111D280130E42D
:102800001EE12D91239FA1012C3008F4A201040E9A
:10281000151EF0012C30F0F0059108B92D910591AD
:1028200008B9239F059108B92C300000059108B91B
:1028300008F4A201059108B9040E151E059108B906
:102840002C301A95059108B9059131F1F00108B9BC
:1028500018F700C0019108B92D910191000008B945
:10286000239F0191000008B92C3000C0019108B9E4
:1028700008F0A1010191040E08B9151E00C00191D4
:1028800008B92C3000C0019108B901911A9521F0C6
:10289000F00108B908F6DECF08B90027C895000096
:1028A00008B9089520E4E0910808F09109088C50D7
:1028B000829FE00DF11DACEDB4E0629FA00DB11D53
:1028C000002405900D9205900D9205900D920590B3
:1028D0000D9205900D9205900D9205900D92059028
:1028E0000D9205900D9205900D9205900D92059018
:1028F0000D9205900D9205900D9205900D92059008
:102900000D9205900D9205900D9205900D920590F7
:102910000D9205900D9205900D9205900D920590E7
:102920000D9205900D9205900D9205900D920590D7
:102930000D9205900D9205900D9205900D920590C7
:102940000D9205900D9205900D9205900D920590B7
:102950000D9205900D9205900D9205900D920590A7
:102960000D9205900D9205900D9205900D92059097
:102970000D9205900D9205900D9205900D92059087
:102980000D9205900D9205900D9205900D92059077
:102990000D9205900D9205900D9205900D92059067
:1029A0000D9205900D9205900D9205900D92059057
:1029B0000D9205900D9205900D9205900D92059047
:1029C0000D92112408950F931F93CF93DF9394E0FA
:1029D000899FE4EAF4E0E00DF11D03818281E0E4E7
:1029E0008E9FD00198E0099FC0E0D8E00024C10D7F
:1029F000D01DE881F981EA0FFB1FACEDB4E090E453
:102A0000699FA00DB11D1124DD27403051F4A20FA4
:102A1000B11D822FC22F00FF11C03796C0E1C21B2B
:102A20000DC088E0821B00FD04C0C82FE80FF11D17
:102A300005C0C8E0C20FE20FF11D3197503041F4DC
:102A400098E0939FA00DB11D932F01FDF8960AC049
:102A500098E0931B632F6A9501FF692F58E0569FFA
:102A6000E00DF11D6FEF7FEF00FF61E000FF7727C2
:102A700001FD609711243EEF58E0591B48E0481BC8
:102A8000249123132C931196E60FF71F4A95C1F753
:102A9000EC0FFD1FA80FB11D5A9581F7DF91CF9163
:102AA0001F910F9108950F921F92EF93FF93EFB72D
:102AB000EF93E0918400E251F1E0EF1700F0F3951D
:102AC000FA30D8F30C946415E0910F08EA95E0937E
:102AD0000F08F0910E08F0FD57C0EC3098F0F3E0CD
:102AE000F0938900FDE8F0938800E0FB289826F435
:102AF000E1E00E94FE16B8C0E5E1EA95F1F70000BA
:102B0000289AB2C0E63038F100C000C02898E0FB37
:102B1000E4E016F40E94FE16E4E0E0933600E6E0FE
:102B2000E0936F00A1C0EF93EFB7EF93E0918400C3
:102B3000ED55E13000F0E23000F0E33000F0E43039
:102B400000F0E53000F0289AE2E0E0936F00EF91AA
:102B5000EFBFEF91189500C0E0FB289826F4E1E064
:102B60000E94FE1605C0E5E1EA95F1F70000289AFB
:102B7000E0910F08E03009F077C0EDEFE0930F0827
:102B8000E1E0E0930E0870C0E7E0E0938900EBE13C
:102B9000E093880000C02898E2E000C00E94FE1682
:102BA000FDEF00901508F019E0910F08EF17E0F421
:102BB000FDEF00901508F01900901608F019EF17B6
:102BC00098F0EDE1FF2700800F92EA95E1F70FE121
:102BD0000A95F1F7000000000E948013E1E0FF2752
:102BE0000F900192EE31E0F3E0910F08E03009F030
:102BF0003BC02F933F934F935F936F937F938F933C
:102C00009F93AF93BF9378941124EE27E0930E081F
:102C1000E2E1E0930F08F0911708F0931508F091A6
:102C20001808F0931608E0911108F0911208E115C8
:102C3000F10509F009950E94FF170E9432240E94B5
:102C400046161124E0911308F0911408E115F105DE
:102C500009F00995BF91AF919F918F917F916F91ED
:102C60005F914F913F912F91EF91EFBFFF91EF91C6
:102C70001F900F9018952898E2E000C00E94FE1661
:102C8000E0910F08EA95E0930F080895E091510A4A
:102C9000E0FD0E94EF1900904F0A002019F4A1E412
:102CA000B8E002C0A7E4B9E021E0022600924F0A92
:102CB00022E02093500AE091510AE0FF08952F92FC
:102CC0003F924F925F926F927F928F929F92AF92BC
:102CD000BF92CF92DF92EF92FF920F931F93CF9309
:102CE000DF932090530A3090540A4090560A509037
:102CF000570A6090550A1091520A7090590A8090B4
:102D00005A0A90905B0AA0905C0AB0905D0A2091EC
:102D1000580AC0905F0AD090600AE090620AF09072
:102D2000630A0091610A30915E0A9FEF620C431CB6
:102D3000F201449141030008C12DD02D970CA81C2D
:102D4000F501449142030008C10DD01D0C0DED1C8E
:102D5000F701449143030008C10DD01D0024C03881
:102D6000D0050CF0CFE70A94C038D0050CF4C0E8C9
:102D7000C058CD939A9509F0D9CF4091500A4A9501
:102D80004093500A97E009F0D1CF6092550A4092E3
:102D9000560A90925B0AA0925C0A0093610AE09244
:102DA000620A6093660A7093670A8093680ADF91EB
:102DB000CF911F910F91FF90EF90DF90CF90BF9038
:102DC000AF909F908F907F906F905F904F903F90CB
:102DD0002F900895E0914D0AF0914E0A0191000064
:102DE0000093B3000AE0ED34F00701E418E008F0C6
:102DF000F801E0934D0AF0934E0A08950F931F9344
:102E00002F93EF93E0914D0AF0914E0A01910093B8
:102E1000B3000AE0ED34F00701E418E008F0F8012F
:102E2000E0934D0AF0934E0AE8E0EA95F1F7EF914E
:102E30002F911F910F91E0FD289AE0FF01C00895A6
:102E4000F4E1FA95F1F700C0E1FD289AE1FF00C036
:102E5000089599277727833008F00895E8E0F9E38B
:102E6000660F771FE60FF71FA591B491E2E5FAE030
:102E700026E0289FE00DF11DA183B283112408955F
:102E80009091650A9170880F892B8093650A089547
:102E900099277727E2E5FAE026E0289FE00DF11D6B
:102EA0006E3F31F46091650A6E7F6093650A0BC0D6
:102EB0006F3F31F46091650A6E6F6093650A03C0DD
:102EC0007BE3760F75831124089599277727E2E530
:102ED000FAE026E0289FE00DF11D6083112408959B
:102EE00080930008909301080895E4E8F3E0A0E2DD
:102EF000B1E06CE06D933197E9F7112408959927BB
:102F000077272EE1629F080E191EA0E2B1E0A00D06
:102F1000B11D445F4C931124089580930808909349
:102F20000908089580911008817008952091100873
:102F30002E7F209310080895882329F48091190882
:102F400090911A08089580911D0890911E08089587
:102F5000F999FECF92BD81BD60BDF894FA9AF99AB5
:102F600078940895F999FECF92BD81BDF894F89AAE
:102F700080B57894089528E088E190E00FB6F89441
:102F8000A895809360000FBE20936000FFCF129A37
:102F9000C895C895C895C895129840E180E090E022
:102FA00020E030E03695279596958795C895C89589
:102FB000C895C8951398009B3068019B9068139A38
:102FC000C895C895C895C895415061F730931A08BF
:102FD0002093190890931E0880931D08809119086A
:102FE00090911A088F30910539F080911D089091C9
:102FF0001E088F30910511F40E94BB17089510929E
:10300000110B009903C081E08093110B019905C059
:103010008091110B82608093110B0E94C717089555
:10302000CF93DF93C0E0D0E0FE01E059FF4F649101
:10303000CE010E94A8172196C032D105A9F7C0E29F
:10304000D0E0CE016FEF0E94A817CE0101966FEF7E
:103050000E94A817A09688E0C030D80791F7DF91AA
:10306000CF9108951F9380E090E00E94B217182F2F
:1030700081E090E00E94B217382F20E0210F311D2F
:1030800081E095E52A35390709F080E01F91089520
:10309000FC014587089581E091E09093670A809351
:1030A000660A4093650A0895FC0180818F758083CC
:1030B0000895FC018081806480830895FC01448729
:1030C0000895FC0147830895FC01408708951F93EC
:1030D000CF93DF93EC01162F898190E0FC01EE0F76
:1030E000FF1FE85FF64C25913491E42FFF27E7FDA1
:1030F000F095E80FF91FEE0FFF1FE85FF64C859182
:103100009491821B930B6091190B70E00E94722FB7
:103110009B016115710511F421E030E0812F90E0F1
:10312000FC01EE0FFF1FE80FF91FEE0FFF1FEE5A15
:10313000F54F81819281820F931F928381833B831C
:103140002A838881886088838981840F8C83DF91BA
:10315000CF911F9108954093190B08950F931F93DA
:10316000DF93CF930F92CDB7DEB78C01862F642FFC
:1031700049830E9429174981F80141838081877F13
:1031800080830F90CF91DF911F910F910895FC01E3
:10319000862F9181941B9183692F0E94291708958E
:1031A000FC01862F9181490F4183642F0E942917CA
:1031B0000895862F642F0E9448170895DC01ED9131
:1031C000FC911197AF014F5F5F4F11965C934E9347
:1031D000249130E027FF14C02F7730703695322FBE
:1031E000222737952795FA014F5F5F4FE4918E2F85
:1031F0008F77280F311DE7FDF1CF11965C934E9329
:10320000C9010895EF92FF920F931F93DF93CF931D
:103210000F92CDB7DEB7082F162FE82EFF24A6E1B8
:10322000B0E0EA9EF001EB9EF00DFA9EF00D112445
:10323000EC5EF44F808131E087FF30E0A6E1B0E042
:10324000EA9EF001EB9EF00DFA9EF00D1124EC5E6B
:10325000F44F128A15869FEF94874387138A8081E3
:103260008062877B8083178291872183033069F492
:10327000332309F4122F81E091E09093670A809341
:10328000660A81E08093650A0AC0802F622F398325
:103290000E942917802F60E00E944817398133234C
:1032A00069F086E190E0E89EF001E99EF00DF89E5D
:1032B000F00D1124EC5EF44F17870CC086E190E00E
:1032C000E89EF001E99EF00DF89EF00D1124EC5EF1
:1032D000F44F168769E0169FB0011124E0916E0B40
:1032E000F0916F0BE60FF71F33968591949100973D
:1032F00071F486E190E0E89EF001E99EF00DF89E01
:10330000F00D1124EC5EF44F158A148A11C0FC01F3
:10331000449126E130E0E29EF001E39EF00DF29E42
:10332000F00D1124EC5EF44F418B0196958B848B4C
:103330000F90CF91DF911F910F91FF90EF90089523
:10334000CF93DF93942FE82FF0E0C6E1D0E0EC9F1D
:10335000D001ED9FB00DFC9FB00D1124AC5EB44FB9
:103360003C91432F35FF02C037FD36C0222319F5AB
:1033700086E190E0E89FD001E99FB00DF89FB00D85
:103380001124AC5EB44F1D968C911D97882321F4B7
:1033900046FD02C01B961C9286E190E0E89FD0019A
:1033A000E99FB00DF89FB00D1124AC5EB44F8C9125
:1033B0008F7B8C9311C0C6E1D0E0EC9FD001ED9FD4
:1033C000B00DFC9FB00D1124AC5EB44F3F773C9321
:1033D000422F292F0E940219DF91CF9108956F92F9
:1033E0007F929F92AF92BF92CF92DF92EF92FF9225
:1033F0000F931F93CF93DF93A4E1BBE0C3E5DAE023
:103400001D968C911D978823A9F0992787FD90958B
:103410001C962C911C97820F911D8F3F910519F0DE
:1034200014F08FEF90E097FF02C080E090E01C96D0
:103430008C931C976C9163FF25C012964D915C9103
:10344000139788819981840F951F99838883149697
:10345000EC911497F0E0EE0FFF1FE85FF64C25911A
:1034600034911416150624F48217930738F40AC011
:103470004115510539F02817390720F03983288381
:10348000677F6C93569626968BE0AC36B80709F0AA
:10349000B7CF80914008882309F0E4C0F6C0E091DE
:1034A000750BF091760B9F012F5F3F4F3093760B9A
:1034B0002093750B44914F3F71F5A9014F5F5F4F0A
:1034C0005093760B4093750BF90124912F3219F428
:1034D00010924008D5C0263009F0B7C04F5F5F4F4B
:1034E000CA0101969093760B8093750BFA01449173
:1034F000433529F49093780B8093770BA6C045341D
:1035000009F0A3C08091770B9091780B9093760B84
:103510008093750B9AC047FF02C04093700B609177
:10352000700B862F8F7047FF09C0A9014F5F5F4F57
:103530005093760B4093750BF901449170E0607FD6
:103540007070603B710529F1603C710509F471C030
:103550006039710509F079C0E091750BF091760B37
:103560009F012F5F3F4F3093760B2093750B249173
:10357000682F70E06C9FD0016D9FB00D7C9FB00DE7
:103580001124AC5EB44F220F1E966C910E94A019BC
:103590005CC0E091750BF091760BBF016F5F7F4FC0
:1035A0007093760B6093750BE491473079F490E05B
:1035B0008C9FD0018D9FB00D9C9FB00D1124AC5EEF
:1035C000B44FEE0F1A96EC931A973FC04B3079F434
:1035D00090E08C9FD0018D9FB00D9C9FB00D112469
:1035E000AC5EB44FEE0F1996EC9319972EC04C3584
:1035F00079F490E08C9FD0018D9FB00D9C9FB00D11
:103600001124AC5EB44FEE0F1796EC9317971DC0C4
:103610004436D9F490E08C9FD0018D9FB00D9C9FD3
:10362000B00D1124AC5EB44FEE0F1896EC931897C2
:103630000CC090E08C9FD0018D9FB00D9C9FB00D71
:103640001124AC5EB44F1E964C9385E79BE00E941C
:10365000DE189093730B8093720B10926D0B109287
:103660006C0B02C0C6E1D0E080916C0B90916D0BA9
:103670002091720B3091730B8217930709F40FCFCF
:10368000019690936D0B80936C0BC4E1DBE0F2E547
:10369000CF2EFAE0DF2E00E010E0E6E16E2E712C76
:1036A0007FEFA72EB12C902E069D7001079DF00C88
:1036B000169DF00C112484E19BE0E80EF91E888130
:1036C00086FD3CC08C899D89009709F434C09A8995
:1036D0008989981760F52FC0EC89FD89AF014F5F8C
:1036E0005F4F5D8B4C8B24912F3F31F488818F7716
:1036F00088831D8A1C8A1FC0CA0101969D8B8C8BF2
:10370000FA014491E22FF0E0EE0FFF1FE254FF4F69
:1037100025913491C701692DF9010995EC89FD893D
:10372000CF0101969D8B8C8BE491E98B1A8A9A8943
:103730008989981789F28A898F5F8A8B888185FFAA
:103740006DC08B898F3F11F08F5F8B8B888187FDD8
:1037500002C08A8501C08FEF6B85662309F457C0CC
:103760004C85442309F453C0882309F450C02091A8
:10377000710B222309F44BC0869FB00111246050C5
:103780007F4F672F772750E0649FC001659F900DA2
:10379000749F900D112480509F4F692F7727498582
:1037A00050E0649FC001659F900D749F900D11249F
:1037B00080509F4F492F552730E0429FC001439FC3
:1037C000900D529F900D112480509F4F892F992763
:1037D0002F812223F1F0EE81F0E0E050F54CE491EE
:1037E000E058E29FF0011124E050FF4FEF2FFF2738
:1037F000A5014E1B5F0B489F9001499F300D589FBC
:10380000300D112420503F4F832F992702C080E0B4
:1038100090E02E813885230F2E8302C080E090E057
:10382000F60180830F5F1F4F669686E090E0C80E1A
:10383000D91E0430110509F036CFDF91CF911F91C9
:103840000F91FF90EF90DF90CF90BF90AF909F903F
:103850007F906F90089500000000000000000000BD
:103860000000000000000000000000000000000058
:103870000000000000000000000000000000000048
:103880000000000000000000000000000000000038
:103890000000000000000000000000000000000028
:1038A0000000000000000000000000000000000018
:1038B0000000000000000000000000000000000008
:1038C00000000000000000000000000000000000F8
:1038D00000000000000000000000000000000000E8
:1038E00000000000000000000000000000000000D8
:1038F00000000000000000000000000000000000C8
:1039000080E08093510A08952200240026002800B8
:103910002B002D0030003300360039003D00400000
:10392000440048004C00510056005B0060006600F7
:103930006C00730079008100880090009900A2005B
:10394000AC00B600C100CC00D800E500F3000101D6
:10395000100121013201440157016C0181019801DC
:10396000B001CA01E501020221024102640288029B
:10397000AE02D7020303300361039403CB030504B3
:1039800042048304C70410055D05AF050506610602
:10399000C206290796070908830805098E09200A27
:1039A000BA0A5D0B0A0CC10C840D510E2B0F1210BC
:1039B00007110A121D1340147415BA16141883192E
:1039C000071BA31C571E24200E22142439267F28EF
:1039D000E82A752D293006330F364539AD3C49406C
:1039E0001B442848734CFE50CF55EA5A51600C6670
:1039F0001D6C8B725A79928037885090E598FDA1A2
:103A00009FABD3B5A3C00000000000000000000081
:103A100000000000000000000000000000000000A6
:103A20000000000000000000000000000000000096
:103A30000000000000000000000000000000000086
:103A40000000000000000000000000000000000076
:103A50000000000000000000000000000000000066
:103A60000000000000000000000000000000000056
:103A70000000000000000000000000000000000046
:103A80000000000000000000000000000000000036
:103A90000000000000000000000000000000000026
:103AA0000000000000000000000000000000000016
:103AB0000000000000000000000000000000000006
:103AC00000000000000000000000000000000000F6
:103AD00000000000000000000000000000000000E6
:103AE00000000000000000000000000000000000D6
:103AF00000000000000000000000000000000000C6
:103B0000000306090C101316191C1F2225282B2E42
:103B1000313336393C3F414447494C4E5153555857
:103B20005A5C5E60626466686A6B6D6F7071737414
:103B3000757678797A7A7B7C7D7D7E7E7E7F7F7FCD
:103B40007F7F7F7F7E7E7E7D7D7C7B7A7A797876B3
:103B500075747371706F6D6B6A68666462605E5CC9
:103B60005A585553514E4C494744413F3C393633DE
:103B7000312E2B2825221F1C191613100C090603A1
:103B800000FDFAF7F4F0EDEAE7E4E1DEDBD8D5D2A8
:103B9000CFCDCAC7C4C1BFBCB9B7B4B2AFADABA873
:103BA000A6A4A2A09E9C9A9896959391908F8D8C96
:103BB0008B8A8887868685848383828282818181BD
:103BC0008181818182828283838485868687888AB7
:103BD0008B8C8D8F9091939596989A9C9EA0A2A481
:103BE000A6A8ABADAFB2B4B7B9BCBFC1C4C7CACD4C
:103BF000CFD2D5D8DBDEE1E4E7EAEDF0F4F7FAFD69
:103C0000808182838485868788898A8B8C8D8E8F3C
:103C1000909192939495969798999A9B9C9D9E9F2C
:103C2000A0A1A2A3A4A5A6A7A8A9AAABACADAEAF1C
:103C3000B0B1B2B3B4B5B6B7B8B9BABBBCBDBEBF0C
:103C4000C0C1C2C3C4C5C6C7C8C9CACBCCCDCECFFC
:103C5000D0D1D2D3D4D5D6D7D8D9DADBDCDDDEDFEC
:103C6000E0E1E2E3E4E5E6E7E8E9EAEBECEDEEEFDC
:103C7000F0F1F2F3F4F5F6F7F8F9FAFBFCFDFEFFCC
:103C8000000102030405060708090A0B0C0D0E0FBC
:103C9000101112131415161718191A1B1C1D1E1FAC
:103CA000202122232425262728292A2B2C2D2E2F9C
:103CB000303132333435363738393A3B3C3D3E3F8C
:103CC000404142434445464748494A4B4C4D4E4F7C
:103CD000505152535455565758595A5B5C5D5E5F6C
:103CE000606162636465666768696A6B6C6D6E6F5C
:103CF000707172737475767778797A7B7C7D7E7F4C
:103D000000020406080A0C0E10121416181A1C1EC3
:103D100020222426282A2C2E30323436383A3C3EB3
:103D200040424446484A4C4E50525456585A5C5EA3
:103D300060626466686A6C6E70727476787A7C7E93
:103D40007F7D7B79777573716F6D6B696765636173
:103D50005F5D5B59575553514F4D4B494745434163
:103D60003F3D3B39373533312F2D2B292725232153
:103D70001F1D1B19171513110F0D0B090705030143
:103D8000FFFDFBF9F7F5F3F1EFEDEBE9E7E5E3E133
:103D9000DFDDDBD9D7D5D3D1CFCDCBC9C7C5C3C123
:103DA000BFBDBBB9B7B5B3B1AFADABA9A7A5A3A113
:103DB0009F9D9B99979593918F8D8B898785838103
:103DC00080828486888A8C8E90929496989A9C9E03
:103DD000A0A2A4A6A8AAACAEB0B2B4B6B8BABCBEF3
:103DE000C0C2C4C6C8CACCCED0D2D4D6D8DADCDEE3
:103DF000E0E2E4E6E8EAECEEF0F2F4F6F8FAFCFED3
:103E00007F7F7F7F7F7F7F7F7F7F7F7F7F7F7F7FC2
:103E10007F7F7F7F7F7F7F7F7F7F7F7F7F7F7F7FB2
:103E20007F7F7F7F7F7F7F7F7F7F7F7F7F7F7F7FA2
:103E30007F7F7F7F7F7F7F7F7F7F7F7F7F7F7F7F92
:104100000309131E28313A40464C5054585B5E61F7
:10411000636567696B6C6E6F7071727374757677B7
:10412000777879797A7A7B7B7C7C7C7D7D7D7E7EDD
:104130007E7E7F7F7F7F7F7F7F7F7F7F7F7F7F7F91
:104140007F7F7F7F7F7F7F7F7F7F7F7F7F7E7E7E82
:104150007E7D7D7D7C7C7C7B7B7A7A7979787777B4
:10416000767574737271706F6E6C6B69676563617D
:104170005E5B5854504C46403A31281E13090300E8
:10418000C6CCD5DBDFE3E5E7E9EAEBECEDEEEFEFFC
:10419000F0F0F0F1F1F1F1F2F2F2F2F2F2F2F2F308
:1041A000F3F3F3F3F3F3F3F3F3F3F3F3F3F3F3F3DF
:1041B000F3F3F3F3F3F3F3F3F3F3F3F3F3F3F3F3CF
:1041C000F3F3F3F3F3F3F3F3F3F3F3F3F3F3F3F3BF
:1041D000F3F3F3F3F3F3F3F3F3F3F3F3F3F3F3F3AF
:1041E000F2F2F2F2F2F2F2F2F1F1F1F1F0F0F0EFBC
:1041F000EFEEEDECEBEAE9E7E5E3DFDBD5CCC6007B
:1042000000283D42302D2C2B2C2D2E2F30323335D3
:1042100037393B3D3F414345484A4C4E5053555733
:10422000595B5D5F61636567696B6C6E7071737418
:10423000757778797A7B7C7D7D7E7E7F7F7F7F7FBF
:104240007F7F7F7F7F7F7E7E7D7D7C7B7A797877A5
:1042500075747371706E6C6B69676563615F5D5BCC
:1042600059575553504E4C4A484543413F3D3B39C1
:1042700037353332302F2E2D2C2B2C2D30423D282C
:1042800000E9E5FED4D7D7D7D6D4D2D0CECCCAC891
:10429000C6C3C1BFBDBAB8B6B4B1AFADABA9A7A5CF
:1042A000A3A19F9E9C9A999795949391908F8D8CA2
:1042B0008B8A8988888786858584848483838383A1
:1042C0008383838383848484858586878888898A99
:1042D0008B8C8D8F909193949597999A9C9E9FA18A
:1042E000A3A5A7A9ABADAFB1B4B6B8BABDBFC1C3A2
:1042F000C6C8CACCCED0D2D4D6D7D7D7D4FEE5E95B
:10430000F9F8F9F5EBE1DDDEE0E2E4E5E6E5E4E22B
:10431000DED9D2CAC1B7ACA299918A868381808046
:104320008182838586888A8C8D8F909293959697CB
:1043300098999A9B9B9C9D9D9D9E9E9E9F9F9F9FB3
:104340009F9F9F9E9E9E9D9D9D9C9B9B9A999897AB
:1043500096959392908F8D8C8A88868583828180B2
:10436000808183868A9199A2ACB7C1CAD2D9DEE294
:10437000E4E5E6E5E4E2E0DEDDE1EBF5F9F8F9009D
:104380000708070B151F2322201E1C1B1A1B1C1EAF
:1043900022272E363F49545E676F767A7E7F7F7F75
:1043A0007F7E7D7B7A7876747371706E6D6B6A69CF
:1043B00068676665656464636362626261616161C6
:1043C00061616162626263636364656566676869AF
:1043D0006A6B6D6E7071737476787A7B7D7E7F7F89
:1043E0007F7F7E7A766F675E54493F362E27221E86
:1043F0001C1B1A1B1C1E2022231F150B070807005D
:104400001F313D444E5354565A5F64696E74767939
:104410007C7F7F7F7F7F7F7F7F7F7F7F7F7F7F7FAF
:104420007F7F7F7F7F7F7F7F7F7F7F7F7F7F7F7F9C
:104430007F7F7F7F7F7F7F7F7F7F7F7F7F7F7F7F8C
:104440007F7F7F7F7F7F7F7F7F7F7F7F7F7F7F7F7C
:104450007F7F7F7F7F7F7F7F7F7F7F7F7F7F7F7F6C
:104460007F7F7F7F7F7F7F7F7F7F7F7F7F7F7F7F5C
:104470007F7F7F7F7F7F7F7F7F7F7F7C7871684CAE
:104480002C1C120C0A0B0A05FDF3E9DFD4CAC0B7D5
:10449000AEA69E97918B868582808080808080806A
:1044A000808080808080808080808080808080800C
:1044B00080808080808080808080808080808080FC
:1044C00080808080808080808080808080808080EC
:1044D00080808080808080808080808080808080DC
:1044E00080808080808080808080808080808080CC
:1044F000808080808087919DACC4CBD4DDF2FAFAB5
:10450000ECEDF7E090917B0B83E0989FC0011124C4
:104510008E0F9F1F07C0A081B181A05EBE4F228178
:104520002C933396E817F907B1F7089580930001AB
:1045300008952F923F924F925F926F927F928F9247
:104540009F92AF92BF92CF92DF92EF92FF920F9322
:104550001F93DF93CF9300D00F92CDB7DEB71092A9
:104560007B0B80910001882309F48FC084EA94E0DA
:104570009B838A83DD24EA81FB812081203F09F42B
:1045800078C03181832F90E0F22FF695F695F6955D
:10459000F983277019F47724739402C0B2E07B2E5C
:1045A000A3E096958795AA95E1F7F82E932F97703B
:1045B00019F4CC24C39402C0F2E0CF2E392E222469
:1045C0002101420E511CAA24BB244BC04F2D4E3159
:1045D00010F0262D01C02F2D8E2D8E3110F08E5112
:1045E00001C08E2D9EE1299F90011124280F311DBD
:1045F000E0E28E2EE1E09E2E820E931EF401908169
:104600009C30E8F060917B0B6C30F8F4462F50E062
:10461000FA01EE0FFF1FE40FF51FE452F84F31834C
:1046200020839283892F0E94521490917B0BF40176
:104630009083892F8F5F80937B0B9C3030F48D2D7E
:10464000692FA80192010E94E3140F5F1F4FE394AA
:10465000071508F4BBCF0894A11CB11CF394AC144B
:1046600040F490E0092F1A2DE98082EE682E6F0C3D
:10467000ADCFD3948A819B8104969B838A839D2DA1
:104680009E3009F078CF0E9480220F900F900F90FB
:10469000CF91DF911F910F91FF90EF90DF90CF901E
:1046A000BF90AF909F908F907F906F905F904F9052
:1046B0003F902F9008950895E4EAF4E080EF80831E
:1046C000349694E0EC3DF907D1F708957F928F92EC
:1046D0009F92AF92BF92CF92DF92EF92FF920F9391
:1046E0001F93CF93DF93982EA62EFA01B4903196A4
:1046F0007490EB2CFF24EA012296DD2415C0F8010A
:1047000044918C2D890D682D50E00E947F17C39431
:104710000F5F1F4F04C08E01CC248D2C8A0CCB144C
:1047200070F3D394CE0DDF1DD714A8F3DF91CF9192
:104730001F910F91FF90EF90DF90CF90BF90AF90BF
:104740009F908F907F9008956F927F929F92AF92EB
:10475000BF92CF92DF92EF92FF920F931F93CF936E
:10476000DF93D82EC62E3A015901780100E010E0FF
:104770000DC09E012D0D822F692DA7010E947F176C
:104780002196C615D705ACF30F5F1F4F0A151B0501
:104790002CF4C0E0D0E0902E9C0CF3CFDF91CF91B1
:1047A0001F910F91FF90EF90DF90CF90BF90AF904F
:1047B0009F907F906F9008950F931F93CF93DF93F7
:1047C0008C01C0E0D0E007C00E9492178823E1F37B
:1047D0000E9496172196C017D107B4F3DF91CF91AD
:1047E0001F910F9108958093790B10927D0B81E0BA
:1047F00080937C0B662321F080917C0B8823E1F76A
:104800000895882319F48FEF87B9089591E0909364
:104810007E0B90937A0B0E94F323089580917C0B7A
:104820008823F9F080917D0B8823C1F48091790B66
:1048300080937D0B80917E0BE82FF0E0E952FF4FD3
:10484000E491E7B990917A0B980F90937E0B99239E
:1048500011F09D3031F410927C0B089581508093BB
:104860007D0B08950E940E240E94992208951F93A3
:10487000DF93CF930F92CDB7DEB7182F69830E94D5
:10488000EB2F698170E0611B71096F5F7F4F0E94A0
:10489000722F810F0F90CF91DF911F910895372FC5
:1048A000480F290F48301CF06F5F485004C047FF85
:1048B00002C06150485F28302CF0732F7F5F922F29
:1048C000985008C027FF05C0732F7150922F985F32
:1048D00001C0922F842F0895FF920F931F93DF93AF
:1048E000CF9300D00F92CDB7DEB7E72FF92E432F2D
:1048F00070E0A22FB0E09D012F5F3F4F26173707D2
:104900000CF44CC09D0121503040621773070CF429
:1049100045C0F0E050E08A010F5F1F4F0E171F07E0
:10492000ECF18A0101501040E017F107BCF1992722
:1049300087FD9095049633E0660F771F3A95E1F76F
:10494000860F971F23E0AA0FBB1F2A95E1F7BD0131
:10495000655070408617970708F11D96A817B9078C
:10496000E8F02F2D332727FD30952C5F3F4F93E044
:10497000EE0FFF1F9A95E1F72E0F3F1F83E0440FC4
:10498000551F8A95E1F7CA0105972817390730F0B6
:10499000435F5F4F81E04217530708F480E00F90B8
:1049A0000F900F90CF91DF911F910F91FF9008957D
:1049B000FF920F931F93F82E062F142F403279F198
:1049C000842F80538B3048F4105F8F2D90E070E07F
:1049D000412F50E00E947F171AC0842F8A538230E3
:1049E00098F0825F833010F4105E11C0413271F094
:1049F000842F81548A3110F4115F09C0842F8156AD
:104A00008A3128F4175F03C01BE401C01FE48F2D17
:104A100090E0602F70E0412F50E00E947F171F91BF
:104A20000F91FF900895FF920F931F93CF93DF9301
:104A3000082F162FEA01FF248F2D800FFE01EF0DA6
:104A4000F11DF3944491442321F0612F0E94D82456
:104A5000F3CFDF91CF911F910F91FF9008950E94A6
:104A6000751786E794E00E948D1784EE90E00E940F
:104A7000701781E00E9496220E94E3290E94532829
:104A80000E94732881E090E090936D0A80936C0AF5
:104A900008958CE090E00E94F02E813031F483E0A4
:104AA00090E090936D0A80936C0A089586E090E000
:104AB00090936B0A80936A0A10926D0A10926C0AA6
:104AC00008950F931F9380E090E060E070E04EE166
:104AD00050E02CE130E000E010E00E94A4231F91A0
:104AE0000F9108958130910511F40E946125089578
:104AF0000E9453280E9473280E94FC2908950E9456
:104B0000022A853039F485E090E090936D0A809315
:104B10006C0A08950E94D8290E947028813071F48F
:104B20000E94E92A80E062E00E9437240E94FC2C67
:104B30000E94A22B0E941C2B0E94782508950E949F
:104B4000612580E06EE040ED55E20E94132585E08E
:104B50006FE04FEE55E20E94132508950E949F25B5
:104B60008CE090E00E94F02E813021F410926D0ACA
:104B700010926C0A08951F9384E060E00E94012463
:104B800011E0812F62E049E250E00E947F17812FFF
:104B90006DE049E250E00E947F171F5F1D3189F7E9
:104BA00080E062E048E250E00E947F178DE162E021
:104BB00048E250E00E947F1780E06DE048E250E05C
:104BC0000E947F178DE16DE048E250E00E947F1760
:104BD00013E080E0612F4AE250E00E947F178DE1F0
:104BE000612F4AE250E00E947F171F5F1D3089F756
:104BF00085E065E045E955E20E94132588E062E121
:104C000048E855E20E94132580E069E141EA55E257
:104C10000E94132580E06AE142EB55E20E941325D1
:104C200088E169E14FE654E00E94662381E064E098
:104C300040E250E00E947F1782E064E040E250E0F2
:104C40000E947F1783E064E041E250E00E947F17FA
:104C500015E081E0612F40E250E00E947F1783E081
:104C6000612F40E250E00E947F171F5F193089F7E3
:104C700081E069E040E250E00E947F1782E069E055
:104C800040E250E00E947F1783E069E043E250E099
:104C90000E947F1785E067E040E250E00E947F17A6
:104CA00087E067E040E250E00E947F1785E068E01F
:104CB00040E250E00E947F1787E068E040E250E069
:104CC0000E947F1785E069E044E250E00E947F1770
:104CD00086E069E040E250E00E947F1787E069E0EB
:104CE00040E250E00E947F1789E067E041E250E037
:104CF0000E947F178AE067E040E250E00E947F1741
:104D00008BE067E041E250E00E947F1789E068E0B5
:104D100040E250E00E947F1789E069E040E250E005
:104D20000E947F178BE068E040E250E00E947F170E
:104D30008BE069E040E250E00E947F1789E167E084
:104D400041E250E00E947F178AE167E040E250E0D4
:104D50000E947F178BE167E041E250E00E947F17DD
:104D600089E168E040E250E00E947F1789E169E054
:104D700040E250E00E947F178BE168E040E250E0A3
:104D80000E947F178BE169E040E250E00E947F17AC
:104D90008DE067E042E250E00E947F178EE067E01E
:104DA00040E250E00E947F178FE067E040E250E071
:104DB0000E947F178DE068E040E250E00E947F177C
:104DC0008FE068E040E250E00E947F178DE069E0EC
:104DD00044E250E00E947F178EE069E040E250E03C
:104DE0000E947F178FE069E040E250E00E947F1749
:104DF0008FE06AE040E250E00E947F178DE06BE0B8
:104E000044E250E00E947F178EE06BE040E250E009
:104E10000E947F178FE06BE043E250E00E947F1713
:104E200081E167E040E250E00E947F1782E167E0A5
:104E300040E250E00E947F1783E167E043E250E0E8
:104E40000E947F1781E168E040E250E00E947F17F6
:104E500082E168E041E250E00E947F1781E169E071
:104E600040E250E00E947F1782E169E040E250E0BA
:104E70000E947F1783E169E043E250E00E947F17C0
:104E800085E167E042E250E00E947F1786E167E03B
:104E900040E250E00E947F1787E167E041E250E086
:104EA0000E947F1785E168E040E250E00E947F1792
:104EB00087E168E040E250E00E947F1785E169E009
:104EC00044E250E00E947F1786E169E040E250E052
:104ED0000E947F1787E169E043E250E00E947F175C
:104EE0001F9108958130910521F083309105A1F43F
:104EF00003C00E94BB2508950E94E92A80E062E079
:104F00000E9437240E94FC2C0E94A22B0E941C2B82
:104F10000E9453280E947328089580916A0A9091F4
:104F20006B0A20916C0A30916D0A2817390781F0BD
:104F30000E94722580916C0A90916D0A0E947227DE
:104F400080916C0A90916D0A90936B0A80936A0A23
:104F500080916A0A90916B0A8130910569F08130E5
:104F6000910538F08330910551F08530910561F459
:104F700009C00E942F2508950E94492508950E9486
:104F80007F2508950E94AE2508950E941E2A660F6F
:104F9000660F660F685E680F6093A404770F770F43
:104FA000770F785C790F7093A5040E94132A8430E0
:104FB00019F41092A60408950E94132A823019F45D
:104FC00081E08093A7040E94132A833011F4109289
:104FD000A7048091750A982F9F5F9093750A63E0EC
:104FE0000E94522F992371F48091700AE82FF0E00B
:104FF000E370F070EF58F54F90819093A6048F5FA7
:105000008093700A0895FF920F931F93DF93CF93BD
:1050100000D000D000D0CDB7DEB781E00E94482B91
:105020006C837D838E83DE011196FE01349683E0CE
:1050300001900D928150E1F719810A81F12EF394CC
:105040008F2D602F0E946E2B813041F0F12EFA944B
:105050008F2D602F0E946E2B813011F41F2D13C0F5
:10506000F02EF394812F6F2D0E946E2B813011F45E
:105070000F2D09C00150812F602F0E946E2B8130AF
:1050800011F010E000E0612F702F80E090E0269694
:105090000FB6F894DEBF0FBECDBFCF91DF911F9149
:1050A0000F91FF90089510926F0A10926E0A10925D
:1050B000A604E4EAF4E080EF8083818313821092F7
:1050C000700A81E08093710A1092720A82E08093E4
:1050D000730A1092740A0E9403280E94272A0895D6
:1050E00080916E0A089581E080936F0A089581E0AF
:1050F00090E00E94F02E813091F40E94132A8823C0
:1051000041F40E94052A833050F40E94052A8F5FE3
:1051100004C080E00E94172A81E00E940A2A83E0EE
:1051200090E00E94F02E813091F40E94132A823088
:1051300041F40E94052A833050F40E94052A8F5FB3
:1051400004C082E00E94172A81E00E940A2A84E0BB
:1051500090E00E94F02E813091F40E94132A833057
:1051600041F40E94052A833050F40E94052A8F5F83
:1051700004C083E00E94172A81E00E940A2A82E08C
:1051800090E00E94F02E813091F40E94132A813029
:1051900041F40E94052A833050F40E94052A8F5F53
:1051A00004C081E00E94172A81E00E940A2A80E060
:1051B00090E00E94F02E813059F40E94052A882345
:1051C00021F484E00E94172A089581500E940A2A3F
:1051D00008956F927F928F929F92AF92BF92CF92DB
:1051E000DF92EF92FF920F931F93DF93CF9300D044
:1051F00000D000D0CDB7DEB70E941E2A7B01982ECA
:10520000892E0E941E2A8B013C0180E00E94482BBF
:105210006C837D838E83DE011196FE01349683E0DC
:1052200001900D928150E1F70E94132A833059F4C6
:105230000E94052A482FB701892D982D20E00E9451
:105240004F248B013C016301A12EB02E0E94132A32
:10525000823079F40E94052A482F4195B701892DA3
:10526000982D20E00E944F248B013C016C01A12E5F
:10527000B62E0E94132A882379F40E94052A282F2B
:105280002195B701892D982D40E00E944F248B0174
:105290003C016C01A12EB62E0E94132A813071F4BC
:1052A0000E94052A282FB701892D982D40E00E94E1
:1052B0004F248B013C016C01A12EB62EB801C30115
:1052C00029813A814B810E946C24813019F48093AA
:1052D0006E0A59C08E2D81506F2D0E946E2B813029
:1052E00089F0202F30E08E2D90E0019728173907A4
:1052F00049F4B02EB39484E00E94172A80E00E9403
:105300000A2ACC248E2D8F5F6F2D0E946E2B813048
:1053100059F0BE1449F41C143CF484E00E94172A8E
:1053200080E00E940A2ACC246F2D61508E2D0E94AD
:105330006E2B813089F0212F30E08F2D90E0019786
:105340002817390749F4A12EA39484E00E94172A54
:1053500080E00E940A2ADD246F2D6F5F8E2D0E944F
:105360006E2B813059F0AF1449F41D143CF484E0E5
:105370000E94172A80E00E940A2ADD246B2D7A2DD4
:10538000C6010E94272A26960FB6F894DEBF0FBEEC
:10539000CDBFCF91DF911F910F91FF90EF90DF90E4
:1053A000CF90BF90AF909F908F907F906F90089517
:1053B00080916F0A813031F40E9477280E94E92899
:1053C0000E94C527089583E08093760A8093770A28
:1053D0001092780A10927A0A1092790A10927B0A37
:1053E00084E080937C0A10927D0A10927E0A1092CB
:1053F0007F0A1092800A089580917B0A8F5F8093C4
:105400007B0A089580917B0A089580917C0A829599
:105410008F7008958295807F90917C0A9F70892B70
:1054200080937C0A089580917C0A8F7008959091F2
:105430007C0A907F982B90937C0A089560917D0A56
:1054400070917E0A80917F0A9091800A08956093FE
:105450007D0A70937E0A80937F0A9093800A089554
:10546000CF93DF93282F30E023703070220F331F4B
:10547000E3E0F0E0022E02C0EE0FFF1F0A94E2F715
:105480009E2F90958695869570E0AFE9BAE0E82F5B
:10549000F0E0EF01CC0FDD1FFE0153E0EE0FFF1F28
:1054A0005A95E1F7EC0FFD1FE60FF71FEA0FFB1F00
:1054B0005081952350E002C0440F551F2A95E2F712
:1054C000942B282F30E0220F331FF90183E0EE0FD9
:1054D000FF1F8A95E1F7E20FF31FE60FF71FEA0FB0
:1054E000FB1F9083DF91CF9108956F927F928F92EF
:1054F0009F92AF92BF92CF92DF92EF92FF920F9363
:105500001F93DF93CF9300D0CDB7DEB7182FD62EE1
:10551000481B261B141624F0442321F490E003C0FA
:1055200091E001C09FEF121624F0222321F450E0F5
:1055300003C051E001C05FEFE42FFF27E7FDF095C6
:10554000F7FF03C0F095E195FF4FBE2E332727FDEF
:10555000309537FF03C0309521953F4FA22EC22EC4
:105560002B150CF4CB2CEE24FF24882499246C2CCE
:10557000772467FC70940894611C711C16C0812FFD
:105580006D2D402F5A8399830E94302A9B0C8A0CE0
:105590005A819981C91414F49C18190FC81414F471
:1055A0008C18D50E0894E11CF11C6E147F043CF796
:1055B0000F900F90CF91DF911F910F91FF90EF907F
:1055C000DF90CF90BF90AF909F908F907F906F9023
:1055D000089521EB3AE080E090E00BC01192E217D1
:1055E000F307E1F701969F012E5E3F4F863091054C
:1055F00071F0AC01440F551FFA01A3E0EE0FFF1F3D
:10560000AA95E1F7E40FF51FE156F54FE7CFE1E882
:10561000FAE012821082118233968AE0E039F807AC
:10562000C1F7E0E9FAE012821082118233968AE033
:10563000EF39F807C1F70895CF93DF9380910B0BF3
:1056400060910C0B695F40910D0B8D5F50E00E94E3
:105650007F1780910E0B60910F0B695F4091100BCB
:105660008D5F50E00E947F17C1E8DAE04A81442351
:1056700039F088816981695F8D5F50E00E947F17F2
:1056800023968AE0C039D80789F7DF91CF91089532
:10569000DF93CF9300D00F92CDB7DEB79E012F5F7F
:1056A0003F4F813049F4D901EBE0FBE083E001900A
:1056B0000D928150E1F708C0D901EEE0FBE083E0F4
:1056C00001900D928150E1F769817A818B8190E0A0
:1056D0000F900F900F90CF91DF910895883170F562
:1056E000623170F5482F50E043705070440F551FE1
:1056F00023E030E0042E02C0220F331F0A94E2F7A9
:10570000E82FE695E695F0E0CF01880F991FFC01A0
:1057100053E0EE0FFF1F5A95E1F7E80FF91FE60F70
:10572000F11DE156F54F808190E02823392302C016
:10573000369527954A95E2F7822F089580E00895DF
:1057400080E00895EF92FF920F931F9381E063E052
:105750000E943724F82E17E026C0802F83506E2D2C
:105760000E946E2B823049F0833061F0813079F4F1
:10577000802F612F4F2D50E00EC0802F612F4CE005
:1057800050E009C0802F612F4DE050E004C0802F11
:10579000612F40E050E00E947F170F5F0B31E9F668
:1057A0001F5F193129F0F9EFEF2EE10E03E0D5CF9D
:1057B0001F910F91FF90EF900895FF920F931F9309
:1057C000F62E882311F124C0802F612F0E946E2BAA
:1057D000823011F0833091F4FF2041F083E067E0E4
:1057E0000E943724800F80930B0B26C083E067E074
:1057F0000E943724800F80930E0B28C00F5F083162
:1058000019F71F5F123111F47BC010E000E0DCCF0C
:10581000813039F523C0802F612F0E946E2B82309A
:1058200011F08330B1F4FF2051F081E064E00E9478
:105830003724081B00930B0B10930C0B47C081E01F
:1058400064E00E943724081B00930E0B10930F0B8B
:105850004AC0015001F7115011F452C011E107E1A3
:10586000DACF8330E9F419C0812F602F0E946E2BAC
:10587000823011F0833061F4FF2029F010930B0B7C
:1058800083E066E01EC010930E0B83E066E026C046
:10589000015051F7115011F433C017E101E1E4CF89
:1058A000823071F52AC0812F602F0E946E2B8C30C0
:1058B00011F08330E1F4FF2069F010930B0B82E0CC
:1058C00064E00E943724081B00930C0B84E0809353
:1058D0000D0B16C010930E0B82E064E00E9437247B
:1058E000081B00930F0B84E08093100B09C001503C
:1058F000D1F61F5F183111F403C010E001E1D3CFDE
:105900001F910F91FF9008951F93CF93DF93C1E8EC
:10591000DAE0FE0110821182128233968AE0E039C9
:10592000F807C1F71FE080E068E10E943724888310
:1059300080E062E10E9437248983888169810E9426
:105940006E2B813081F71A8323968AE0CD38D807F1
:1059500051F7DF91CF911F910895DF92EF92FF925F
:105960000F931F93F82E062F182F01C01E2D812F85
:10597000602F41E00E94302AE12EEA948E2D602FA4
:105980000E946E2B882391F301C0FE2C8F2D602F77
:1059900041E00E94302AEF2CE3948E2D883100F5EF
:1059A000602F0E946E2B882381F31AC0002361F0C0
:1059B000812F6E2D0E946E2B882321F4812F6E2D56
:1059C0000E94AD2C013150F4812F6D2D0E946E2B61
:1059D000882321F4812F6D2D0E94AD2C1F5F04C000
:1059E000D02ED394E02EEA94F11600F71F910F9178
:1059F000FF90EF90DF9008952F923F924F925F9229
:105A00006F927F928F929F92AF92BF92CF92DF92CE
:105A1000EF92FF920F931F93CF93DF93882309F0A8
:105A200015C161E00E943724A82E80E061E00E9449
:105A30003724782E89E06EE00E943724E82E8AE031
:105A40006FE00E943724D82E90E0C2E1D0E09E01A2
:105A5000281B390BA29E902C112441E1442E512C7D
:105A60009201281B390BA29E102D11241D0D80E0E0
:105A7000692D40E0212F02E00E94752A8E2D692DAC
:105A80004E2D212F0E94752A4E2D415081E0692D07
:105A9000292D03E00E94752A80E0612F4E2D212FD1
:105AA0000E94752A1E2D16952D2C2694BE01621972
:105AB0007109A69E602D11246F5F812F0E94AD2C6D
:105AC00065E16E1986E00E943724B82E89E060E116
:105AD0000E943724682E90E09E01281B390B729E8D
:105AE000802C112438E1332EF32CFB18481A590A64
:105AF000749CC02C1124C60C8F2D682D4F2D2C2D7D
:105B000002E00E94752A87E1682D47E12C2D0E9452
:105B1000752A89E18B19682D46E1282D03E00E9442
:105B2000752A8F2D6C2D47E12C2D0E94752A8B2D07
:105B300086956694C619D1097C9E602D11246F5FED
:105B4000381A832D0E94AD2CA714D1F4920C292D64
:105B500021508E2D622F4F2D0E94752A8E2D692D7A
:105B60004F2D292D01E00E94752A292D2F5F47E135
:105B70004B198E2D8F5F622F03E00E94752A13C18F
:105B8000C12ECA94E12EE394AA2059F58C2D6D2DD7
:105B90004C2D20E102E00E94752A8C2D61E14F2DF1
:105BA00021E103E00E94752A812F6D2D4E2D20E109
:105BB00001E00E94752A812F60E14F2D20E10E94B3
:105BC000752A8E2D6D2D4E2D2FE002E00E94752A34
:105BD0008E2D6FE04F2D2FE003E00E94752A80E0AC
:105BE000B2C021E1A22EAD188C2D6A2D4C2D20E0E3
:105BF00002E00E94752A812F60E04F2D20E003E033
:105C00000E94752A62E16D19812F412F21E001E088
:105C10000E94752A812F61E04F2D21E00E94752A94
:105C20008E2D6A2D4E2D22E002E00E94752A47E15A
:105C30004B19812F8E5F62E022E003E00E94752AFB
:105C400083E061E00E94DD2B82E0B2C0813009F088
:105C500048C082E167E10E943724F82E8EE061E1BE
:105C60000E943724D82E80E063E00E943724B82EAB
:105C7000D69419E01D19F6949CE0E92EEF1839E04E
:105C8000D30E8E2D612F4E2D2D2D02E00E94752AF0
:105C90008CE0C82ECF0C8C2D612F4C2D2D2D0E9409
:105CA000752A8E2D6D2D4C2D2D2D03E00E94752A09
:105CB0004F2D455F8DE08F19612F212F0E94752A8E
:105CC0008CE069E00E94AD2C80E063E00E94372404
:105CD000182FB816C9F38B2D61E00E94DD2B812FA0
:105CE00067C0823009F067C080E061E00E9437241D
:105CF000882371F588E06BE00E943724869519E0CF
:105D0000181BB9E0FB2EF80E80E0612F40E02F2D2C
:105D100002E00E94752A87E1612F47E12F2D0E9442
:105D2000752A80E06F2D47E12F2D03E00E94752A30
:105D300081E0612F46E1212F0E94752A8CE069E005
:105D40000E94AD2C82E061E00E94DD2B83E030C038
:105D500088E06BE00E943724F82EF6941CE01F19AF
:105D6000812F60E0412F20E102E00E94752AACE023
:105D7000EA2EEF0C8E2D60E04E2D20E10E94752A58
:105D80004F2D455F8DE08F1960E020E003E00E9419
:105D9000752A812F61E14E2D21E10E94752A8CE048
